{
  "contractName": "CrowdSale",
  "abi": [
    {
      "inputs": [
        {
          "internalType": "address payable",
          "name": "_beneficiary",
          "type": "address"
        },
        {
          "internalType": "uint256",
          "name": "_fundingGoal",
          "type": "uint256"
        },
        {
          "internalType": "uint256",
          "name": "_duration",
          "type": "uint256"
        },
        {
          "internalType": "uint256",
          "name": "_price",
          "type": "uint256"
        },
        {
          "internalType": "address",
          "name": "_reward",
          "type": "address"
        }
      ],
      "stateMutability": "nonpayable",
      "type": "constructor"
    },
    {
      "anonymous": false,
      "inputs": [
        {
          "indexed": false,
          "internalType": "address",
          "name": "backer",
          "type": "address"
        },
        {
          "indexed": false,
          "internalType": "uint256",
          "name": "amount",
          "type": "uint256"
        },
        {
          "indexed": false,
          "internalType": "bool",
          "name": "isContribution",
          "type": "bool"
        }
      ],
      "name": "FundTransfer",
      "type": "event"
    },
    {
      "anonymous": false,
      "inputs": [
        {
          "indexed": false,
          "internalType": "uint256",
          "name": "amountRaised",
          "type": "uint256"
        }
      ],
      "name": "GoalReached",
      "type": "event"
    },
    {
      "anonymous": false,
      "inputs": [
        {
          "indexed": true,
          "internalType": "address",
          "name": "previousOwner",
          "type": "address"
        },
        {
          "indexed": true,
          "internalType": "address",
          "name": "newOwner",
          "type": "address"
        }
      ],
      "name": "OwnershipTransferred",
      "type": "event"
    },
    {
      "anonymous": false,
      "inputs": [
        {
          "indexed": false,
          "internalType": "address",
          "name": "investor",
          "type": "address"
        },
        {
          "indexed": false,
          "internalType": "uint256",
          "name": "value",
          "type": "uint256"
        }
      ],
      "name": "Refund",
      "type": "event"
    },
    {
      "anonymous": false,
      "inputs": [
        {
          "indexed": false,
          "internalType": "address",
          "name": "investor",
          "type": "address"
        },
        {
          "indexed": false,
          "internalType": "uint256",
          "name": "amount",
          "type": "uint256"
        }
      ],
      "name": "TokenRewardSent",
      "type": "event"
    },
    {
      "inputs": [],
      "name": "amountRaised",
      "outputs": [
        {
          "internalType": "uint256",
          "name": "",
          "type": "uint256"
        }
      ],
      "stateMutability": "view",
      "type": "function"
    },
    {
      "inputs": [],
      "name": "beneficiary",
      "outputs": [
        {
          "internalType": "address payable",
          "name": "",
          "type": "address"
        }
      ],
      "stateMutability": "view",
      "type": "function"
    },
    {
      "inputs": [],
      "name": "deadline",
      "outputs": [
        {
          "internalType": "uint256",
          "name": "",
          "type": "uint256"
        }
      ],
      "stateMutability": "view",
      "type": "function"
    },
    {
      "inputs": [
        {
          "internalType": "address",
          "name": "",
          "type": "address"
        }
      ],
      "name": "donations",
      "outputs": [
        {
          "internalType": "uint256",
          "name": "",
          "type": "uint256"
        }
      ],
      "stateMutability": "view",
      "type": "function"
    },
    {
      "inputs": [
        {
          "internalType": "uint256",
          "name": "",
          "type": "uint256"
        }
      ],
      "name": "funders",
      "outputs": [
        {
          "internalType": "address payable",
          "name": "addr",
          "type": "address"
        },
        {
          "internalType": "uint256",
          "name": "amount",
          "type": "uint256"
        }
      ],
      "stateMutability": "view",
      "type": "function"
    },
    {
      "inputs": [],
      "name": "fundingGoal",
      "outputs": [
        {
          "internalType": "uint256",
          "name": "",
          "type": "uint256"
        }
      ],
      "stateMutability": "view",
      "type": "function"
    },
    {
      "inputs": [],
      "name": "owner",
      "outputs": [
        {
          "internalType": "address",
          "name": "",
          "type": "address"
        }
      ],
      "stateMutability": "view",
      "type": "function"
    },
    {
      "inputs": [],
      "name": "price",
      "outputs": [
        {
          "internalType": "uint256",
          "name": "",
          "type": "uint256"
        }
      ],
      "stateMutability": "view",
      "type": "function"
    },
    {
      "inputs": [],
      "name": "renounceOwnership",
      "outputs": [],
      "stateMutability": "nonpayable",
      "type": "function"
    },
    {
      "inputs": [],
      "name": "tokenReward",
      "outputs": [
        {
          "internalType": "contract HutToken",
          "name": "",
          "type": "address"
        }
      ],
      "stateMutability": "view",
      "type": "function"
    },
    {
      "inputs": [
        {
          "internalType": "address",
          "name": "newOwner",
          "type": "address"
        }
      ],
      "name": "transferOwnership",
      "outputs": [],
      "stateMutability": "nonpayable",
      "type": "function"
    },
    {
      "stateMutability": "payable",
      "type": "receive"
    },
    {
      "inputs": [],
      "name": "checkBlockTime",
      "outputs": [
        {
          "internalType": "uint256",
          "name": "",
          "type": "uint256"
        }
      ],
      "stateMutability": "view",
      "type": "function"
    },
    {
      "inputs": [],
      "name": "getFundingGoal",
      "outputs": [
        {
          "internalType": "uint256",
          "name": "",
          "type": "uint256"
        }
      ],
      "stateMutability": "view",
      "type": "function"
    },
    {
      "inputs": [],
      "name": "getNowAmountRasied",
      "outputs": [
        {
          "internalType": "uint256",
          "name": "",
          "type": "uint256"
        }
      ],
      "stateMutability": "view",
      "type": "function"
    },
    {
      "inputs": [],
      "name": "getDeadLine",
      "outputs": [
        {
          "internalType": "uint256",
          "name": "",
          "type": "uint256"
        }
      ],
      "stateMutability": "view",
      "type": "function"
    },
    {
      "inputs": [],
      "name": "getHutToken",
      "outputs": [
        {
          "internalType": "uint256",
          "name": "tokenAmount",
          "type": "uint256"
        }
      ],
      "stateMutability": "view",
      "type": "function"
    },
    {
      "inputs": [],
      "name": "checkGoalReached",
      "outputs": [],
      "stateMutability": "nonpayable",
      "type": "function"
    },
    {
      "inputs": [],
      "name": "getFundersCount",
      "outputs": [
        {
          "internalType": "uint256",
          "name": "",
          "type": "uint256"
        }
      ],
      "stateMutability": "view",
      "type": "function"
    },
    {
      "inputs": [
        {
          "internalType": "uint256",
          "name": "_amount",
          "type": "uint256"
        }
      ],
      "name": "withdraw",
      "outputs": [],
      "stateMutability": "nonpayable",
      "type": "function"
    }
  ],
  "bytecode": "0x60806040523480156200001157600080fd5b506040516200200138038062002001833981810160405281019062000037919062000480565b620000576200004b620002ca60201b60201c565b620002d260201b60201c565b600073ffffffffffffffffffffffffffffffffffffffff168573ffffffffffffffffffffffffffffffffffffffff1603620000c9576040517f08c379a0000000000000000000000000000000000000000000000000000000008152600401620000c09062000569565b60405180910390fd5b600084116200010f576040517f08c379a00000000000000000000000000000000000000000000000000000000081526004016200010690620005db565b60405180910390fd5b6000831162000155576040517f08c379a00000000000000000000000000000000000000000000000000000000081526004016200014c906200064d565b60405180910390fd5b600082116200019b576040517f08c379a00000000000000000000000000000000000000000000000000000000081526004016200019290620006bf565b60405180910390fd5b600073ffffffffffffffffffffffffffffffffffffffff168173ffffffffffffffffffffffffffffffffffffffff16036200020d576040517f08c379a0000000000000000000000000000000000000000000000000000000008152600401620002049062000731565b60405180910390fd5b84600160006101000a81548173ffffffffffffffffffffffffffffffffffffffff021916908373ffffffffffffffffffffffffffffffffffffffff16021790555083600281905550603c8362000264919062000782565b42620002719190620007cd565b6004819055508160058190555080600660006101000a81548173ffffffffffffffffffffffffffffffffffffffff021916908373ffffffffffffffffffffffffffffffffffffffff160217905550505050505062000808565b600033905090565b60008060009054906101000a900473ffffffffffffffffffffffffffffffffffffffff169050816000806101000a81548173ffffffffffffffffffffffffffffffffffffffff021916908373ffffffffffffffffffffffffffffffffffffffff1602179055508173ffffffffffffffffffffffffffffffffffffffff168173ffffffffffffffffffffffffffffffffffffffff167f8be0079c531659141344cd1fd0a4f28419497f9722a3daafe3b4186f6b6457e060405160405180910390a35050565b600080fd5b600073ffffffffffffffffffffffffffffffffffffffff82169050919050565b6000620003c8826200039b565b9050919050565b620003da81620003bb565b8114620003e657600080fd5b50565b600081519050620003fa81620003cf565b92915050565b6000819050919050565b620004158162000400565b81146200042157600080fd5b50565b60008151905062000435816200040a565b92915050565b600062000448826200039b565b9050919050565b6200045a816200043b565b81146200046657600080fd5b50565b6000815190506200047a816200044f565b92915050565b600080600080600060a086880312156200049f576200049e62000396565b5b6000620004af88828901620003e9565b9550506020620004c28882890162000424565b9450506040620004d58882890162000424565b9350506060620004e88882890162000424565b9250506080620004fb8882890162000469565b9150509295509295909350565b600082825260208201905092915050565b7f496e76616c69642062656e656669636961727920616464726573730000000000600082015250565b600062000551601b8362000508565b91506200055e8262000519565b602082019050919050565b60006020820190508181036000830152620005848162000542565b9050919050565b7f496e76616c69642066756e64696e6720676f616c000000000000000000000000600082015250565b6000620005c360148362000508565b9150620005d0826200058b565b602082019050919050565b60006020820190508181036000830152620005f681620005b4565b9050919050565b7f496e76616c6964206475726174696f6e00000000000000000000000000000000600082015250565b60006200063560108362000508565b91506200064282620005fd565b602082019050919050565b60006020820190508181036000830152620006688162000626565b9050919050565b7f496e76616c696420707269636500000000000000000000000000000000000000600082015250565b6000620006a7600d8362000508565b9150620006b4826200066f565b602082019050919050565b60006020820190508181036000830152620006da8162000698565b9050919050565b7f496e76616c696420746f6b656e20726577617264206164647265737300000000600082015250565b600062000719601c8362000508565b91506200072682620006e1565b602082019050919050565b600060208201905081810360008301526200074c816200070a565b9050919050565b7f4e487b7100000000000000000000000000000000000000000000000000000000600052601160045260246000fd5b60006200078f8262000400565b91506200079c8362000400565b9250828202620007ac8162000400565b91508282048414831517620007c657620007c562000753565b5b5092915050565b6000620007da8262000400565b9150620007e78362000400565b925082820190508082111562000802576200080162000753565b5b92915050565b6117e980620008186000396000f3fe6080604052600436106101185760003560e01c80637b3e5e7b116100a0578063b85090f311610064578063b85090f31461050b578063cc6cb19a14610536578063dc0d3dff14610573578063f2fde38b146105b1578063fcbf5e04146105da576102d6565b80637b3e5e7b146104345780638da5cb5b1461045f578063920b3a7e1461048a578063974d3fb3146104b5578063a035b1fe146104e0576102d6565b806338af3eed116100e757806338af3eed1461037157806361d0acbb1461039c5780636e66f6e9146103c7578063715018a6146103f25780637a3a0e8414610409576102d6565b806301cb3b20146102db57806329dcb0cf146102f25780632e1a7d4d1461031d5780633450e10014610346576102d6565b366102d657600073ffffffffffffffffffffffffffffffffffffffff163373ffffffffffffffffffffffffffffffffffffffff160361018c576040517f08c379a000000000000000000000000000000000000000000000000000000000815260040161018390610fa3565b60405180910390fd5b600034116101cf576040517f08c379a00000000000000000000000000000000000000000000000000000000081526004016101c69061100f565b60405180910390fd5b6000349050600860405180604001604052803373ffffffffffffffffffffffffffffffffffffffff16815260200183815250908060018154018082558091505060019003906000526020600020906002020160009091909190915060008201518160000160006101000a81548173ffffffffffffffffffffffffffffffffffffffff021916908373ffffffffffffffffffffffffffffffffffffffff1602179055506020820151816001015550506102928160035461060590919063ffffffff16565b6003819055507fe842aea7a5f1b01049d752008c53c52890b1a6daf660cf39e8eec506112bbdf6338260016040516102cc939291906110a4565b60405180910390a1005b600080fd5b3480156102e757600080fd5b506102f061061b565b005b3480156102fe57600080fd5b50610307610a96565b60405161031491906110db565b60405180910390f35b34801561032957600080fd5b50610344600480360381019061033f9190611127565b610a9c565b005b34801561035257600080fd5b5061035b610b9c565b60405161036891906110db565b60405180910390f35b34801561037d57600080fd5b50610386610ba4565b6040516103939190611175565b60405180910390f35b3480156103a857600080fd5b506103b1610bca565b6040516103be91906110db565b60405180910390f35b3480156103d357600080fd5b506103dc610bd4565b6040516103e991906111ef565b60405180910390f35b3480156103fe57600080fd5b50610407610bfa565b005b34801561041557600080fd5b5061041e610c0e565b60405161042b91906110db565b60405180910390f35b34801561044057600080fd5b50610449610c14565b60405161045691906110db565b60405180910390f35b34801561046b57600080fd5b50610474610c1a565b604051610481919061120a565b60405180910390f35b34801561049657600080fd5b5061049f610c43565b6040516104ac91906110db565b60405180910390f35b3480156104c157600080fd5b506104ca610c50565b6040516104d791906110db565b60405180910390f35b3480156104ec57600080fd5b506104f5610c5a565b60405161050291906110db565b60405180910390f35b34801561051757600080fd5b50610520610c60565b60405161052d91906110db565b60405180910390f35b34801561054257600080fd5b5061055d60048036038101906105589190611251565b610c6a565b60405161056a91906110db565b60405180910390f35b34801561057f57600080fd5b5061059a60048036038101906105959190611127565b610c82565b6040516105a892919061127e565b60405180910390f35b3480156105bd57600080fd5b506105d860048036038101906105d39190611251565b610cd6565b005b3480156105e657600080fd5b506105ef610d59565b6040516105fc91906110db565b60405180910390f35b6000818361061391906112d6565b905092915050565b600454421015610660576040517f08c379a000000000000000000000000000000000000000000000000000000000815260040161065790611356565b60405180910390fd5b6002546003541061090257600060035490506000600381905550600160009054906101000a900473ffffffffffffffffffffffffffffffffffffffff1673ffffffffffffffffffffffffffffffffffffffff166108fc829081150290604051600060405180830381858888f193505050501580156106e2573d6000803e3d6000fd5b507fe842aea7a5f1b01049d752008c53c52890b1a6daf660cf39e8eec506112bbdf6600160009054906101000a900473ffffffffffffffffffffffffffffffffffffffff1682600060405161073993929190611397565b60405180910390a17ffbfd8ab7c24300fa9888cd721c8565a7da56759384781283684dcf7c7c4a846b8160405161077091906110db565b60405180910390a160005b6008805490508110156108fb5760006008828154811061079e5761079d6113ce565b5b90600052602060002090600202019050600060055482600101546107c291906113fd565b9050600660009054906101000a900473ffffffffffffffffffffffffffffffffffffffff1673ffffffffffffffffffffffffffffffffffffffff1663a9059cbb8360000160009054906101000a900473ffffffffffffffffffffffffffffffffffffffff16836040518363ffffffff1660e01b815260040161084592919061143f565b6020604051808303816000875af1158015610864573d6000803e3d6000fd5b505050506040513d601f19601f820116820180604052508101906108889190611494565b507f9d94103688f8c2064c16c6c6734849e5883e5ec4f2a75c27e9670ff65775c7008260000160009054906101000a900473ffffffffffffffffffffffffffffffffffffffff16826040516108de92919061143f565b60405180910390a1505080806108f3906114c1565b91505061077b565b5050610a94565b60005b600880549050811015610a9257600060088281548110610928576109276113ce565b5b90600052602060002090600202019050600081600101549050600082600101819055506000811115610a7d578160000160009054906101000a900473ffffffffffffffffffffffffffffffffffffffff1673ffffffffffffffffffffffffffffffffffffffff166108fc829081150290604051600060405180830381858888f193505050501580156109be573d6000803e3d6000fd5b507fbb28353e4598c3b9199101a66e0989549b659a59a54d2c27fbb183f1932c8e6d8260000160009054906101000a900473ffffffffffffffffffffffffffffffffffffffff1682604051610a1492919061143f565b60405180910390a17fe842aea7a5f1b01049d752008c53c52890b1a6daf660cf39e8eec506112bbdf68260000160009054906101000a900473ffffffffffffffffffffffffffffffffffffffff16826000604051610a7493929190611397565b60405180910390a15b50508080610a8a906114c1565b915050610905565b505b565b60045481565b610aa4610dfc565b6000479050818111610aeb576040517f08c379a0000000000000000000000000000000000000000000000000000000008152600401610ae29061157b565b60405180910390fd5b60003373ffffffffffffffffffffffffffffffffffffffff1683604051610b11906115cc565b60006040518083038185875af1925050503d8060008114610b4e576040519150601f19603f3d011682016040523d82523d6000602084013e610b53565b606091505b5050905080610b97576040517f08c379a0000000000000000000000000000000000000000000000000000000008152600401610b8e90611653565b60405180910390fd5b505050565b600042905090565b600160009054906101000a900473ffffffffffffffffffffffffffffffffffffffff1681565b6000600454905090565b600660009054906101000a900473ffffffffffffffffffffffffffffffffffffffff1681565b610c02610dfc565b610c0c6000610e7a565b565b60025481565b60035481565b60008060009054906101000a900473ffffffffffffffffffffffffffffffffffffffff16905090565b6000600880549050905090565b6000600354905090565b60055481565b6000600254905090565b60076020528060005260406000206000915090505481565b60088181548110610c9257600080fd5b90600052602060002090600202016000915090508060000160009054906101000a900473ffffffffffffffffffffffffffffffffffffffff16908060010154905082565b610cde610dfc565b600073ffffffffffffffffffffffffffffffffffffffff168173ffffffffffffffffffffffffffffffffffffffff1603610d4d576040517f08c379a0000000000000000000000000000000000000000000000000000000008152600401610d44906116e5565b60405180910390fd5b610d5681610e7a565b50565b6000600660009054906101000a900473ffffffffffffffffffffffffffffffffffffffff1673ffffffffffffffffffffffffffffffffffffffff166370a08231306040518263ffffffff1660e01b8152600401610db6919061120a565b602060405180830381865afa158015610dd3573d6000803e3d6000fd5b505050506040513d601f19601f82011682018060405250810190610df7919061171a565b905090565b610e04610f3e565b73ffffffffffffffffffffffffffffffffffffffff16610e22610c1a565b73ffffffffffffffffffffffffffffffffffffffff1614610e78576040517f08c379a0000000000000000000000000000000000000000000000000000000008152600401610e6f90611793565b60405180910390fd5b565b60008060009054906101000a900473ffffffffffffffffffffffffffffffffffffffff169050816000806101000a81548173ffffffffffffffffffffffffffffffffffffffff021916908373ffffffffffffffffffffffffffffffffffffffff1602179055508173ffffffffffffffffffffffffffffffffffffffff168173ffffffffffffffffffffffffffffffffffffffff167f8be0079c531659141344cd1fd0a4f28419497f9722a3daafe3b4186f6b6457e060405160405180910390a35050565b600033905090565b600082825260208201905092915050565b7f496e76616c69642073656e646572206164647265737300000000000000000000600082015250565b6000610f8d601683610f46565b9150610f9882610f57565b602082019050919050565b60006020820190508181036000830152610fbc81610f80565b9050919050565b7f496e76616c69642076616c756500000000000000000000000000000000000000600082015250565b6000610ff9600d83610f46565b915061100482610fc3565b602082019050919050565b6000602082019050818103600083015261102881610fec565b9050919050565b600073ffffffffffffffffffffffffffffffffffffffff82169050919050565b600061105a8261102f565b9050919050565b61106a8161104f565b82525050565b6000819050919050565b61108381611070565b82525050565b60008115159050919050565b61109e81611089565b82525050565b60006060820190506110b96000830186611061565b6110c6602083018561107a565b6110d36040830184611095565b949350505050565b60006020820190506110f0600083018461107a565b92915050565b600080fd5b61110481611070565b811461110f57600080fd5b50565b600081359050611121816110fb565b92915050565b60006020828403121561113d5761113c6110f6565b5b600061114b84828501611112565b91505092915050565b600061115f8261102f565b9050919050565b61116f81611154565b82525050565b600060208201905061118a6000830184611166565b92915050565b6000819050919050565b60006111b56111b06111ab8461102f565b611190565b61102f565b9050919050565b60006111c78261119a565b9050919050565b60006111d9826111bc565b9050919050565b6111e9816111ce565b82525050565b600060208201905061120460008301846111e0565b92915050565b600060208201905061121f6000830184611061565b92915050565b61122e8161104f565b811461123957600080fd5b50565b60008135905061124b81611225565b92915050565b600060208284031215611267576112666110f6565b5b60006112758482850161123c565b91505092915050565b60006040820190506112936000830185611166565b6112a0602083018461107a565b9392505050565b7f4e487b7100000000000000000000000000000000000000000000000000000000600052601160045260246000fd5b60006112e182611070565b91506112ec83611070565b9250828201905080821115611304576113036112a7565b5b92915050565b7f43726f776473616c65206e6f742079657420656e646564000000000000000000600082015250565b6000611340601783610f46565b915061134b8261130a565b602082019050919050565b6000602082019050818103600083015261136f81611333565b9050919050565b6000611381826111bc565b9050919050565b61139181611376565b82525050565b60006060820190506113ac6000830186611388565b6113b9602083018561107a565b6113c66040830184611095565b949350505050565b7f4e487b7100000000000000000000000000000000000000000000000000000000600052603260045260246000fd5b600061140882611070565b915061141383611070565b925082820261142181611070565b91508282048414831517611438576114376112a7565b5b5092915050565b60006040820190506114546000830185611388565b611461602083018461107a565b9392505050565b61147181611089565b811461147c57600080fd5b50565b60008151905061148e81611468565b92915050565b6000602082840312156114aa576114a96110f6565b5b60006114b88482850161147f565b91505092915050565b60006114cc82611070565b91507fffffffffffffffffffffffffffffffffffffffffffffffffffffffffffffffff82036114fe576114fd6112a7565b5b600182019050919050565b7f4f776e657220686173206e6f742062616c616e636520746f207769746864726160008201527f7700000000000000000000000000000000000000000000000000000000000000602082015250565b6000611565602183610f46565b915061157082611509565b604082019050919050565b6000602082019050818103600083015261159481611558565b9050919050565b600081905092915050565b50565b60006115b660008361159b565b91506115c1826115a6565b600082019050919050565b60006115d7826115a9565b9150819050919050565b7f4661696c656420746f2073656e6420757365722062616c616e6365206261636b60008201527f20746f20746865206f776e657200000000000000000000000000000000000000602082015250565b600061163d602d83610f46565b9150611648826115e1565b604082019050919050565b6000602082019050818103600083015261166c81611630565b9050919050565b7f4f776e61626c653a206e6577206f776e657220697320746865207a65726f206160008201527f6464726573730000000000000000000000000000000000000000000000000000602082015250565b60006116cf602683610f46565b91506116da82611673565b604082019050919050565b600060208201905081810360008301526116fe816116c2565b9050919050565b600081519050611714816110fb565b92915050565b6000602082840312156117305761172f6110f6565b5b600061173e84828501611705565b91505092915050565b7f4f776e61626c653a2063616c6c6572206973206e6f7420746865206f776e6572600082015250565b600061177d602083610f46565b915061178882611747565b602082019050919050565b600060208201905081810360008301526117ac81611770565b905091905056fea2646970667358221220dbcb568b410386b071e8b98d569259985fcfa5f2376dbeda8eecbb71ae7fd51c64736f6c63430008130033",
  "immutableReferences": {},
  "source": "//SPDX-License-Identifier: MIT\r\npragma solidity ^0.8.19;\r\nimport '../contracts/HutToken.sol';\r\nimport '../node_modules/@openzeppelin/contracts/utils/math/SafeMath.sol';\r\nimport '../node_modules/@openzeppelin/contracts/access/Ownable.sol';\r\n\r\ncontract CrowdSale is Ownable {\r\n    using SafeMath for uint256;\r\n\r\n    address payable public beneficiary; //  ICO      \r\n    uint public fundingGoal; //    \r\n    uint public amountRaised; //    \r\n    uint public deadline; // ICO   deadline\r\n    uint public price; //  1 wei  \r\n    HutToken public tokenReward; // ICO  \r\n\r\n    mapping(address => uint256) public donations;\r\n\r\n    event FundTransfer(address backer, uint amount, bool isContribution);\r\n    event GoalReached(uint amountRaised);\r\n    event Refund(address investor, uint value);\r\n    event TokenRewardSent(address investor, uint amount);\r\n    struct Funder {\r\n        address payable addr;\r\n        uint amount;\r\n    }\r\n\r\n    Funder[] public funders;\r\n\r\n    constructor(address payable _beneficiary, uint _fundingGoal, uint _duration, uint _price, address _reward) {\r\n        require(_beneficiary != address(0), 'Invalid beneficiary address');\r\n        require(_fundingGoal > 0, 'Invalid funding goal');\r\n        require(_duration > 0, 'Invalid duration');\r\n        require(_price > 0, 'Invalid price');\r\n        require(_reward != address(0), 'Invalid token reward address');\r\n\r\n        beneficiary = _beneficiary;\r\n        fundingGoal = _fundingGoal;\r\n        deadline = block.timestamp + (_duration * 1 minutes);\r\n        price = _price;\r\n        tokenReward = HutToken(_reward);\r\n    }\r\n\r\n    receive() external payable {\r\n        require(msg.sender != address(0), 'Invalid sender address');\r\n        require(msg.value > 0, 'Invalid value');\r\n\r\n        uint256 amount = msg.value;\r\n        funders.push(Funder({ addr: payable(msg.sender), amount: amount }));\r\n        amountRaised = amountRaised.add(amount);\r\n        emit FundTransfer(msg.sender, amount, true);\r\n    }\r\n\r\n    function checkBlockTime() public view returns (uint256) {\r\n        return block.timestamp;\r\n    }\r\n\r\n    function getFundingGoal() public view returns (uint256) {\r\n        return fundingGoal;\r\n    }\r\n\r\n    function getNowAmountRasied() public view returns (uint256) {\r\n        return amountRaised;\r\n    }\r\n\r\n    function getDeadLine() public view returns (uint256) {\r\n        return deadline;\r\n    }\r\n\r\n    function getHutToken() public view returns (uint tokenAmount) {\r\n        return tokenReward.balanceOf(address(this));\r\n    }\r\n\r\n    function checkGoalReached() public {\r\n        require(block.timestamp >= deadline, 'Crowdsale not yet ended');\r\n        if (amountRaised >= fundingGoal) {\r\n            uint256 amount = amountRaised;\r\n            amountRaised = 0;\r\n            beneficiary.transfer(amount);\r\n            emit FundTransfer(beneficiary, amount, false);\r\n            emit GoalReached(amount);\r\n            for (uint256 i = 0; i < funders.length; i++) {\r\n                Funder storage funder = funders[i];\r\n                uint256 rewardAmount = funder.amount * price;\r\n                tokenReward.transfer(funder.addr, rewardAmount);\r\n                emit TokenRewardSent(funder.addr, rewardAmount);\r\n            }\r\n        } else {\r\n            for (uint256 i = 0; i < funders.length; i++) {\r\n                Funder storage funder = funders[i];\r\n                uint256 amount = funder.amount;\r\n                funder.amount = 0;\r\n\r\n                if (amount > 0) {\r\n                    funder.addr.transfer(amount);\r\n                    emit Refund(funder.addr, amount);\r\n                    emit FundTransfer(funder.addr, amount, false);\r\n                }\r\n            }\r\n        }\r\n    }\r\n\r\n    function getFundersCount() public view returns (uint256) {\r\n        return funders.length;\r\n    }\r\n\r\n    function withdraw(uint256 _amount) public onlyOwner {\r\n        uint256 ownerBalance = address(this).balance;\r\n        require(ownerBalance > _amount, 'Owner has not balance to withdraw');\r\n        (bool sent, ) = msg.sender.call{ value: _amount }('');\r\n        require(sent, 'Failed to send user balance back to the owner');\r\n    }\r\n}\r\n",
  "sourcePath": "C:\\Users\\user\\Desktop\\Epsilon-Studio\\server\\contracts\\CrowdSale.sol",
  "compiler": {
    "name": "solc",
    "version": "0.8.19+commit.7dd6d404.Emscripten.clang"
  },
  "schemaVersion": "3.4.13",
  "updatedAt": "2023-05-08T10:43:20.579Z",
  "devdoc": {
    "kind": "dev",
    "methods": {
      "owner()": {
        "details": "Returns the address of the current owner."
      },
      "renounceOwnership()": {
        "details": "Leaves the contract without owner. It will not be possible to call `onlyOwner` functions anymore. Can only be called by the current owner. NOTE: Renouncing ownership will leave the contract without an owner, thereby removing any functionality that is only available to the owner."
      },
      "transferOwnership(address)": {
        "details": "Transfers ownership of the contract to a new account (`newOwner`). Can only be called by the current owner."
      }
    },
    "version": 1
  },
  "userdoc": {
    "kind": "user",
    "methods": {},
    "version": 1
  }
}