{
  "contractName": "HutToken",
  "abi": [
    {
      "inputs": [],
      "stateMutability": "nonpayable",
      "type": "constructor"
    },
    {
      "anonymous": false,
      "inputs": [
        {
          "indexed": true,
          "internalType": "address",
          "name": "owner",
          "type": "address"
        },
        {
          "indexed": true,
          "internalType": "address",
          "name": "spender",
          "type": "address"
        },
        {
          "indexed": false,
          "internalType": "uint256",
          "name": "value",
          "type": "uint256"
        }
      ],
      "name": "Approval",
      "type": "event"
    },
    {
      "anonymous": false,
      "inputs": [
        {
          "indexed": true,
          "internalType": "address",
          "name": "previousOwner",
          "type": "address"
        },
        {
          "indexed": true,
          "internalType": "address",
          "name": "newOwner",
          "type": "address"
        }
      ],
      "name": "OwnershipTransferred",
      "type": "event"
    },
    {
      "anonymous": false,
      "inputs": [
        {
          "indexed": true,
          "internalType": "address",
          "name": "from",
          "type": "address"
        },
        {
          "indexed": true,
          "internalType": "address",
          "name": "to",
          "type": "address"
        },
        {
          "indexed": false,
          "internalType": "uint256",
          "name": "value",
          "type": "uint256"
        }
      ],
      "name": "Transfer",
      "type": "event"
    },
    {
      "inputs": [
        {
          "internalType": "address",
          "name": "owner",
          "type": "address"
        },
        {
          "internalType": "address",
          "name": "spender",
          "type": "address"
        }
      ],
      "name": "allowance",
      "outputs": [
        {
          "internalType": "uint256",
          "name": "",
          "type": "uint256"
        }
      ],
      "stateMutability": "view",
      "type": "function"
    },
    {
      "inputs": [
        {
          "internalType": "address",
          "name": "spender",
          "type": "address"
        },
        {
          "internalType": "uint256",
          "name": "amount",
          "type": "uint256"
        }
      ],
      "name": "approve",
      "outputs": [
        {
          "internalType": "bool",
          "name": "",
          "type": "bool"
        }
      ],
      "stateMutability": "nonpayable",
      "type": "function"
    },
    {
      "inputs": [
        {
          "internalType": "address",
          "name": "account",
          "type": "address"
        }
      ],
      "name": "balanceOf",
      "outputs": [
        {
          "internalType": "uint256",
          "name": "",
          "type": "uint256"
        }
      ],
      "stateMutability": "view",
      "type": "function"
    },
    {
      "inputs": [
        {
          "internalType": "uint256",
          "name": "amount",
          "type": "uint256"
        }
      ],
      "name": "burn",
      "outputs": [],
      "stateMutability": "nonpayable",
      "type": "function"
    },
    {
      "inputs": [
        {
          "internalType": "address",
          "name": "account",
          "type": "address"
        },
        {
          "internalType": "uint256",
          "name": "amount",
          "type": "uint256"
        }
      ],
      "name": "burnFrom",
      "outputs": [],
      "stateMutability": "nonpayable",
      "type": "function"
    },
    {
      "inputs": [],
      "name": "decimals",
      "outputs": [
        {
          "internalType": "uint8",
          "name": "",
          "type": "uint8"
        }
      ],
      "stateMutability": "view",
      "type": "function"
    },
    {
      "inputs": [
        {
          "internalType": "address",
          "name": "spender",
          "type": "address"
        },
        {
          "internalType": "uint256",
          "name": "subtractedValue",
          "type": "uint256"
        }
      ],
      "name": "decreaseAllowance",
      "outputs": [
        {
          "internalType": "bool",
          "name": "",
          "type": "bool"
        }
      ],
      "stateMutability": "nonpayable",
      "type": "function"
    },
    {
      "inputs": [
        {
          "internalType": "address",
          "name": "spender",
          "type": "address"
        },
        {
          "internalType": "uint256",
          "name": "addedValue",
          "type": "uint256"
        }
      ],
      "name": "increaseAllowance",
      "outputs": [
        {
          "internalType": "bool",
          "name": "",
          "type": "bool"
        }
      ],
      "stateMutability": "nonpayable",
      "type": "function"
    },
    {
      "inputs": [],
      "name": "name",
      "outputs": [
        {
          "internalType": "string",
          "name": "",
          "type": "string"
        }
      ],
      "stateMutability": "view",
      "type": "function"
    },
    {
      "inputs": [],
      "name": "owner",
      "outputs": [
        {
          "internalType": "address",
          "name": "",
          "type": "address"
        }
      ],
      "stateMutability": "view",
      "type": "function"
    },
    {
      "inputs": [],
      "name": "renounceOwnership",
      "outputs": [],
      "stateMutability": "nonpayable",
      "type": "function"
    },
    {
      "inputs": [],
      "name": "symbol",
      "outputs": [
        {
          "internalType": "string",
          "name": "",
          "type": "string"
        }
      ],
      "stateMutability": "view",
      "type": "function"
    },
    {
      "inputs": [],
      "name": "totalSupply",
      "outputs": [
        {
          "internalType": "uint256",
          "name": "",
          "type": "uint256"
        }
      ],
      "stateMutability": "view",
      "type": "function"
    },
    {
      "inputs": [
        {
          "internalType": "address",
          "name": "to",
          "type": "address"
        },
        {
          "internalType": "uint256",
          "name": "amount",
          "type": "uint256"
        }
      ],
      "name": "transfer",
      "outputs": [
        {
          "internalType": "bool",
          "name": "",
          "type": "bool"
        }
      ],
      "stateMutability": "nonpayable",
      "type": "function"
    },
    {
      "inputs": [
        {
          "internalType": "address",
          "name": "from",
          "type": "address"
        },
        {
          "internalType": "address",
          "name": "to",
          "type": "address"
        },
        {
          "internalType": "uint256",
          "name": "amount",
          "type": "uint256"
        }
      ],
      "name": "transferFrom",
      "outputs": [
        {
          "internalType": "bool",
          "name": "",
          "type": "bool"
        }
      ],
      "stateMutability": "nonpayable",
      "type": "function"
    },
    {
      "inputs": [
        {
          "internalType": "address",
          "name": "newOwner",
          "type": "address"
        }
      ],
      "name": "transferOwnership",
      "outputs": [],
      "stateMutability": "nonpayable",
      "type": "function"
    },
    {
      "inputs": [],
      "name": "checkSupply",
      "outputs": [
        {
          "internalType": "uint256",
          "name": "",
          "type": "uint256"
        }
      ],
      "stateMutability": "view",
      "type": "function"
    },
    {
      "inputs": [],
      "name": "cap",
      "outputs": [
        {
          "internalType": "uint256",
          "name": "",
          "type": "uint256"
        }
      ],
      "stateMutability": "view",
      "type": "function"
    },
    {
      "inputs": [
        {
          "internalType": "address",
          "name": "rec",
          "type": "address"
        },
        {
          "internalType": "uint256",
          "name": "amount",
          "type": "uint256"
        }
      ],
      "name": "minting",
      "outputs": [],
      "stateMutability": "nonpayable",
      "type": "function"
    },
    {
      "inputs": [
        {
          "internalType": "address",
          "name": "account",
          "type": "address"
        },
        {
          "internalType": "uint256",
          "name": "amount",
          "type": "uint256"
        }
      ],
      "name": "burning",
      "outputs": [],
      "stateMutability": "nonpayable",
      "type": "function"
    }
  ],
  "bytecode": "0x60a0604052620000146200017060201b60201c565b600a620000229190620005f3565b6103e862000031919062000644565b6007553480156200004157600080fd5b50683635c9adc5dea000006040518060400160405280600881526020017f487574546f6b656e0000000000000000000000000000000000000000000000008152506040518060400160405280600381526020017f48555400000000000000000000000000000000000000000000000000000000008152508160039081620000c99190620008ff565b508060049081620000db9190620008ff565b505050620000fe620000f26200017960201b60201c565b6200018160201b60201c565b6000811162000144576040517f08c379a00000000000000000000000000000000000000000000000000000000081526004016200013b9062000a47565b60405180910390fd5b8060808181525050506007546006819055506200016a336006546200024760201b60201c565b62000bb6565b60006012905090565b600033905090565b6000600560009054906101000a900473ffffffffffffffffffffffffffffffffffffffff16905081600560006101000a81548173ffffffffffffffffffffffffffffffffffffffff021916908373ffffffffffffffffffffffffffffffffffffffff1602179055508173ffffffffffffffffffffffffffffffffffffffff168173ffffffffffffffffffffffffffffffffffffffff167f8be0079c531659141344cd1fd0a4f28419497f9722a3daafe3b4186f6b6457e060405160405180910390a35050565b62000257620002ce60201b60201c565b8162000268620002d860201b60201c565b62000274919062000a69565b1115620002b8576040517f08c379a0000000000000000000000000000000000000000000000000000000008152600401620002af9062000af4565b60405180910390fd5b620002ca8282620002e260201b60201c565b5050565b6000600654905090565b6000600254905090565b600073ffffffffffffffffffffffffffffffffffffffff168273ffffffffffffffffffffffffffffffffffffffff160362000354576040517f08c379a00000000000000000000000000000000000000000000000000000000081526004016200034b9062000b66565b60405180910390fd5b62000368600083836200044f60201b60201c565b80600260008282546200037c919062000a69565b92505081905550806000808473ffffffffffffffffffffffffffffffffffffffff1673ffffffffffffffffffffffffffffffffffffffff168152602001908152602001600020600082825401925050819055508173ffffffffffffffffffffffffffffffffffffffff16600073ffffffffffffffffffffffffffffffffffffffff167fddf252ad1be2c89b69c2b068fc378daa952ba7f163c4a11628f55a4df523b3ef836040516200042f919062000b99565b60405180910390a36200044b600083836200045460201b60201c565b5050565b505050565b505050565b7f4e487b7100000000000000000000000000000000000000000000000000000000600052601160045260246000fd5b60008160011c9050919050565b6000808291508390505b6001851115620004e757808604811115620004bf57620004be62000459565b5b6001851615620004cf5780820291505b8081029050620004df8562000488565b94506200049f565b94509492505050565b600082620005025760019050620005d5565b81620005125760009050620005d5565b81600181146200052b576002811462000536576200056c565b6001915050620005d5565b60ff8411156200054b576200054a62000459565b5b8360020a91508482111562000565576200056462000459565b5b50620005d5565b5060208310610133831016604e8410600b8410161715620005a65782820a905083811115620005a0576200059f62000459565b5b620005d5565b620005b5848484600162000495565b92509050818404811115620005cf57620005ce62000459565b5b81810290505b9392505050565b6000819050919050565b600060ff82169050919050565b60006200060082620005dc565b91506200060d83620005e6565b92506200063c7fffffffffffffffffffffffffffffffffffffffffffffffffffffffffffffffff8484620004f0565b905092915050565b60006200065182620005dc565b91506200065e83620005dc565b92508282026200066e81620005dc565b9150828204841483151762000688576200068762000459565b5b5092915050565b600081519050919050565b7f4e487b7100000000000000000000000000000000000000000000000000000000600052604160045260246000fd5b7f4e487b7100000000000000000000000000000000000000000000000000000000600052602260045260246000fd5b600060028204905060018216806200071157607f821691505b602082108103620007275762000726620006c9565b5b50919050565b60008190508160005260206000209050919050565b60006020601f8301049050919050565b600082821b905092915050565b600060088302620007917fffffffffffffffffffffffffffffffffffffffffffffffffffffffffffffffff8262000752565b6200079d868362000752565b95508019841693508086168417925050509392505050565b6000819050919050565b6000620007e0620007da620007d484620005dc565b620007b5565b620005dc565b9050919050565b6000819050919050565b620007fc83620007bf565b620008146200080b82620007e7565b8484546200075f565b825550505050565b600090565b6200082b6200081c565b62000838818484620007f1565b505050565b5b8181101562000860576200085460008262000821565b6001810190506200083e565b5050565b601f821115620008af5762000879816200072d565b620008848462000742565b8101602085101562000894578190505b620008ac620008a38562000742565b8301826200083d565b50505b505050565b600082821c905092915050565b6000620008d460001984600802620008b4565b1980831691505092915050565b6000620008ef8383620008c1565b9150826002028217905092915050565b6200090a826200068f565b67ffffffffffffffff8111156200092657620009256200069a565b5b620009328254620006f8565b6200093f82828562000864565b600060209050601f83116001811462000977576000841562000962578287015190505b6200096e8582620008e1565b865550620009de565b601f19841662000987866200072d565b60005b82811015620009b1578489015182556001820191506020850194506020810190506200098a565b86831015620009d15784890151620009cd601f891682620008c1565b8355505b6001600288020188555050505b505050505050565b600082825260208201905092915050565b7f45524332304361707065643a2063617020697320300000000000000000000000600082015250565b600062000a2f601583620009e6565b915062000a3c82620009f7565b602082019050919050565b6000602082019050818103600083015262000a628162000a20565b9050919050565b600062000a7682620005dc565b915062000a8383620005dc565b925082820190508082111562000a9e5762000a9d62000459565b5b92915050565b7f45524332304361707065643a2063617020657863656564656400000000000000600082015250565b600062000adc601983620009e6565b915062000ae98262000aa4565b602082019050919050565b6000602082019050818103600083015262000b0f8162000acd565b9050919050565b7f45524332303a206d696e7420746f20746865207a65726f206164647265737300600082015250565b600062000b4e601f83620009e6565b915062000b5b8262000b16565b602082019050919050565b6000602082019050818103600083015262000b818162000b3f565b9050919050565b62000b9381620005dc565b82525050565b600060208201905062000bb0600083018462000b88565b92915050565b608051611d5c62000bcf60003960005050611d5c6000f3fe608060405234801561001057600080fd5b506004361061012c5760003560e01c8063715018a6116100ad578063a9059cbb11610071578063a9059cbb14610333578063a92b57e014610363578063c615f5c11461037f578063dd62ed3e1461039d578063f2fde38b146103cd5761012c565b8063715018a6146102a157806379cc6790146102ab5780638da5cb5b146102c757806395d89b41146102e5578063a457c2d7146103035761012c565b8063313ce567116100f4578063313ce567146101e9578063355274ea14610207578063395093511461022557806342966c681461025557806370a08231146102715761012c565b806306fdde0314610131578063095ea7b31461014f57806318160ddd1461017f578063233ebc8b1461019d57806323b872dd146101b9575b600080fd5b6101396103e9565b60405161014691906112b4565b60405180910390f35b6101696004803603810190610164919061136f565b61047b565b60405161017691906113ca565b60405180910390f35b61018761049e565b60405161019491906113f4565b60405180910390f35b6101b760048036038101906101b2919061136f565b6104a8565b005b6101d360048036038101906101ce919061140f565b6104cf565b6040516101e091906113ca565b60405180910390f35b6101f16104fe565b6040516101fe919061147e565b60405180910390f35b61020f610507565b60405161021c91906113f4565b60405180910390f35b61023f600480360381019061023a919061136f565b610511565b60405161024c91906113ca565b60405180910390f35b61026f600480360381019061026a9190611499565b610548565b005b61028b600480360381019061028691906114c6565b61055c565b60405161029891906113f4565b60405180910390f35b6102a96105a4565b005b6102c560048036038101906102c0919061136f565b6105b8565b005b6102cf6105d8565b6040516102dc9190611502565b60405180910390f35b6102ed610602565b6040516102fa91906112b4565b60405180910390f35b61031d6004803603810190610318919061136f565b610694565b60405161032a91906113ca565b60405180910390f35b61034d6004803603810190610348919061136f565b61070b565b60405161035a91906113ca565b60405180910390f35b61037d6004803603810190610378919061136f565b61072e565b005b61038761075d565b60405161039491906113f4565b60405180910390f35b6103b760048036038101906103b2919061151d565b61076c565b6040516103c491906113f4565b60405180910390f35b6103e760048036038101906103e291906114c6565b6107f3565b005b6060600380546103f89061158c565b80601f01602080910402602001604051908101604052809291908181526020018280546104249061158c565b80156104715780601f1061044657610100808354040283529160200191610471565b820191906000526020600020905b81548152906001019060200180831161045457829003601f168201915b5050505050905090565b600080610486610876565b905061049381858561087e565b600191505092915050565b6000600254905090565b80600660008282546104ba91906115ec565b925050819055506104cb8282610a47565b5050565b6000806104da610876565b90506104e7858285610ab1565b6104f2858585610b3d565b60019150509392505050565b60006012905090565b6000600654905090565b60008061051c610876565b905061053d81858561052e858961076c565b61053891906115ec565b61087e565b600191505092915050565b610559610553610876565b82610db3565b50565b60008060008373ffffffffffffffffffffffffffffffffffffffff1673ffffffffffffffffffffffffffffffffffffffff168152602001908152602001600020549050919050565b6105ac610f80565b6105b66000610ffe565b565b6105ca826105c4610876565b83610ab1565b6105d48282610db3565b5050565b6000600560009054906101000a900473ffffffffffffffffffffffffffffffffffffffff16905090565b6060600480546106119061158c565b80601f016020809104026020016040519081016040528092919081815260200182805461063d9061158c565b801561068a5780601f1061065f5761010080835404028352916020019161068a565b820191906000526020600020905b81548152906001019060200180831161066d57829003601f168201915b5050505050905090565b60008061069f610876565b905060006106ad828661076c565b9050838110156106f2576040517f08c379a00000000000000000000000000000000000000000000000000000000081526004016106e990611692565b60405180910390fd5b6106ff828686840361087e565b60019250505092915050565b600080610716610876565b9050610723818585610b3d565b600191505092915050565b610736610f80565b806006600082825461074891906116b2565b925050819055506107598282610db3565b5050565b600061076761049e565b905090565b6000600160008473ffffffffffffffffffffffffffffffffffffffff1673ffffffffffffffffffffffffffffffffffffffff16815260200190815260200160002060008373ffffffffffffffffffffffffffffffffffffffff1673ffffffffffffffffffffffffffffffffffffffff16815260200190815260200160002054905092915050565b6107fb610f80565b600073ffffffffffffffffffffffffffffffffffffffff168173ffffffffffffffffffffffffffffffffffffffff160361086a576040517f08c379a000000000000000000000000000000000000000000000000000000000815260040161086190611758565b60405180910390fd5b61087381610ffe565b50565b600033905090565b600073ffffffffffffffffffffffffffffffffffffffff168373ffffffffffffffffffffffffffffffffffffffff16036108ed576040517f08c379a00000000000000000000000000000000000000000000000000000000081526004016108e4906117ea565b60405180910390fd5b600073ffffffffffffffffffffffffffffffffffffffff168273ffffffffffffffffffffffffffffffffffffffff160361095c576040517f08c379a00000000000000000000000000000000000000000000000000000000081526004016109539061187c565b60405180910390fd5b80600160008573ffffffffffffffffffffffffffffffffffffffff1673ffffffffffffffffffffffffffffffffffffffff16815260200190815260200160002060008473ffffffffffffffffffffffffffffffffffffffff1673ffffffffffffffffffffffffffffffffffffffff168152602001908152602001600020819055508173ffffffffffffffffffffffffffffffffffffffff168373ffffffffffffffffffffffffffffffffffffffff167f8c5be1e5ebec7d5bd14f71427d1e84f3dd0314c0f7b2291e5b200ac8c7c3b92583604051610a3a91906113f4565b60405180910390a3505050565b610a4f610507565b81610a5861049e565b610a6291906115ec565b1115610aa3576040517f08c379a0000000000000000000000000000000000000000000000000000000008152600401610a9a906118e8565b60405180910390fd5b610aad82826110c4565b5050565b6000610abd848461076c565b90507fffffffffffffffffffffffffffffffffffffffffffffffffffffffffffffffff8114610b375781811015610b29576040517f08c379a0000000000000000000000000000000000000000000000000000000008152600401610b2090611954565b60405180910390fd5b610b36848484840361087e565b5b50505050565b600073ffffffffffffffffffffffffffffffffffffffff168373ffffffffffffffffffffffffffffffffffffffff1603610bac576040517f08c379a0000000000000000000000000000000000000000000000000000000008152600401610ba3906119e6565b60405180910390fd5b600073ffffffffffffffffffffffffffffffffffffffff168273ffffffffffffffffffffffffffffffffffffffff1603610c1b576040517f08c379a0000000000000000000000000000000000000000000000000000000008152600401610c1290611a78565b60405180910390fd5b610c2683838361121a565b60008060008573ffffffffffffffffffffffffffffffffffffffff1673ffffffffffffffffffffffffffffffffffffffff16815260200190815260200160002054905081811015610cac576040517f08c379a0000000000000000000000000000000000000000000000000000000008152600401610ca390611b0a565b60405180910390fd5b8181036000808673ffffffffffffffffffffffffffffffffffffffff1673ffffffffffffffffffffffffffffffffffffffff16815260200190815260200160002081905550816000808573ffffffffffffffffffffffffffffffffffffffff1673ffffffffffffffffffffffffffffffffffffffff168152602001908152602001600020600082825401925050819055508273ffffffffffffffffffffffffffffffffffffffff168473ffffffffffffffffffffffffffffffffffffffff167fddf252ad1be2c89b69c2b068fc378daa952ba7f163c4a11628f55a4df523b3ef84604051610d9a91906113f4565b60405180910390a3610dad84848461121f565b50505050565b600073ffffffffffffffffffffffffffffffffffffffff168273ffffffffffffffffffffffffffffffffffffffff1603610e22576040517f08c379a0000000000000000000000000000000000000000000000000000000008152600401610e1990611b9c565b60405180910390fd5b610e2e8260008361121a565b60008060008473ffffffffffffffffffffffffffffffffffffffff1673ffffffffffffffffffffffffffffffffffffffff16815260200190815260200160002054905081811015610eb4576040517f08c379a0000000000000000000000000000000000000000000000000000000008152600401610eab90611c2e565b60405180910390fd5b8181036000808573ffffffffffffffffffffffffffffffffffffffff1673ffffffffffffffffffffffffffffffffffffffff1681526020019081526020016000208190555081600260008282540392505081905550600073ffffffffffffffffffffffffffffffffffffffff168373ffffffffffffffffffffffffffffffffffffffff167fddf252ad1be2c89b69c2b068fc378daa952ba7f163c4a11628f55a4df523b3ef84604051610f6791906113f4565b60405180910390a3610f7b8360008461121f565b505050565b610f88610876565b73ffffffffffffffffffffffffffffffffffffffff16610fa66105d8565b73ffffffffffffffffffffffffffffffffffffffff1614610ffc576040517f08c379a0000000000000000000000000000000000000000000000000000000008152600401610ff390611c9a565b60405180910390fd5b565b6000600560009054906101000a900473ffffffffffffffffffffffffffffffffffffffff16905081600560006101000a81548173ffffffffffffffffffffffffffffffffffffffff021916908373ffffffffffffffffffffffffffffffffffffffff1602179055508173ffffffffffffffffffffffffffffffffffffffff168173ffffffffffffffffffffffffffffffffffffffff167f8be0079c531659141344cd1fd0a4f28419497f9722a3daafe3b4186f6b6457e060405160405180910390a35050565b600073ffffffffffffffffffffffffffffffffffffffff168273ffffffffffffffffffffffffffffffffffffffff1603611133576040517f08c379a000000000000000000000000000000000000000000000000000000000815260040161112a90611d06565b60405180910390fd5b61113f6000838361121a565b806002600082825461115191906115ec565b92505081905550806000808473ffffffffffffffffffffffffffffffffffffffff1673ffffffffffffffffffffffffffffffffffffffff168152602001908152602001600020600082825401925050819055508173ffffffffffffffffffffffffffffffffffffffff16600073ffffffffffffffffffffffffffffffffffffffff167fddf252ad1be2c89b69c2b068fc378daa952ba7f163c4a11628f55a4df523b3ef8360405161120291906113f4565b60405180910390a36112166000838361121f565b5050565b505050565b505050565b600081519050919050565b600082825260208201905092915050565b60005b8381101561125e578082015181840152602081019050611243565b60008484015250505050565b6000601f19601f8301169050919050565b600061128682611224565b611290818561122f565b93506112a0818560208601611240565b6112a98161126a565b840191505092915050565b600060208201905081810360008301526112ce818461127b565b905092915050565b600080fd5b600073ffffffffffffffffffffffffffffffffffffffff82169050919050565b6000611306826112db565b9050919050565b611316816112fb565b811461132157600080fd5b50565b6000813590506113338161130d565b92915050565b6000819050919050565b61134c81611339565b811461135757600080fd5b50565b60008135905061136981611343565b92915050565b60008060408385031215611386576113856112d6565b5b600061139485828601611324565b92505060206113a58582860161135a565b9150509250929050565b60008115159050919050565b6113c4816113af565b82525050565b60006020820190506113df60008301846113bb565b92915050565b6113ee81611339565b82525050565b600060208201905061140960008301846113e5565b92915050565b600080600060608486031215611428576114276112d6565b5b600061143686828701611324565b935050602061144786828701611324565b92505060406114588682870161135a565b9150509250925092565b600060ff82169050919050565b61147881611462565b82525050565b6000602082019050611493600083018461146f565b92915050565b6000602082840312156114af576114ae6112d6565b5b60006114bd8482850161135a565b91505092915050565b6000602082840312156114dc576114db6112d6565b5b60006114ea84828501611324565b91505092915050565b6114fc816112fb565b82525050565b600060208201905061151760008301846114f3565b92915050565b60008060408385031215611534576115336112d6565b5b600061154285828601611324565b925050602061155385828601611324565b9150509250929050565b7f4e487b7100000000000000000000000000000000000000000000000000000000600052602260045260246000fd5b600060028204905060018216806115a457607f821691505b6020821081036115b7576115b661155d565b5b50919050565b7f4e487b7100000000000000000000000000000000000000000000000000000000600052601160045260246000fd5b60006115f782611339565b915061160283611339565b925082820190508082111561161a576116196115bd565b5b92915050565b7f45524332303a2064656372656173656420616c6c6f77616e63652062656c6f7760008201527f207a65726f000000000000000000000000000000000000000000000000000000602082015250565b600061167c60258361122f565b915061168782611620565b604082019050919050565b600060208201905081810360008301526116ab8161166f565b9050919050565b60006116bd82611339565b91506116c883611339565b92508282039050818111156116e0576116df6115bd565b5b92915050565b7f4f776e61626c653a206e6577206f776e657220697320746865207a65726f206160008201527f6464726573730000000000000000000000000000000000000000000000000000602082015250565b600061174260268361122f565b915061174d826116e6565b604082019050919050565b6000602082019050818103600083015261177181611735565b9050919050565b7f45524332303a20617070726f76652066726f6d20746865207a65726f2061646460008201527f7265737300000000000000000000000000000000000000000000000000000000602082015250565b60006117d460248361122f565b91506117df82611778565b604082019050919050565b60006020820190508181036000830152611803816117c7565b9050919050565b7f45524332303a20617070726f766520746f20746865207a65726f20616464726560008201527f7373000000000000000000000000000000000000000000000000000000000000602082015250565b600061186660228361122f565b91506118718261180a565b604082019050919050565b6000602082019050818103600083015261189581611859565b9050919050565b7f45524332304361707065643a2063617020657863656564656400000000000000600082015250565b60006118d260198361122f565b91506118dd8261189c565b602082019050919050565b60006020820190508181036000830152611901816118c5565b9050919050565b7f45524332303a20696e73756666696369656e7420616c6c6f77616e6365000000600082015250565b600061193e601d8361122f565b915061194982611908565b602082019050919050565b6000602082019050818103600083015261196d81611931565b9050919050565b7f45524332303a207472616e736665722066726f6d20746865207a65726f20616460008201527f6472657373000000000000000000000000000000000000000000000000000000602082015250565b60006119d060258361122f565b91506119db82611974565b604082019050919050565b600060208201905081810360008301526119ff816119c3565b9050919050565b7f45524332303a207472616e7366657220746f20746865207a65726f206164647260008201527f6573730000000000000000000000000000000000000000000000000000000000602082015250565b6000611a6260238361122f565b9150611a6d82611a06565b604082019050919050565b60006020820190508181036000830152611a9181611a55565b9050919050565b7f45524332303a207472616e7366657220616d6f756e742065786365656473206260008201527f616c616e63650000000000000000000000000000000000000000000000000000602082015250565b6000611af460268361122f565b9150611aff82611a98565b604082019050919050565b60006020820190508181036000830152611b2381611ae7565b9050919050565b7f45524332303a206275726e2066726f6d20746865207a65726f2061646472657360008201527f7300000000000000000000000000000000000000000000000000000000000000602082015250565b6000611b8660218361122f565b9150611b9182611b2a565b604082019050919050565b60006020820190508181036000830152611bb581611b79565b9050919050565b7f45524332303a206275726e20616d6f756e7420657863656564732062616c616e60008201527f6365000000000000000000000000000000000000000000000000000000000000602082015250565b6000611c1860228361122f565b9150611c2382611bbc565b604082019050919050565b60006020820190508181036000830152611c4781611c0b565b9050919050565b7f4f776e61626c653a2063616c6c6572206973206e6f7420746865206f776e6572600082015250565b6000611c8460208361122f565b9150611c8f82611c4e565b602082019050919050565b60006020820190508181036000830152611cb381611c77565b9050919050565b7f45524332303a206d696e7420746f20746865207a65726f206164647265737300600082015250565b6000611cf0601f8361122f565b9150611cfb82611cba565b602082019050919050565b60006020820190508181036000830152611d1f81611ce3565b905091905056fea264697066735822122048e9012a07b1a4c749b7e249776731d5d2960f493f0d75845fab27f52d3611d664736f6c63430008130033",
  "immutableReferences": {},
  "source": "//SPDX-License-Identifier: MIT\r\npragma solidity ^0.8.19;\r\n\r\nimport '../node_modules/@openzeppelin/contracts/token/ERC20/extensions/ERC20Capped.sol';\r\nimport '../node_modules/@openzeppelin/contracts/token/ERC20/extensions/ERC20Burnable.sol';\r\nimport '../node_modules/@openzeppelin/contracts/access/Ownable.sol';\r\n\r\ncontract HutToken is ERC20Burnable, Ownable, ERC20Capped {\r\n    uint256 private _cap;\r\n    uint256 private initialSupply = 1000 * 10 ** decimals();\r\n\r\n    constructor() ERC20('HutToken', 'HUT') ERC20Capped(1000 * 10 ** 18) {\r\n        _cap = initialSupply;\r\n        _mint(msg.sender, _cap);\r\n    }\r\n\r\n    function checkSupply() public view returns (uint256) {\r\n        return totalSupply();\r\n    }\r\n\r\n    function cap() public view virtual override returns (uint256) {\r\n        return _cap;\r\n    }\r\n\r\n    function _mint(address account, uint256 amount) internal override(ERC20, ERC20Capped) {\r\n        require(totalSupply() + amount <= cap(), 'ERC20Capped: cap exceeded');\r\n        ERC20._mint(account, amount);\r\n    }\r\n\r\n    function minting(address rec, uint256 amount) external {\r\n        _cap += amount;\r\n        _mint(rec, amount);\r\n    }\r\n\r\n    function burning(address account, uint256 amount) public onlyOwner {\r\n        _cap -= amount;\r\n        _burn(account, amount);\r\n    }\r\n}\r\n",
  "sourcePath": "C:\\Users\\user\\Desktop\\Epsilon-Studio\\server\\contracts\\HutToken.sol",
  "compiler": {
    "name": "solc",
    "version": "0.8.19+commit.7dd6d404.Emscripten.clang"
  },
  "schemaVersion": "3.4.13",
  "updatedAt": "2023-05-08T10:43:20.597Z",
  "devdoc": {
    "events": {
      "Approval(address,address,uint256)": {
        "details": "Emitted when the allowance of a `spender` for an `owner` is set by a call to {approve}. `value` is the new allowance."
      },
      "Transfer(address,address,uint256)": {
        "details": "Emitted when `value` tokens are moved from one account (`from`) to another (`to`). Note that `value` may be zero."
      }
    },
    "kind": "dev",
    "methods": {
      "allowance(address,address)": {
        "details": "See {IERC20-allowance}."
      },
      "approve(address,uint256)": {
        "details": "See {IERC20-approve}. NOTE: If `amount` is the maximum `uint256`, the allowance is not updated on `transferFrom`. This is semantically equivalent to an infinite approval. Requirements: - `spender` cannot be the zero address."
      },
      "balanceOf(address)": {
        "details": "See {IERC20-balanceOf}."
      },
      "burn(uint256)": {
        "details": "Destroys `amount` tokens from the caller. See {ERC20-_burn}."
      },
      "burnFrom(address,uint256)": {
        "details": "Destroys `amount` tokens from `account`, deducting from the caller's allowance. See {ERC20-_burn} and {ERC20-allowance}. Requirements: - the caller must have allowance for ``accounts``'s tokens of at least `amount`."
      },
      "cap()": {
        "details": "Returns the cap on the token's total supply."
      },
      "decimals()": {
        "details": "Returns the number of decimals used to get its user representation. For example, if `decimals` equals `2`, a balance of `505` tokens should be displayed to a user as `5.05` (`505 / 10 ** 2`). Tokens usually opt for a value of 18, imitating the relationship between Ether and Wei. This is the value {ERC20} uses, unless this function is overridden; NOTE: This information is only used for _display_ purposes: it in no way affects any of the arithmetic of the contract, including {IERC20-balanceOf} and {IERC20-transfer}."
      },
      "decreaseAllowance(address,uint256)": {
        "details": "Atomically decreases the allowance granted to `spender` by the caller. This is an alternative to {approve} that can be used as a mitigation for problems described in {IERC20-approve}. Emits an {Approval} event indicating the updated allowance. Requirements: - `spender` cannot be the zero address. - `spender` must have allowance for the caller of at least `subtractedValue`."
      },
      "increaseAllowance(address,uint256)": {
        "details": "Atomically increases the allowance granted to `spender` by the caller. This is an alternative to {approve} that can be used as a mitigation for problems described in {IERC20-approve}. Emits an {Approval} event indicating the updated allowance. Requirements: - `spender` cannot be the zero address."
      },
      "name()": {
        "details": "Returns the name of the token."
      },
      "owner()": {
        "details": "Returns the address of the current owner."
      },
      "renounceOwnership()": {
        "details": "Leaves the contract without owner. It will not be possible to call `onlyOwner` functions anymore. Can only be called by the current owner. NOTE: Renouncing ownership will leave the contract without an owner, thereby removing any functionality that is only available to the owner."
      },
      "symbol()": {
        "details": "Returns the symbol of the token, usually a shorter version of the name."
      },
      "totalSupply()": {
        "details": "See {IERC20-totalSupply}."
      },
      "transfer(address,uint256)": {
        "details": "See {IERC20-transfer}. Requirements: - `to` cannot be the zero address. - the caller must have a balance of at least `amount`."
      },
      "transferFrom(address,address,uint256)": {
        "details": "See {IERC20-transferFrom}. Emits an {Approval} event indicating the updated allowance. This is not required by the EIP. See the note at the beginning of {ERC20}. NOTE: Does not update the allowance if the current allowance is the maximum `uint256`. Requirements: - `from` and `to` cannot be the zero address. - `from` must have a balance of at least `amount`. - the caller must have allowance for ``from``'s tokens of at least `amount`."
      },
      "transferOwnership(address)": {
        "details": "Transfers ownership of the contract to a new account (`newOwner`). Can only be called by the current owner."
      }
    },
    "version": 1
  },
  "userdoc": {
    "kind": "user",
    "methods": {},
    "version": 1
  }
}