{
  "contractName": "MintNFT",
  "abi": [
    {
      "inputs": [
        {
          "internalType": "string",
          "name": "_name",
          "type": "string"
        },
        {
          "internalType": "string",
          "name": "_symbol",
          "type": "string"
        }
      ],
      "stateMutability": "nonpayable",
      "type": "constructor"
    },
    {
      "anonymous": false,
      "inputs": [
        {
          "indexed": true,
          "internalType": "address",
          "name": "account",
          "type": "address"
        },
        {
          "indexed": true,
          "internalType": "address",
          "name": "operator",
          "type": "address"
        },
        {
          "indexed": false,
          "internalType": "bool",
          "name": "approved",
          "type": "bool"
        }
      ],
      "name": "ApprovalForAll",
      "type": "event"
    },
    {
      "anonymous": false,
      "inputs": [
        {
          "indexed": true,
          "internalType": "address",
          "name": "previousOwner",
          "type": "address"
        },
        {
          "indexed": true,
          "internalType": "address",
          "name": "newOwner",
          "type": "address"
        }
      ],
      "name": "OwnershipTransferred",
      "type": "event"
    },
    {
      "anonymous": false,
      "inputs": [
        {
          "indexed": true,
          "internalType": "address",
          "name": "operator",
          "type": "address"
        },
        {
          "indexed": true,
          "internalType": "address",
          "name": "from",
          "type": "address"
        },
        {
          "indexed": true,
          "internalType": "address",
          "name": "to",
          "type": "address"
        },
        {
          "indexed": false,
          "internalType": "uint256[]",
          "name": "ids",
          "type": "uint256[]"
        },
        {
          "indexed": false,
          "internalType": "uint256[]",
          "name": "values",
          "type": "uint256[]"
        }
      ],
      "name": "TransferBatch",
      "type": "event"
    },
    {
      "anonymous": false,
      "inputs": [
        {
          "indexed": true,
          "internalType": "address",
          "name": "operator",
          "type": "address"
        },
        {
          "indexed": true,
          "internalType": "address",
          "name": "from",
          "type": "address"
        },
        {
          "indexed": true,
          "internalType": "address",
          "name": "to",
          "type": "address"
        },
        {
          "indexed": false,
          "internalType": "uint256",
          "name": "id",
          "type": "uint256"
        },
        {
          "indexed": false,
          "internalType": "uint256",
          "name": "value",
          "type": "uint256"
        }
      ],
      "name": "TransferSingle",
      "type": "event"
    },
    {
      "anonymous": false,
      "inputs": [
        {
          "indexed": false,
          "internalType": "string",
          "name": "value",
          "type": "string"
        },
        {
          "indexed": true,
          "internalType": "uint256",
          "name": "id",
          "type": "uint256"
        }
      ],
      "name": "URI",
      "type": "event"
    },
    {
      "inputs": [
        {
          "internalType": "address",
          "name": "account",
          "type": "address"
        },
        {
          "internalType": "uint256",
          "name": "id",
          "type": "uint256"
        }
      ],
      "name": "balanceOf",
      "outputs": [
        {
          "internalType": "uint256",
          "name": "",
          "type": "uint256"
        }
      ],
      "stateMutability": "view",
      "type": "function"
    },
    {
      "inputs": [
        {
          "internalType": "address[]",
          "name": "accounts",
          "type": "address[]"
        },
        {
          "internalType": "uint256[]",
          "name": "ids",
          "type": "uint256[]"
        }
      ],
      "name": "balanceOfBatch",
      "outputs": [
        {
          "internalType": "uint256[]",
          "name": "",
          "type": "uint256[]"
        }
      ],
      "stateMutability": "view",
      "type": "function"
    },
    {
      "inputs": [
        {
          "internalType": "address",
          "name": "account",
          "type": "address"
        },
        {
          "internalType": "address",
          "name": "operator",
          "type": "address"
        }
      ],
      "name": "isApprovedForAll",
      "outputs": [
        {
          "internalType": "bool",
          "name": "",
          "type": "bool"
        }
      ],
      "stateMutability": "view",
      "type": "function"
    },
    {
      "inputs": [],
      "name": "name",
      "outputs": [
        {
          "internalType": "string",
          "name": "",
          "type": "string"
        }
      ],
      "stateMutability": "view",
      "type": "function"
    },
    {
      "inputs": [],
      "name": "owner",
      "outputs": [
        {
          "internalType": "address",
          "name": "",
          "type": "address"
        }
      ],
      "stateMutability": "view",
      "type": "function"
    },
    {
      "inputs": [],
      "name": "renounceOwnership",
      "outputs": [],
      "stateMutability": "nonpayable",
      "type": "function"
    },
    {
      "inputs": [
        {
          "internalType": "address",
          "name": "from",
          "type": "address"
        },
        {
          "internalType": "address",
          "name": "to",
          "type": "address"
        },
        {
          "internalType": "uint256[]",
          "name": "ids",
          "type": "uint256[]"
        },
        {
          "internalType": "uint256[]",
          "name": "amounts",
          "type": "uint256[]"
        },
        {
          "internalType": "bytes",
          "name": "data",
          "type": "bytes"
        }
      ],
      "name": "safeBatchTransferFrom",
      "outputs": [],
      "stateMutability": "nonpayable",
      "type": "function"
    },
    {
      "inputs": [
        {
          "internalType": "address",
          "name": "from",
          "type": "address"
        },
        {
          "internalType": "address",
          "name": "to",
          "type": "address"
        },
        {
          "internalType": "uint256",
          "name": "id",
          "type": "uint256"
        },
        {
          "internalType": "uint256",
          "name": "amount",
          "type": "uint256"
        },
        {
          "internalType": "bytes",
          "name": "data",
          "type": "bytes"
        }
      ],
      "name": "safeTransferFrom",
      "outputs": [],
      "stateMutability": "nonpayable",
      "type": "function"
    },
    {
      "inputs": [
        {
          "internalType": "address",
          "name": "operator",
          "type": "address"
        },
        {
          "internalType": "bool",
          "name": "approved",
          "type": "bool"
        }
      ],
      "name": "setApprovalForAll",
      "outputs": [],
      "stateMutability": "nonpayable",
      "type": "function"
    },
    {
      "inputs": [
        {
          "internalType": "bytes4",
          "name": "interfaceId",
          "type": "bytes4"
        }
      ],
      "name": "supportsInterface",
      "outputs": [
        {
          "internalType": "bool",
          "name": "",
          "type": "bool"
        }
      ],
      "stateMutability": "view",
      "type": "function"
    },
    {
      "inputs": [],
      "name": "symbol",
      "outputs": [
        {
          "internalType": "string",
          "name": "",
          "type": "string"
        }
      ],
      "stateMutability": "view",
      "type": "function"
    },
    {
      "inputs": [
        {
          "internalType": "uint256",
          "name": "",
          "type": "uint256"
        }
      ],
      "name": "tokenSupply",
      "outputs": [
        {
          "internalType": "uint256",
          "name": "",
          "type": "uint256"
        }
      ],
      "stateMutability": "view",
      "type": "function"
    },
    {
      "inputs": [
        {
          "internalType": "address",
          "name": "newOwner",
          "type": "address"
        }
      ],
      "name": "transferOwnership",
      "outputs": [],
      "stateMutability": "nonpayable",
      "type": "function"
    },
    {
      "inputs": [
        {
          "internalType": "uint256",
          "name": "tokenId",
          "type": "uint256"
        }
      ],
      "name": "uri",
      "outputs": [
        {
          "internalType": "string",
          "name": "",
          "type": "string"
        }
      ],
      "stateMutability": "view",
      "type": "function"
    },
    {
      "inputs": [
        {
          "internalType": "address",
          "name": "account",
          "type": "address"
        },
        {
          "internalType": "uint256",
          "name": "amount",
          "type": "uint256"
        },
        {
          "internalType": "string",
          "name": "_tokenURI",
          "type": "string"
        }
      ],
      "name": "mint",
      "outputs": [],
      "stateMutability": "nonpayable",
      "type": "function"
    },
    {
      "inputs": [
        {
          "internalType": "uint256",
          "name": "tokenId",
          "type": "uint256"
        },
        {
          "internalType": "uint256",
          "name": "amount",
          "type": "uint256"
        }
      ],
      "name": "addTokenSupply",
      "outputs": [],
      "stateMutability": "nonpayable",
      "type": "function"
    },
    {
      "inputs": [
        {
          "internalType": "uint256",
          "name": "tokenId",
          "type": "uint256"
        },
        {
          "internalType": "uint256",
          "name": "amount",
          "type": "uint256"
        }
      ],
      "name": "removeTokenSupply",
      "outputs": [],
      "stateMutability": "nonpayable",
      "type": "function"
    },
    {
      "inputs": [
        {
          "internalType": "address[]",
          "name": "accounts",
          "type": "address[]"
        },
        {
          "internalType": "uint256[]",
          "name": "amounts",
          "type": "uint256[]"
        },
        {
          "internalType": "string[]",
          "name": "tokenURIs",
          "type": "string[]"
        }
      ],
      "name": "mintBatch",
      "outputs": [],
      "stateMutability": "nonpayable",
      "type": "function"
    },
    {
      "inputs": [],
      "name": "getNftAmount",
      "outputs": [
        {
          "internalType": "uint256",
          "name": "",
          "type": "uint256"
        }
      ],
      "stateMutability": "view",
      "type": "function"
    }
  ],
  "bytecode": "0x60806040526040518060200160405280600081525060049081620000249190620004e5565b503480156200003257600080fd5b50604051620043ed380380620043ed833981810160405281019062000058919062000730565b600980546200006790620002d4565b80601f01602080910402602001604051908101604052809291908181526020018280546200009590620002d4565b8015620000e65780601f10620000ba57610100808354040283529160200191620000e6565b820191906000526020600020905b815481529060010190602001808311620000c857829003601f168201915b5050505050620000fc816200017360201b60201c565b506200011d620001116200018860201b60201c565b6200019060201b60201c565b81600790816200012e9190620004e5565b508060089081620001409190620004e5565b506200016b604051806060016040528060218152602001620043cc602191396200025660201b60201c565b5050620007b5565b8060029081620001849190620004e5565b5050565b600033905090565b6000600360009054906101000a900473ffffffffffffffffffffffffffffffffffffffff16905081600360006101000a81548173ffffffffffffffffffffffffffffffffffffffff021916908373ffffffffffffffffffffffffffffffffffffffff1602179055508173ffffffffffffffffffffffffffffffffffffffff168173ffffffffffffffffffffffffffffffffffffffff167f8be0079c531659141344cd1fd0a4f28419497f9722a3daafe3b4186f6b6457e060405160405180910390a35050565b8060049081620002679190620004e5565b5050565b600081519050919050565b7f4e487b7100000000000000000000000000000000000000000000000000000000600052604160045260246000fd5b7f4e487b7100000000000000000000000000000000000000000000000000000000600052602260045260246000fd5b60006002820490506001821680620002ed57607f821691505b602082108103620003035762000302620002a5565b5b50919050565b60008190508160005260206000209050919050565b60006020601f8301049050919050565b600082821b905092915050565b6000600883026200036d7fffffffffffffffffffffffffffffffffffffffffffffffffffffffffffffffff826200032e565b6200037986836200032e565b95508019841693508086168417925050509392505050565b6000819050919050565b6000819050919050565b6000620003c6620003c0620003ba8462000391565b6200039b565b62000391565b9050919050565b6000819050919050565b620003e283620003a5565b620003fa620003f182620003cd565b8484546200033b565b825550505050565b600090565b6200041162000402565b6200041e818484620003d7565b505050565b5b8181101562000446576200043a60008262000407565b60018101905062000424565b5050565b601f82111562000495576200045f8162000309565b6200046a846200031e565b810160208510156200047a578190505b6200049262000489856200031e565b83018262000423565b50505b505050565b600082821c905092915050565b6000620004ba600019846008026200049a565b1980831691505092915050565b6000620004d58383620004a7565b9150826002028217905092915050565b620004f0826200026b565b67ffffffffffffffff8111156200050c576200050b62000276565b5b620005188254620002d4565b620005258282856200044a565b600060209050601f8311600181146200055d576000841562000548578287015190505b620005548582620004c7565b865550620005c4565b601f1984166200056d8662000309565b60005b82811015620005975784890151825560018201915060208501945060208101905062000570565b86831015620005b75784890151620005b3601f891682620004a7565b8355505b6001600288020188555050505b505050505050565b6000604051905090565b600080fd5b600080fd5b600080fd5b600080fd5b6000601f19601f8301169050919050565b6200060682620005ea565b810181811067ffffffffffffffff8211171562000628576200062762000276565b5b80604052505050565b60006200063d620005cc565b90506200064b8282620005fb565b919050565b600067ffffffffffffffff8211156200066e576200066d62000276565b5b6200067982620005ea565b9050602081019050919050565b60005b83811015620006a657808201518184015260208101905062000689565b60008484015250505050565b6000620006c9620006c38462000650565b62000631565b905082815260208101848484011115620006e857620006e7620005e5565b5b620006f584828562000686565b509392505050565b600082601f830112620007155762000714620005e0565b5b815162000727848260208601620006b2565b91505092915050565b600080604083850312156200074a5762000749620005d6565b5b600083015167ffffffffffffffff8111156200076b576200076a620005db565b5b6200077985828601620006fd565b925050602083015167ffffffffffffffff8111156200079d576200079c620005db565b5b620007ab85828601620006fd565b9150509250929050565b613c0780620007c56000396000f3fe608060405234801561001057600080fd5b50600436106101205760003560e01c806376f5e9f1116100ad578063aaa2836111610071578063aaa2836114610307578063d3fc986414610323578063e985e9c51461033f578063f242432a1461036f578063f2fde38b1461038b57610120565b806376f5e9f1146102755780638da5cb5b1461029357806392315df7146102b157806395d89b41146102cd578063a22cb465146102eb57610120565b806323e96247116100f457806323e96247146101d35780632693ebf2146101ef5780632eb2c2d61461021f5780634e1273f41461023b578063715018a61461026b57610120565b8062fdd58e1461012557806301ffc9a71461015557806306fdde03146101855780630e89341c146101a3575b600080fd5b61013f600480360381019061013a919061207f565b6103a7565b60405161014c91906120ce565b60405180910390f35b61016f600480360381019061016a9190612141565b61046f565b60405161017c9190612189565b60405180910390f35b61018d610551565b60405161019a9190612234565b60405180910390f35b6101bd60048036038101906101b89190612256565b6105df565b6040516101ca9190612234565b60405180910390f35b6101ed60048036038101906101e89190612283565b6105f1565b005b61020960048036038101906102049190612256565b610642565b60405161021691906120ce565b60405180910390f35b610239600480360381019061023491906124c0565b61065a565b005b61025560048036038101906102509190612652565b6106fb565b6040516102629190612788565b60405180910390f35b610273610814565b005b61027d610828565b60405161028a91906120ce565b60405180910390f35b61029b61083e565b6040516102a891906127b9565b60405180910390f35b6102cb60048036038101906102c69190612956565b610868565b005b6102d561093f565b6040516102e29190612234565b60405180910390f35b61030560048036038101906103009190612a29565b6109cd565b005b610321600480360381019061031c9190612283565b6109e3565b005b61033d60048036038101906103389190612a69565b610a79565b005b61035960048036038101906103549190612ad8565b610aee565b6040516103669190612189565b60405180910390f35b61038960048036038101906103849190612b18565b610b82565b005b6103a560048036038101906103a09190612baf565b610c23565b005b60008073ffffffffffffffffffffffffffffffffffffffff168373ffffffffffffffffffffffffffffffffffffffff1603610417576040517f08c379a000000000000000000000000000000000000000000000000000000000815260040161040e90612c4e565b60405180910390fd5b60008083815260200190815260200160002060008473ffffffffffffffffffffffffffffffffffffffff1673ffffffffffffffffffffffffffffffffffffffff16815260200190815260200160002054905092915050565b60007fd9b67a26000000000000000000000000000000000000000000000000000000007bffffffffffffffffffffffffffffffffffffffffffffffffffffffff1916827bffffffffffffffffffffffffffffffffffffffffffffffffffffffff1916148061053a57507f0e89341c000000000000000000000000000000000000000000000000000000007bffffffffffffffffffffffffffffffffffffffffffffffffffffffff1916827bffffffffffffffffffffffffffffffffffffffffffffffffffffffff1916145b8061054a575061054982610ca6565b5b9050919050565b6007805461055e90612c9d565b80601f016020809104026020016040519081016040528092919081815260200182805461058a90612c9d565b80156105d75780601f106105ac576101008083540402835291602001916105d7565b820191906000526020600020905b8154815290600101906020018083116105ba57829003601f168201915b505050505081565b60606105ea82610d10565b9050919050565b6105f9610df5565b80600a6000848152602001908152602001600020600082825461061c9190612cfd565b9250508190555061063e33838360405180602001604052806000815250610e73565b5050565b600a6020528060005260406000206000915090505481565b610662611023565b73ffffffffffffffffffffffffffffffffffffffff168573ffffffffffffffffffffffffffffffffffffffff1614806106a857506106a7856106a2611023565b610aee565b5b6106e7576040517f08c379a00000000000000000000000000000000000000000000000000000000081526004016106de90612da3565b60405180910390fd5b6106f4858585858561102b565b5050505050565b60608151835114610741576040517f08c379a000000000000000000000000000000000000000000000000000000000815260040161073890612e35565b60405180910390fd5b6000835167ffffffffffffffff81111561075e5761075d6122c8565b5b60405190808252806020026020018201604052801561078c5781602001602082028036833780820191505090505b50905060005b8451811015610809576107d98582815181106107b1576107b0612e55565b5b60200260200101518583815181106107cc576107cb612e55565b5b60200260200101516103a7565b8282815181106107ec576107eb612e55565b5b6020026020010181815250508061080290612e84565b9050610792565b508091505092915050565b61081c610df5565b610826600061134c565b565b6000806108356006611412565b90508091505090565b6000600360009054906101000a900473ffffffffffffffffffffffffffffffffffffffff16905090565b610870610df5565b81518351148015610882575080518351145b6108c1576040517f08c379a00000000000000000000000000000000000000000000000000000000081526004016108b890612f18565b60405180910390fd5b60005b8351811015610939576109268482815181106108e3576108e2612e55565b5b60200260200101518483815181106108fe576108fd612e55565b5b602002602001015184848151811061091957610918612e55565b5b6020026020010151610a79565b808061093190612e84565b9150506108c4565b50505050565b6008805461094c90612c9d565b80601f016020809104026020016040519081016040528092919081815260200182805461097890612c9d565b80156109c55780601f1061099a576101008083540402835291602001916109c5565b820191906000526020600020905b8154815290600101906020018083116109a857829003601f168201915b505050505081565b6109df6109d8611023565b8383611420565b5050565b80600a60008481526020019081526020016000206000828254610a069190612f38565b925050819055506000600a60008481526020019081526020016000205490506000811015610a69576040517f08c379a0000000000000000000000000000000000000000000000000000000008152600401610a6090612fb8565b60405180910390fd5b610a7433848461158c565b505050565b610a81610df5565b6000610a8d6006611412565b9050610a9960066117d2565b82600a60008381526020019081526020016000206000828254610abc9190612cfd565b92505081905550610acd81836117e8565b610ae884828560405180602001604052806000815250610e73565b50505050565b6000600160008473ffffffffffffffffffffffffffffffffffffffff1673ffffffffffffffffffffffffffffffffffffffff16815260200190815260200160002060008373ffffffffffffffffffffffffffffffffffffffff1673ffffffffffffffffffffffffffffffffffffffff16815260200190815260200160002060009054906101000a900460ff16905092915050565b610b8a611023565b73ffffffffffffffffffffffffffffffffffffffff168573ffffffffffffffffffffffffffffffffffffffff161480610bd05750610bcf85610bca611023565b610aee565b5b610c0f576040517f08c379a0000000000000000000000000000000000000000000000000000000008152600401610c0690612da3565b60405180910390fd5b610c1c858585858561184d565b5050505050565b610c2b610df5565b600073ffffffffffffffffffffffffffffffffffffffff168173ffffffffffffffffffffffffffffffffffffffff1603610c9a576040517f08c379a0000000000000000000000000000000000000000000000000000000008152600401610c919061304a565b60405180910390fd5b610ca38161134c565b50565b60007f01ffc9a7000000000000000000000000000000000000000000000000000000007bffffffffffffffffffffffffffffffffffffffffffffffffffffffff1916827bffffffffffffffffffffffffffffffffffffffffffffffffffffffff1916149050919050565b60606000600560008481526020019081526020016000208054610d3290612c9d565b80601f0160208091040260200160405190810160405280929190818152602001828054610d5e90612c9d565b8015610dab5780601f10610d8057610100808354040283529160200191610dab565b820191906000526020600020905b815481529060010190602001808311610d8e57829003601f168201915b505050505090506000815111610dc957610dc483611ae8565b610ded565b600481604051602001610ddd92919061313e565b6040516020818303038152906040525b915050919050565b610dfd611023565b73ffffffffffffffffffffffffffffffffffffffff16610e1b61083e565b73ffffffffffffffffffffffffffffffffffffffff1614610e71576040517f08c379a0000000000000000000000000000000000000000000000000000000008152600401610e68906131ae565b60405180910390fd5b565b600073ffffffffffffffffffffffffffffffffffffffff168473ffffffffffffffffffffffffffffffffffffffff1603610ee2576040517f08c379a0000000000000000000000000000000000000000000000000000000008152600401610ed990613240565b60405180910390fd5b6000610eec611023565b90506000610ef985611b7c565b90506000610f0685611b7c565b9050610f1783600089858589611bf6565b8460008088815260200190815260200160002060008973ffffffffffffffffffffffffffffffffffffffff1673ffffffffffffffffffffffffffffffffffffffff1681526020019081526020016000206000828254610f769190612cfd565b925050819055508673ffffffffffffffffffffffffffffffffffffffff16600073ffffffffffffffffffffffffffffffffffffffff168473ffffffffffffffffffffffffffffffffffffffff167fc3d58168c5ae7397731d063d5bbf3d657854427343f4c083240f7aacaa2d0f628989604051610ff4929190613260565b60405180910390a461100b83600089858589611bfe565b61101a83600089898989611c06565b50505050505050565b600033905090565b815183511461106f576040517f08c379a0000000000000000000000000000000000000000000000000000000008152600401611066906132fb565b60405180910390fd5b600073ffffffffffffffffffffffffffffffffffffffff168473ffffffffffffffffffffffffffffffffffffffff16036110de576040517f08c379a00000000000000000000000000000000000000000000000000000000081526004016110d59061338d565b60405180910390fd5b60006110e8611023565b90506110f8818787878787611bf6565b60005b84518110156112a957600085828151811061111957611118612e55565b5b60200260200101519050600085838151811061113857611137612e55565b5b60200260200101519050600080600084815260200190815260200160002060008b73ffffffffffffffffffffffffffffffffffffffff1673ffffffffffffffffffffffffffffffffffffffff168152602001908152602001600020549050818110156111d9576040517f08c379a00000000000000000000000000000000000000000000000000000000081526004016111d09061341f565b60405180910390fd5b81810360008085815260200190815260200160002060008c73ffffffffffffffffffffffffffffffffffffffff1673ffffffffffffffffffffffffffffffffffffffff168152602001908152602001600020819055508160008085815260200190815260200160002060008b73ffffffffffffffffffffffffffffffffffffffff1673ffffffffffffffffffffffffffffffffffffffff168152602001908152602001600020600082825461128e9190612cfd565b92505081905550505050806112a290612e84565b90506110fb565b508473ffffffffffffffffffffffffffffffffffffffff168673ffffffffffffffffffffffffffffffffffffffff168273ffffffffffffffffffffffffffffffffffffffff167f4a39dc06d4c0dbc64b70af90fd698a233a518aa5d07e595d983b8c0526c8f7fb878760405161132092919061343f565b60405180910390a4611336818787878787611bfe565b611344818787878787611ddd565b505050505050565b6000600360009054906101000a900473ffffffffffffffffffffffffffffffffffffffff16905081600360006101000a81548173ffffffffffffffffffffffffffffffffffffffff021916908373ffffffffffffffffffffffffffffffffffffffff1602179055508173ffffffffffffffffffffffffffffffffffffffff168173ffffffffffffffffffffffffffffffffffffffff167f8be0079c531659141344cd1fd0a4f28419497f9722a3daafe3b4186f6b6457e060405160405180910390a35050565b600081600001549050919050565b8173ffffffffffffffffffffffffffffffffffffffff168373ffffffffffffffffffffffffffffffffffffffff160361148e576040517f08c379a0000000000000000000000000000000000000000000000000000000008152600401611485906134e8565b60405180910390fd5b80600160008573ffffffffffffffffffffffffffffffffffffffff1673ffffffffffffffffffffffffffffffffffffffff16815260200190815260200160002060008473ffffffffffffffffffffffffffffffffffffffff1673ffffffffffffffffffffffffffffffffffffffff16815260200190815260200160002060006101000a81548160ff0219169083151502179055508173ffffffffffffffffffffffffffffffffffffffff168373ffffffffffffffffffffffffffffffffffffffff167f17307eab39ab6107e8899845ad3d59bd9653f200f220920489ca2b5937696c318360405161157f9190612189565b60405180910390a3505050565b600073ffffffffffffffffffffffffffffffffffffffff168373ffffffffffffffffffffffffffffffffffffffff16036115fb576040517f08c379a00000000000000000000000000000000000000000000000000000000081526004016115f29061357a565b60405180910390fd5b6000611605611023565b9050600061161284611b7c565b9050600061161f84611b7c565b905061163f83876000858560405180602001604052806000815250611bf6565b600080600087815260200190815260200160002060008873ffffffffffffffffffffffffffffffffffffffff1673ffffffffffffffffffffffffffffffffffffffff168152602001908152602001600020549050848110156116d6576040517f08c379a00000000000000000000000000000000000000000000000000000000081526004016116cd9061360c565b60405180910390fd5b84810360008088815260200190815260200160002060008973ffffffffffffffffffffffffffffffffffffffff1673ffffffffffffffffffffffffffffffffffffffff16815260200190815260200160002081905550600073ffffffffffffffffffffffffffffffffffffffff168773ffffffffffffffffffffffffffffffffffffffff168573ffffffffffffffffffffffffffffffffffffffff167fc3d58168c5ae7397731d063d5bbf3d657854427343f4c083240f7aacaa2d0f6289896040516117a3929190613260565b60405180910390a46117c984886000868660405180602001604052806000815250611bfe565b50505050505050565b6001816000016000828254019250508190555050565b8060056000848152602001908152602001600020908161180891906137c3565b50817f6bb7ff708619ba0610cba295a58592e0451dee2622938c8755667688daf3529b611834846105df565b6040516118419190612234565b60405180910390a25050565b600073ffffffffffffffffffffffffffffffffffffffff168473ffffffffffffffffffffffffffffffffffffffff16036118bc576040517f08c379a00000000000000000000000000000000000000000000000000000000081526004016118b39061338d565b60405180910390fd5b60006118c6611023565b905060006118d385611b7c565b905060006118e085611b7c565b90506118f0838989858589611bf6565b600080600088815260200190815260200160002060008a73ffffffffffffffffffffffffffffffffffffffff1673ffffffffffffffffffffffffffffffffffffffff16815260200190815260200160002054905085811015611987576040517f08c379a000000000000000000000000000000000000000000000000000000000815260040161197e9061341f565b60405180910390fd5b85810360008089815260200190815260200160002060008b73ffffffffffffffffffffffffffffffffffffffff1673ffffffffffffffffffffffffffffffffffffffff168152602001908152602001600020819055508560008089815260200190815260200160002060008a73ffffffffffffffffffffffffffffffffffffffff1673ffffffffffffffffffffffffffffffffffffffff1681526020019081526020016000206000828254611a3c9190612cfd565b925050819055508773ffffffffffffffffffffffffffffffffffffffff168973ffffffffffffffffffffffffffffffffffffffff168573ffffffffffffffffffffffffffffffffffffffff167fc3d58168c5ae7397731d063d5bbf3d657854427343f4c083240f7aacaa2d0f628a8a604051611ab9929190613260565b60405180910390a4611acf848a8a86868a611bfe565b611add848a8a8a8a8a611c06565b505050505050505050565b606060028054611af790612c9d565b80601f0160208091040260200160405190810160405280929190818152602001828054611b2390612c9d565b8015611b705780601f10611b4557610100808354040283529160200191611b70565b820191906000526020600020905b815481529060010190602001808311611b5357829003601f168201915b50505050509050919050565b60606000600167ffffffffffffffff811115611b9b57611b9a6122c8565b5b604051908082528060200260200182016040528015611bc95781602001602082028036833780820191505090505b5090508281600081518110611be157611be0612e55565b5b60200260200101818152505080915050919050565b505050505050565b505050505050565b611c258473ffffffffffffffffffffffffffffffffffffffff16611fb4565b15611dd5578373ffffffffffffffffffffffffffffffffffffffff1663f23a6e6187878686866040518663ffffffff1660e01b8152600401611c6b9594939291906138ea565b6020604051808303816000875af1925050508015611ca757506040513d601f19601f82011682018060405250810190611ca49190613959565b60015b611d4c57611cb3613993565b806308c379a003611d0f5750611cc76139b5565b80611cd25750611d11565b806040517f08c379a0000000000000000000000000000000000000000000000000000000008152600401611d069190612234565b60405180910390fd5b505b6040517f08c379a0000000000000000000000000000000000000000000000000000000008152600401611d4390613ab7565b60405180910390fd5b63f23a6e6160e01b7bffffffffffffffffffffffffffffffffffffffffffffffffffffffff1916817bffffffffffffffffffffffffffffffffffffffffffffffffffffffff191614611dd3576040517f08c379a0000000000000000000000000000000000000000000000000000000008152600401611dca90613b49565b60405180910390fd5b505b505050505050565b611dfc8473ffffffffffffffffffffffffffffffffffffffff16611fb4565b15611fac578373ffffffffffffffffffffffffffffffffffffffff1663bc197c8187878686866040518663ffffffff1660e01b8152600401611e42959493929190613b69565b6020604051808303816000875af1925050508015611e7e57506040513d601f19601f82011682018060405250810190611e7b9190613959565b60015b611f2357611e8a613993565b806308c379a003611ee65750611e9e6139b5565b80611ea95750611ee8565b806040517f08c379a0000000000000000000000000000000000000000000000000000000008152600401611edd9190612234565b60405180910390fd5b505b6040517f08c379a0000000000000000000000000000000000000000000000000000000008152600401611f1a90613ab7565b60405180910390fd5b63bc197c8160e01b7bffffffffffffffffffffffffffffffffffffffffffffffffffffffff1916817bffffffffffffffffffffffffffffffffffffffffffffffffffffffff191614611faa576040517f08c379a0000000000000000000000000000000000000000000000000000000008152600401611fa190613b49565b60405180910390fd5b505b505050505050565b6000808273ffffffffffffffffffffffffffffffffffffffff163b119050919050565b6000604051905090565b600080fd5b600080fd5b600073ffffffffffffffffffffffffffffffffffffffff82169050919050565b600061201682611feb565b9050919050565b6120268161200b565b811461203157600080fd5b50565b6000813590506120438161201d565b92915050565b6000819050919050565b61205c81612049565b811461206757600080fd5b50565b60008135905061207981612053565b92915050565b6000806040838503121561209657612095611fe1565b5b60006120a485828601612034565b92505060206120b58582860161206a565b9150509250929050565b6120c881612049565b82525050565b60006020820190506120e360008301846120bf565b92915050565b60007fffffffff0000000000000000000000000000000000000000000000000000000082169050919050565b61211e816120e9565b811461212957600080fd5b50565b60008135905061213b81612115565b92915050565b60006020828403121561215757612156611fe1565b5b60006121658482850161212c565b91505092915050565b60008115159050919050565b6121838161216e565b82525050565b600060208201905061219e600083018461217a565b92915050565b600081519050919050565b600082825260208201905092915050565b60005b838110156121de5780820151818401526020810190506121c3565b60008484015250505050565b6000601f19601f8301169050919050565b6000612206826121a4565b61221081856121af565b93506122208185602086016121c0565b612229816121ea565b840191505092915050565b6000602082019050818103600083015261224e81846121fb565b905092915050565b60006020828403121561226c5761226b611fe1565b5b600061227a8482850161206a565b91505092915050565b6000806040838503121561229a57612299611fe1565b5b60006122a88582860161206a565b92505060206122b98582860161206a565b9150509250929050565b600080fd5b7f4e487b7100000000000000000000000000000000000000000000000000000000600052604160045260246000fd5b612300826121ea565b810181811067ffffffffffffffff8211171561231f5761231e6122c8565b5b80604052505050565b6000612332611fd7565b905061233e82826122f7565b919050565b600067ffffffffffffffff82111561235e5761235d6122c8565b5b602082029050602081019050919050565b600080fd5b600061238761238284612343565b612328565b905080838252602082019050602084028301858111156123aa576123a961236f565b5b835b818110156123d357806123bf888261206a565b8452602084019350506020810190506123ac565b5050509392505050565b600082601f8301126123f2576123f16122c3565b5b8135612402848260208601612374565b91505092915050565b600080fd5b600067ffffffffffffffff82111561242b5761242a6122c8565b5b612434826121ea565b9050602081019050919050565b82818337600083830152505050565b600061246361245e84612410565b612328565b90508281526020810184848401111561247f5761247e61240b565b5b61248a848285612441565b509392505050565b600082601f8301126124a7576124a66122c3565b5b81356124b7848260208601612450565b91505092915050565b600080600080600060a086880312156124dc576124db611fe1565b5b60006124ea88828901612034565b95505060206124fb88828901612034565b945050604086013567ffffffffffffffff81111561251c5761251b611fe6565b5b612528888289016123dd565b935050606086013567ffffffffffffffff81111561254957612548611fe6565b5b612555888289016123dd565b925050608086013567ffffffffffffffff81111561257657612575611fe6565b5b61258288828901612492565b9150509295509295909350565b600067ffffffffffffffff8211156125aa576125a96122c8565b5b602082029050602081019050919050565b60006125ce6125c98461258f565b612328565b905080838252602082019050602084028301858111156125f1576125f061236f565b5b835b8181101561261a57806126068882612034565b8452602084019350506020810190506125f3565b5050509392505050565b600082601f830112612639576126386122c3565b5b81356126498482602086016125bb565b91505092915050565b6000806040838503121561266957612668611fe1565b5b600083013567ffffffffffffffff81111561268757612686611fe6565b5b61269385828601612624565b925050602083013567ffffffffffffffff8111156126b4576126b3611fe6565b5b6126c0858286016123dd565b9150509250929050565b600081519050919050565b600082825260208201905092915050565b6000819050602082019050919050565b6126ff81612049565b82525050565b600061271183836126f6565b60208301905092915050565b6000602082019050919050565b6000612735826126ca565b61273f81856126d5565b935061274a836126e6565b8060005b8381101561277b5781516127628882612705565b975061276d8361271d565b92505060018101905061274e565b5085935050505092915050565b600060208201905081810360008301526127a2818461272a565b905092915050565b6127b38161200b565b82525050565b60006020820190506127ce60008301846127aa565b92915050565b600067ffffffffffffffff8211156127ef576127ee6122c8565b5b602082029050602081019050919050565b600067ffffffffffffffff82111561281b5761281a6122c8565b5b612824826121ea565b9050602081019050919050565b600061284461283f84612800565b612328565b9050828152602081018484840111156128605761285f61240b565b5b61286b848285612441565b509392505050565b600082601f830112612888576128876122c3565b5b8135612898848260208601612831565b91505092915050565b60006128b46128af846127d4565b612328565b905080838252602082019050602084028301858111156128d7576128d661236f565b5b835b8181101561291e57803567ffffffffffffffff8111156128fc576128fb6122c3565b5b8086016129098982612873565b855260208501945050506020810190506128d9565b5050509392505050565b600082601f83011261293d5761293c6122c3565b5b813561294d8482602086016128a1565b91505092915050565b60008060006060848603121561296f5761296e611fe1565b5b600084013567ffffffffffffffff81111561298d5761298c611fe6565b5b61299986828701612624565b935050602084013567ffffffffffffffff8111156129ba576129b9611fe6565b5b6129c6868287016123dd565b925050604084013567ffffffffffffffff8111156129e7576129e6611fe6565b5b6129f386828701612928565b9150509250925092565b612a068161216e565b8114612a1157600080fd5b50565b600081359050612a23816129fd565b92915050565b60008060408385031215612a4057612a3f611fe1565b5b6000612a4e85828601612034565b9250506020612a5f85828601612a14565b9150509250929050565b600080600060608486031215612a8257612a81611fe1565b5b6000612a9086828701612034565b9350506020612aa18682870161206a565b925050604084013567ffffffffffffffff811115612ac257612ac1611fe6565b5b612ace86828701612873565b9150509250925092565b60008060408385031215612aef57612aee611fe1565b5b6000612afd85828601612034565b9250506020612b0e85828601612034565b9150509250929050565b600080600080600060a08688031215612b3457612b33611fe1565b5b6000612b4288828901612034565b9550506020612b5388828901612034565b9450506040612b648882890161206a565b9350506060612b758882890161206a565b925050608086013567ffffffffffffffff811115612b9657612b95611fe6565b5b612ba288828901612492565b9150509295509295909350565b600060208284031215612bc557612bc4611fe1565b5b6000612bd384828501612034565b91505092915050565b7f455243313135353a2061646472657373207a65726f206973206e6f742061207660008201527f616c6964206f776e657200000000000000000000000000000000000000000000602082015250565b6000612c38602a836121af565b9150612c4382612bdc565b604082019050919050565b60006020820190508181036000830152612c6781612c2b565b9050919050565b7f4e487b7100000000000000000000000000000000000000000000000000000000600052602260045260246000fd5b60006002820490506001821680612cb557607f821691505b602082108103612cc857612cc7612c6e565b5b50919050565b7f4e487b7100000000000000000000000000000000000000000000000000000000600052601160045260246000fd5b6000612d0882612049565b9150612d1383612049565b9250828201905080821115612d2b57612d2a612cce565b5b92915050565b7f455243313135353a2063616c6c6572206973206e6f7420746f6b656e206f776e60008201527f6572206f7220617070726f766564000000000000000000000000000000000000602082015250565b6000612d8d602e836121af565b9150612d9882612d31565b604082019050919050565b60006020820190508181036000830152612dbc81612d80565b9050919050565b7f455243313135353a206163636f756e747320616e6420696473206c656e67746860008201527f206d69736d617463680000000000000000000000000000000000000000000000602082015250565b6000612e1f6029836121af565b9150612e2a82612dc3565b604082019050919050565b60006020820190508181036000830152612e4e81612e12565b9050919050565b7f4e487b7100000000000000000000000000000000000000000000000000000000600052603260045260246000fd5b6000612e8f82612049565b91507fffffffffffffffffffffffffffffffffffffffffffffffffffffffffffffffff8203612ec157612ec0612cce565b5b600182019050919050565b7f417272617973206c656e677468206d69736d6174636800000000000000000000600082015250565b6000612f026016836121af565b9150612f0d82612ecc565b602082019050919050565b60006020820190508181036000830152612f3181612ef5565b9050919050565b6000612f4382612049565b9150612f4e83612049565b9250828203905081811115612f6657612f65612cce565b5b92915050565b7f496e76616c696420746f6b656e20737570706c792e0000000000000000000000600082015250565b6000612fa26015836121af565b9150612fad82612f6c565b602082019050919050565b60006020820190508181036000830152612fd181612f95565b9050919050565b7f4f776e61626c653a206e6577206f776e657220697320746865207a65726f206160008201527f6464726573730000000000000000000000000000000000000000000000000000602082015250565b60006130346026836121af565b915061303f82612fd8565b604082019050919050565b6000602082019050818103600083015261306381613027565b9050919050565b600081905092915050565b60008190508160005260206000209050919050565b6000815461309781612c9d565b6130a1818661306a565b945060018216600081146130bc57600181146130d157613104565b60ff1983168652811515820286019350613104565b6130da85613075565b60005b838110156130fc578154818901526001820191506020810190506130dd565b838801955050505b50505092915050565b6000613118826121a4565b613122818561306a565b93506131328185602086016121c0565b80840191505092915050565b600061314a828561308a565b9150613156828461310d565b91508190509392505050565b7f4f776e61626c653a2063616c6c6572206973206e6f7420746865206f776e6572600082015250565b60006131986020836121af565b91506131a382613162565b602082019050919050565b600060208201905081810360008301526131c78161318b565b9050919050565b7f455243313135353a206d696e7420746f20746865207a65726f2061646472657360008201527f7300000000000000000000000000000000000000000000000000000000000000602082015250565b600061322a6021836121af565b9150613235826131ce565b604082019050919050565b600060208201905081810360008301526132598161321d565b9050919050565b600060408201905061327560008301856120bf565b61328260208301846120bf565b9392505050565b7f455243313135353a2069647320616e6420616d6f756e7473206c656e6774682060008201527f6d69736d61746368000000000000000000000000000000000000000000000000602082015250565b60006132e56028836121af565b91506132f082613289565b604082019050919050565b60006020820190508181036000830152613314816132d8565b9050919050565b7f455243313135353a207472616e7366657220746f20746865207a65726f20616460008201527f6472657373000000000000000000000000000000000000000000000000000000602082015250565b60006133776025836121af565b91506133828261331b565b604082019050919050565b600060208201905081810360008301526133a68161336a565b9050919050565b7f455243313135353a20696e73756666696369656e742062616c616e636520666f60008201527f72207472616e7366657200000000000000000000000000000000000000000000602082015250565b6000613409602a836121af565b9150613414826133ad565b604082019050919050565b60006020820190508181036000830152613438816133fc565b9050919050565b60006040820190508181036000830152613459818561272a565b9050818103602083015261346d818461272a565b90509392505050565b7f455243313135353a2073657474696e6720617070726f76616c2073746174757360008201527f20666f722073656c660000000000000000000000000000000000000000000000602082015250565b60006134d26029836121af565b91506134dd82613476565b604082019050919050565b60006020820190508181036000830152613501816134c5565b9050919050565b7f455243313135353a206275726e2066726f6d20746865207a65726f206164647260008201527f6573730000000000000000000000000000000000000000000000000000000000602082015250565b60006135646023836121af565b915061356f82613508565b604082019050919050565b6000602082019050818103600083015261359381613557565b9050919050565b7f455243313135353a206275726e20616d6f756e7420657863656564732062616c60008201527f616e636500000000000000000000000000000000000000000000000000000000602082015250565b60006135f66024836121af565b91506136018261359a565b604082019050919050565b60006020820190508181036000830152613625816135e9565b9050919050565b60006020601f8301049050919050565b600082821b905092915050565b6000600883026136797fffffffffffffffffffffffffffffffffffffffffffffffffffffffffffffffff8261363c565b613683868361363c565b95508019841693508086168417925050509392505050565b6000819050919050565b60006136c06136bb6136b684612049565b61369b565b612049565b9050919050565b6000819050919050565b6136da836136a5565b6136ee6136e6826136c7565b848454613649565b825550505050565b600090565b6137036136f6565b61370e8184846136d1565b505050565b5b81811015613732576137276000826136fb565b600181019050613714565b5050565b601f8211156137775761374881613075565b6137518461362c565b81016020851015613760578190505b61377461376c8561362c565b830182613713565b50505b505050565b600082821c905092915050565b600061379a6000198460080261377c565b1980831691505092915050565b60006137b38383613789565b9150826002028217905092915050565b6137cc826121a4565b67ffffffffffffffff8111156137e5576137e46122c8565b5b6137ef8254612c9d565b6137fa828285613736565b600060209050601f83116001811461382d576000841561381b578287015190505b61382585826137a7565b86555061388d565b601f19841661383b86613075565b60005b828110156138635784890151825560018201915060208501945060208101905061383e565b86831015613880578489015161387c601f891682613789565b8355505b6001600288020188555050505b505050505050565b600081519050919050565b600082825260208201905092915050565b60006138bc82613895565b6138c681856138a0565b93506138d68185602086016121c0565b6138df816121ea565b840191505092915050565b600060a0820190506138ff60008301886127aa565b61390c60208301876127aa565b61391960408301866120bf565b61392660608301856120bf565b818103608083015261393881846138b1565b90509695505050505050565b60008151905061395381612115565b92915050565b60006020828403121561396f5761396e611fe1565b5b600061397d84828501613944565b91505092915050565b60008160e01c9050919050565b600060033d11156139b25760046000803e6139af600051613986565b90505b90565b600060443d10613a42576139c7611fd7565b60043d036004823e80513d602482011167ffffffffffffffff821117156139ef575050613a42565b808201805167ffffffffffffffff811115613a0d5750505050613a42565b80602083010160043d038501811115613a2a575050505050613a42565b613a39826020018501866122f7565b82955050505050505b90565b7f455243313135353a207472616e7366657220746f206e6f6e2d4552433131353560008201527f526563656976657220696d706c656d656e746572000000000000000000000000602082015250565b6000613aa16034836121af565b9150613aac82613a45565b604082019050919050565b60006020820190508181036000830152613ad081613a94565b9050919050565b7f455243313135353a204552433131353552656365697665722072656a6563746560008201527f6420746f6b656e73000000000000000000000000000000000000000000000000602082015250565b6000613b336028836121af565b9150613b3e82613ad7565b604082019050919050565b60006020820190508181036000830152613b6281613b26565b9050919050565b600060a082019050613b7e60008301886127aa565b613b8b60208301876127aa565b8181036040830152613b9d818661272a565b90508181036060830152613bb1818561272a565b90508181036080830152613bc581846138b1565b9050969550505050505056fea264697066735822122090971ea183cfe0e2b30f97529be6eca1396f8e91d06b083735834d196bcd846564736f6c6343000813003368747470733a2f2f676174657761792e70696e6174612e636c6f75642f69706673",
  "immutableReferences": {},
  "source": "// SPDX-License-Identifier: MIT\r\npragma solidity ^0.8.19;\r\n\r\nimport '../node_modules/@openzeppelin/contracts/token/ERC1155/ERC1155.sol';\r\nimport '../node_modules/@openzeppelin/contracts/token/ERC1155/extensions/ERC1155URIStorage.sol';\r\nimport '../node_modules/@openzeppelin/contracts/access/Ownable.sol';\r\nimport '../node_modules/@openzeppelin/contracts/utils/Counters.sol';\r\n\r\ncontract MintNFT is ERC1155, Ownable, ERC1155URIStorage {\r\n    using Counters for Counters.Counter;\r\n    Counters.Counter private _tokenId;\r\n    string public name;\r\n    string public symbol;\r\n    string private _uri;\r\n\r\n    // address public tokenOwner; //  \r\n    // address public admin; //  \r\n\r\n    constructor(string memory _name, string memory _symbol) ERC1155(_uri) {\r\n        name = _name;\r\n        symbol = _symbol;\r\n        // tokenOwner = msg.sender;\r\n        // admin = address(0);\r\n        _setBaseURI('https://gateway.pinata.cloud/ipfs');\r\n    }\r\n\r\n    mapping(uint256 => uint256) public tokenSupply;\r\n    mapping(uint256 => string) private _tokenURIs;\r\n\r\n    function uri(uint256 tokenId) public view virtual override(ERC1155, ERC1155URIStorage) returns (string memory) {\r\n        return super.uri(tokenId);\r\n    }\r\n\r\n    function mint(address account, uint256 amount, string memory _tokenURI) public onlyOwner {\r\n        // require( msg.sender == tokenOwner || msg.sender == admin, \"Caller is not authorized\" ); //   \r\n        // require(totalSupply + amount <= maxSuply, \"Exceeds maximum supply.\"); //   \r\n        uint256 tokenId = _tokenId.current();\r\n        _tokenId.increment();\r\n\r\n        tokenSupply[tokenId] += amount;\r\n        _setURI(tokenId, _tokenURI);\r\n        _mint(account, tokenId, amount, '');\r\n    }\r\n\r\n    //   \r\n    function addTokenSupply(uint256 tokenId, uint256 amount) public onlyOwner {\r\n        // uint256 newSupply = tokenSupply[tokenId] + amount;\r\n        // require(newSupply >= tokenSupply[tokenId], \"Invalid token supply.\"); // token        \r\n\r\n        tokenSupply[tokenId] += amount;\r\n        _mint(msg.sender, tokenId, amount, '');\r\n    }\r\n\r\n    //   \r\n    function removeTokenSupply(uint256 tokenId, uint256 amount) public {\r\n        tokenSupply[tokenId] -= amount;\r\n        uint256 newSupply = tokenSupply[tokenId];\r\n        require(newSupply >= 0, 'Invalid token supply.'); // token   0    \r\n\r\n        _burn(msg.sender, tokenId, amount);\r\n    }\r\n\r\n    //    mint  \r\n    function mintBatch(\r\n        address[] memory accounts,\r\n        uint256[] memory amounts,\r\n        string[] memory tokenURIs\r\n    ) public onlyOwner {\r\n        require(accounts.length == amounts.length && accounts.length == tokenURIs.length, 'Arrays length mismatch');\r\n\r\n        for (uint256 i = 0; i < accounts.length; i++) {\r\n            mint(accounts[i], amounts[i], tokenURIs[i]);\r\n        }\r\n    }\r\n\r\n    function getNftAmount() public view returns (uint256) {\r\n        uint256 tokenId = uint256(_tokenId.current());\r\n        return tokenId;\r\n    }\r\n}\r\n",
  "sourcePath": "C:\\Users\\user\\Desktop\\Epsilon-Studio\\server\\contracts\\MintNFT.sol",
  "compiler": {
    "name": "solc",
    "version": "0.8.19+commit.7dd6d404.Emscripten.clang"
  },
  "schemaVersion": "3.4.13",
  "updatedAt": "2023-05-01T10:35:14.557Z",
  "devdoc": {
    "events": {
      "ApprovalForAll(address,address,bool)": {
        "details": "Emitted when `account` grants or revokes permission to `operator` to transfer their tokens, according to `approved`."
      },
      "TransferBatch(address,address,address,uint256[],uint256[])": {
        "details": "Equivalent to multiple {TransferSingle} events, where `operator`, `from` and `to` are the same for all transfers."
      },
      "TransferSingle(address,address,address,uint256,uint256)": {
        "details": "Emitted when `value` tokens of token type `id` are transferred from `from` to `to` by `operator`."
      },
      "URI(string,uint256)": {
        "details": "Emitted when the URI for token type `id` changes to `value`, if it is a non-programmatic URI. If an {URI} event was emitted for `id`, the standard https://eips.ethereum.org/EIPS/eip-1155#metadata-extensions[guarantees] that `value` will equal the value returned by {IERC1155MetadataURI-uri}."
      }
    },
    "kind": "dev",
    "methods": {
      "balanceOf(address,uint256)": {
        "details": "See {IERC1155-balanceOf}. Requirements: - `account` cannot be the zero address."
      },
      "balanceOfBatch(address[],uint256[])": {
        "details": "See {IERC1155-balanceOfBatch}. Requirements: - `accounts` and `ids` must have the same length."
      },
      "isApprovedForAll(address,address)": {
        "details": "See {IERC1155-isApprovedForAll}."
      },
      "owner()": {
        "details": "Returns the address of the current owner."
      },
      "renounceOwnership()": {
        "details": "Leaves the contract without owner. It will not be possible to call `onlyOwner` functions anymore. Can only be called by the current owner. NOTE: Renouncing ownership will leave the contract without an owner, thereby removing any functionality that is only available to the owner."
      },
      "safeBatchTransferFrom(address,address,uint256[],uint256[],bytes)": {
        "details": "See {IERC1155-safeBatchTransferFrom}."
      },
      "safeTransferFrom(address,address,uint256,uint256,bytes)": {
        "details": "See {IERC1155-safeTransferFrom}."
      },
      "setApprovalForAll(address,bool)": {
        "details": "See {IERC1155-setApprovalForAll}."
      },
      "supportsInterface(bytes4)": {
        "details": "See {IERC165-supportsInterface}."
      },
      "transferOwnership(address)": {
        "details": "Transfers ownership of the contract to a new account (`newOwner`). Can only be called by the current owner."
      }
    },
    "version": 1
  },
  "userdoc": {
    "kind": "user",
    "methods": {},
    "version": 1
  }
}