{
  "contractName": "StakingNFT",
  "abi": [
    {
      "inputs": [
        {
          "internalType": "address",
          "name": "_HutTokenAddress",
          "type": "address"
        },
        {
          "internalType": "address",
          "name": "_nftAddress",
          "type": "address"
        }
      ],
      "stateMutability": "nonpayable",
      "type": "constructor"
    },
    {
      "anonymous": false,
      "inputs": [
        {
          "indexed": false,
          "internalType": "address",
          "name": "_owner",
          "type": "address"
        },
        {
          "indexed": false,
          "internalType": "uint256",
          "name": "amount",
          "type": "uint256"
        }
      ],
      "name": "Claimed",
      "type": "event"
    },
    {
      "anonymous": false,
      "inputs": [
        {
          "indexed": false,
          "internalType": "address",
          "name": "_owner",
          "type": "address"
        },
        {
          "indexed": false,
          "internalType": "uint256",
          "name": "_tokenId",
          "type": "uint256"
        },
        {
          "indexed": false,
          "internalType": "uint256",
          "name": "_amount",
          "type": "uint256"
        }
      ],
      "name": "NFTStaked",
      "type": "event"
    },
    {
      "anonymous": false,
      "inputs": [
        {
          "indexed": false,
          "internalType": "address",
          "name": "_owner",
          "type": "address"
        },
        {
          "indexed": false,
          "internalType": "uint256",
          "name": "_tokenId",
          "type": "uint256"
        },
        {
          "indexed": false,
          "internalType": "uint256",
          "name": "_amount",
          "type": "uint256"
        }
      ],
      "name": "NFTUnstaked",
      "type": "event"
    },
    {
      "inputs": [],
      "name": "hutToken",
      "outputs": [
        {
          "internalType": "contract HutToken",
          "name": "",
          "type": "address"
        }
      ],
      "stateMutability": "view",
      "type": "function",
      "constant": true
    },
    {
      "inputs": [],
      "name": "nft",
      "outputs": [
        {
          "internalType": "contract WinenwinToken",
          "name": "",
          "type": "address"
        }
      ],
      "stateMutability": "view",
      "type": "function",
      "constant": true
    },
    {
      "inputs": [
        {
          "internalType": "uint256",
          "name": "",
          "type": "uint256"
        }
      ],
      "name": "nftAmount",
      "outputs": [
        {
          "internalType": "uint256",
          "name": "",
          "type": "uint256"
        }
      ],
      "stateMutability": "view",
      "type": "function",
      "constant": true
    },
    {
      "inputs": [
        {
          "internalType": "uint256",
          "name": "",
          "type": "uint256"
        }
      ],
      "name": "stakeList",
      "outputs": [
        {
          "internalType": "address",
          "name": "owner",
          "type": "address"
        },
        {
          "internalType": "uint256",
          "name": "tokenId",
          "type": "uint256"
        },
        {
          "internalType": "uint256",
          "name": "start",
          "type": "uint256"
        },
        {
          "internalType": "uint256",
          "name": "amount",
          "type": "uint256"
        },
        {
          "internalType": "uint256",
          "name": "deadline",
          "type": "uint256"
        },
        {
          "internalType": "uint256",
          "name": "reward",
          "type": "uint256"
        },
        {
          "internalType": "bool",
          "name": "isClaimed",
          "type": "bool"
        }
      ],
      "stateMutability": "view",
      "type": "function",
      "constant": true
    },
    {
      "inputs": [
        {
          "internalType": "uint256",
          "name": "",
          "type": "uint256"
        }
      ],
      "name": "stakePrices",
      "outputs": [
        {
          "internalType": "uint256",
          "name": "",
          "type": "uint256"
        }
      ],
      "stateMutability": "view",
      "type": "function",
      "constant": true
    },
    {
      "inputs": [],
      "name": "totalRewards",
      "outputs": [
        {
          "internalType": "uint256",
          "name": "",
          "type": "uint256"
        }
      ],
      "stateMutability": "view",
      "type": "function",
      "constant": true
    },
    {
      "inputs": [
        {
          "internalType": "uint256",
          "name": "_tokenId",
          "type": "uint256"
        },
        {
          "internalType": "uint256",
          "name": "_amount",
          "type": "uint256"
        },
        {
          "internalType": "uint256",
          "name": "_duration",
          "type": "uint256"
        },
        {
          "internalType": "uint256",
          "name": "_reward",
          "type": "uint256"
        }
      ],
      "name": "staking",
      "outputs": [],
      "stateMutability": "nonpayable",
      "type": "function"
    },
    {
      "inputs": [
        {
          "internalType": "uint256[]",
          "name": "_tokenIds",
          "type": "uint256[]"
        },
        {
          "internalType": "uint256[]",
          "name": "_amounts",
          "type": "uint256[]"
        },
        {
          "internalType": "uint256[]",
          "name": "_durations",
          "type": "uint256[]"
        },
        {
          "internalType": "uint256[]",
          "name": "_rewards",
          "type": "uint256[]"
        }
      ],
      "name": "stakingBatch",
      "outputs": [],
      "stateMutability": "nonpayable",
      "type": "function"
    },
    {
      "inputs": [
        {
          "internalType": "uint256[]",
          "name": "_tokenIds",
          "type": "uint256[]"
        },
        {
          "internalType": "uint256[]",
          "name": "_amounts",
          "type": "uint256[]"
        },
        {
          "internalType": "uint256[]",
          "name": "_durations",
          "type": "uint256[]"
        },
        {
          "internalType": "uint256[]",
          "name": "_rewards",
          "type": "uint256[]"
        }
      ],
      "name": "stakingBatch2",
      "outputs": [],
      "stateMutability": "nonpayable",
      "type": "function"
    },
    {
      "inputs": [
        {
          "internalType": "uint256",
          "name": "_tokenId",
          "type": "uint256"
        },
        {
          "internalType": "uint256",
          "name": "_start",
          "type": "uint256"
        }
      ],
      "name": "unStaking",
      "outputs": [],
      "stateMutability": "nonpayable",
      "type": "function"
    },
    {
      "inputs": [
        {
          "internalType": "uint256",
          "name": "_tokenId",
          "type": "uint256"
        },
        {
          "internalType": "uint256",
          "name": "_start",
          "type": "uint256"
        }
      ],
      "name": "getStakeInfo",
      "outputs": [
        {
          "components": [
            {
              "internalType": "address",
              "name": "owner",
              "type": "address"
            },
            {
              "internalType": "uint256",
              "name": "tokenId",
              "type": "uint256"
            },
            {
              "internalType": "uint256",
              "name": "start",
              "type": "uint256"
            },
            {
              "internalType": "uint256",
              "name": "amount",
              "type": "uint256"
            },
            {
              "internalType": "uint256",
              "name": "deadline",
              "type": "uint256"
            },
            {
              "internalType": "uint256",
              "name": "reward",
              "type": "uint256"
            },
            {
              "internalType": "bool",
              "name": "isClaimed",
              "type": "bool"
            }
          ],
          "internalType": "struct StakingNFT.StakeItem",
          "name": "",
          "type": "tuple"
        }
      ],
      "stateMutability": "view",
      "type": "function",
      "constant": true
    },
    {
      "inputs": [],
      "name": "getHutToken",
      "outputs": [
        {
          "internalType": "uint256",
          "name": "tokenAmount",
          "type": "uint256"
        }
      ],
      "stateMutability": "view",
      "type": "function",
      "constant": true
    },
    {
      "inputs": [],
      "name": "getTotalRewards",
      "outputs": [
        {
          "internalType": "uint256",
          "name": "",
          "type": "uint256"
        }
      ],
      "stateMutability": "view",
      "type": "function",
      "constant": true
    },
    {
      "inputs": [],
      "name": "getStakingList",
      "outputs": [
        {
          "components": [
            {
              "internalType": "address",
              "name": "owner",
              "type": "address"
            },
            {
              "internalType": "uint256",
              "name": "tokenId",
              "type": "uint256"
            },
            {
              "internalType": "uint256",
              "name": "start",
              "type": "uint256"
            },
            {
              "internalType": "uint256",
              "name": "amount",
              "type": "uint256"
            },
            {
              "internalType": "uint256",
              "name": "deadline",
              "type": "uint256"
            },
            {
              "internalType": "uint256",
              "name": "reward",
              "type": "uint256"
            },
            {
              "internalType": "bool",
              "name": "isClaimed",
              "type": "bool"
            }
          ],
          "internalType": "struct StakingNFT.StakeItem[]",
          "name": "",
          "type": "tuple[]"
        }
      ],
      "stateMutability": "view",
      "type": "function",
      "constant": true
    },
    {
      "inputs": [],
      "name": "getTokenListLength",
      "outputs": [
        {
          "internalType": "uint256",
          "name": "",
          "type": "uint256"
        }
      ],
      "stateMutability": "view",
      "type": "function",
      "constant": true
    },
    {
      "inputs": [
        {
          "internalType": "uint256",
          "name": "_stakeListLength",
          "type": "uint256"
        }
      ],
      "name": "getStakeTime",
      "outputs": [
        {
          "internalType": "uint256",
          "name": "",
          "type": "uint256"
        }
      ],
      "stateMutability": "view",
      "type": "function",
      "constant": true
    },
    {
      "inputs": [
        {
          "internalType": "uint256",
          "name": "_stakeListLength",
          "type": "uint256"
        }
      ],
      "name": "getDeadline",
      "outputs": [
        {
          "internalType": "uint256",
          "name": "",
          "type": "uint256"
        }
      ],
      "stateMutability": "view",
      "type": "function",
      "constant": true
    },
    {
      "inputs": [],
      "name": "getOwnerTokenList",
      "outputs": [
        {
          "components": [
            {
              "internalType": "uint256",
              "name": "tokenId",
              "type": "uint256"
            },
            {
              "internalType": "uint256",
              "name": "amount",
              "type": "uint256"
            }
          ],
          "internalType": "struct StakingNFT.NftInfo[]",
          "name": "",
          "type": "tuple[]"
        }
      ],
      "stateMutability": "view",
      "type": "function",
      "constant": true
    },
    {
      "inputs": [
        {
          "internalType": "uint256[]",
          "name": "_tokenIds",
          "type": "uint256[]"
        },
        {
          "internalType": "uint256[]",
          "name": "_startTime",
          "type": "uint256[]"
        }
      ],
      "name": "batchClaim",
      "outputs": [],
      "stateMutability": "nonpayable",
      "type": "function"
    },
    {
      "inputs": [
        {
          "internalType": "address",
          "name": "_account",
          "type": "address"
        }
      ],
      "name": "getBatchReward",
      "outputs": [
        {
          "internalType": "uint256",
          "name": "",
          "type": "uint256"
        }
      ],
      "stateMutability": "view",
      "type": "function",
      "constant": true
    },
    {
      "inputs": [
        {
          "internalType": "address",
          "name": "_account",
          "type": "address"
        }
      ],
      "name": "getBatchRewardLength",
      "outputs": [
        {
          "internalType": "uint256",
          "name": "",
          "type": "uint256"
        }
      ],
      "stateMutability": "view",
      "type": "function",
      "constant": true
    },
    {
      "inputs": [
        {
          "internalType": "address",
          "name": "_account",
          "type": "address"
        }
      ],
      "name": "getBatchClaimList",
      "outputs": [
        {
          "internalType": "uint256[]",
          "name": "",
          "type": "uint256[]"
        }
      ],
      "stateMutability": "view",
      "type": "function",
      "constant": true
    },
    {
      "inputs": [
        {
          "internalType": "address",
          "name": "_account",
          "type": "address"
        }
      ],
      "name": "batchClaim2",
      "outputs": [],
      "stateMutability": "nonpayable",
      "type": "function"
    },
    {
      "inputs": [
        {
          "internalType": "uint256",
          "name": "_tokenId",
          "type": "uint256"
        },
        {
          "internalType": "uint256",
          "name": "_start",
          "type": "uint256"
        }
      ],
      "name": "claimReward",
      "outputs": [],
      "stateMutability": "nonpayable",
      "type": "function"
    },
    {
      "inputs": [],
      "name": "checkBlockTime",
      "outputs": [
        {
          "internalType": "uint256",
          "name": "",
          "type": "uint256"
        }
      ],
      "stateMutability": "view",
      "type": "function",
      "constant": true
    },
    {
      "inputs": [
        {
          "internalType": "address",
          "name": "",
          "type": "address"
        },
        {
          "internalType": "address",
          "name": "",
          "type": "address"
        },
        {
          "internalType": "uint256",
          "name": "",
          "type": "uint256"
        },
        {
          "internalType": "uint256",
          "name": "",
          "type": "uint256"
        },
        {
          "internalType": "bytes",
          "name": "",
          "type": "bytes"
        }
      ],
      "name": "onERC1155Received",
      "outputs": [
        {
          "internalType": "bytes4",
          "name": "",
          "type": "bytes4"
        }
      ],
      "stateMutability": "pure",
      "type": "function",
      "constant": true
    },
    {
      "inputs": [
        {
          "internalType": "address",
          "name": "",
          "type": "address"
        },
        {
          "internalType": "address",
          "name": "",
          "type": "address"
        },
        {
          "internalType": "uint256[]",
          "name": "",
          "type": "uint256[]"
        },
        {
          "internalType": "uint256[]",
          "name": "",
          "type": "uint256[]"
        },
        {
          "internalType": "bytes",
          "name": "",
          "type": "bytes"
        }
      ],
      "name": "onERC1155BatchReceived",
      "outputs": [
        {
          "internalType": "bytes4",
          "name": "",
          "type": "bytes4"
        }
      ],
      "stateMutability": "pure",
      "type": "function",
      "constant": true
    },
    {
      "inputs": [
        {
          "internalType": "bytes4",
          "name": "interfaceID",
          "type": "bytes4"
        }
      ],
      "name": "supportsInterface",
      "outputs": [
        {
          "internalType": "bool",
          "name": "",
          "type": "bool"
        }
      ],
      "stateMutability": "pure",
      "type": "function",
      "constant": true
    }
  ],
  "bytecode": "0x60806040523480156200001157600080fd5b50604051620042e1380380620042e1833981810160405281019062000037919062000133565b600160008190555080600160006101000a81548173ffffffffffffffffffffffffffffffffffffffff021916908373ffffffffffffffffffffffffffffffffffffffff16021790555081600260006101000a81548173ffffffffffffffffffffffffffffffffffffffff021916908373ffffffffffffffffffffffffffffffffffffffff16021790555050506200017a565b600080fd5b600073ffffffffffffffffffffffffffffffffffffffff82169050919050565b6000620000fb82620000ce565b9050919050565b6200010d81620000ee565b81146200011957600080fd5b50565b6000815190506200012d8162000102565b92915050565b600080604083850312156200014d576200014c620000c9565b5b60006200015d858286016200011c565b925050602062000170858286016200011c565b9150509250929050565b614157806200018a6000396000f3fe608060405234801561001057600080fd5b50600436106101c45760003560e01c806360a9f6dc116100f9578063bc197c8111610097578063e627f2db11610071578063e627f2db14610545578063ef6de5d314610563578063f23a6e6114610593578063fcbf5e04146105c3576101c4565b8063bc197c81146104c7578063c93bfa68146104f7578063dafaab1414610515576101c4565b806386bb8f37116100d357806386bb8f37146104555780638f32521014610471578063afb3b8a81461048f578063b4cd09de146104ab576101c4565b806360a9f6dc146103c557806381c8d149146103f55780638286227514610425576101c4565b80633442a1891161016657806347ccca021161014057806347ccca02146103235780634c86259e146103415780635719dd22146103775780635c2f51d014610395576101c4565b80633442a189146102cb5780633450e100146102e957806341d29e1d14610307576101c4565b8063145df612116101a2578063145df61214610233578063180783591461024f5780632b3f7d1c1461026b5780633279725b1461029b576101c4565b806301ffc9a7146101c9578063021527ac146101f95780630e15561a14610215575b600080fd5b6101e360048036038101906101de9190612d10565b6105e1565b6040516101f09190612d58565b60405180910390f35b610213600480360381019061020e9190612da9565b61064b565b005b61021d6109cc565b60405161022a9190612df8565b60405180910390f35b61024d60048036038101906102489190612e78565b6109d2565b005b61026960048036038101906102649190612f61565b610c8f565b005b61028560048036038101906102809190612da9565b611005565b60405161029291906130cf565b60405180910390f35b6102b560048036038101906102b091906130ea565b6111ef565b6040516102c29190612df8565b60405180910390f35b6102d3611207565b6040516102e091906131f5565b60405180910390f35b6102f16114b6565b6040516102fe9190612df8565b60405180910390f35b610321600480360381019061031c9190613217565b6114be565b005b61032b6117de565b60405161033891906132dd565b60405180910390f35b61035b600480360381019061035691906130ea565b611804565b60405161036e9796959493929190613307565b60405180910390f35b61037f611883565b60405161038c9190612df8565b60405180910390f35b6103af60048036038101906103aa91906130ea565b611890565b6040516103bc9190612df8565b60405180910390f35b6103df60048036038101906103da91906133a2565b6118a8565b6040516103ec9190612df8565b60405180910390f35b61040f600480360381019061040a91906130ea565b6119fc565b60405161041c9190612df8565b60405180910390f35b61043f600480360381019061043a91906130ea565b611a37565b60405161044c9190612df8565b60405180910390f35b61046f600480360381019061046a9190612da9565b611a72565b005b610479611d9d565b60405161048691906133f0565b60405180910390f35b6104a960048036038101906104a491906133a2565b611dc3565b005b6104c560048036038101906104c09190612e78565b6122bc565b005b6104e160048036038101906104dc9190613461565b61237b565b6040516104ee919061354c565b60405180910390f35b6104ff612393565b60405161050c91906136a4565b60405180910390f35b61052f600480360381019061052a91906133a2565b6124a7565b60405161053c9190612df8565b60405180910390f35b61054d6125d6565b60405161055a9190612df8565b60405180910390f35b61057d600480360381019061057891906133a2565b6125e0565b60405161058a9190613775565b60405180910390f35b6105ad60048036038101906105a89190613797565b612818565b6040516105ba919061354c565b60405180910390f35b6105cb61282e565b6040516105d89190612df8565b60405180910390f35b60007f4e2312e0000000000000000000000000000000000000000000000000000000007bffffffffffffffffffffffffffffffffffffffffffffffffffffffff1916827bffffffffffffffffffffffffffffffffffffffffffffffffffffffff1916149050919050565b6000600780549050905060005b60078054905081101561075957836007828154811061067a57610679613831565b5b9060005260206000209060070201600101541480156106bd575082600782815481106106a9576106a8613831565b5b906000526020600020906007020160020154145b801561073957503373ffffffffffffffffffffffffffffffffffffffff16600782815481106106ef576106ee613831565b5b906000526020600020906007020160000160009054906101000a900473ffffffffffffffffffffffffffffffffffffffff1673ffffffffffffffffffffffffffffffffffffffff16145b1561074657809150610759565b80806107519061388f565b915050610658565b5060078054905081106107a1576040517f08c379a000000000000000000000000000000000000000000000000000000000815260040161079890613934565b60405180910390fd5b6000600782815481106107b7576107b6613831565b5b90600052602060002090600702016040518060e00160405290816000820160009054906101000a900473ffffffffffffffffffffffffffffffffffffffff1673ffffffffffffffffffffffffffffffffffffffff1673ffffffffffffffffffffffffffffffffffffffff16815260200160018201548152602001600282015481526020016003820154815260200160048201548152602001600582015481526020016006820160009054906101000a900460ff16151515158152505090506000429050816080015181106108c0576040517f08c379a00000000000000000000000000000000000000000000000000000000081526004016108b7906139a0565b60405180910390fd5b600160009054906101000a900473ffffffffffffffffffffffffffffffffffffffff1673ffffffffffffffffffffffffffffffffffffffff1663f242432a3033856020015186606001516040518563ffffffff1660e01b815260040161092994939291906139f7565b600060405180830381600087803b15801561094357600080fd5b505af1158015610957573d6000803e3d6000fd5b505050508160a00151600660008282546109719190613a4f565b925050819055507fc486b9458a8637650d84d262414833a5a457bc91ae86b7da110386c8c3fa255b33836020015184606001516040516109b393929190613a83565b60405180910390a16109c585856128d6565b5050505050565b60065481565b6109da612bd0565b600042905060005b89899050811015610be45760006040518060e001604052803373ffffffffffffffffffffffffffffffffffffffff1681526020018c8c85818110610a2957610a28613831565b5b9050602002013581526020018481526020018a8a85818110610a4e57610a4d613831565b5b905060200201358152602001603c898986818110610a6f57610a6e613831565b5b90506020020135610a809190613aba565b85610a8b9190613afc565b8152602001610abd6064888887818110610aa857610aa7613831565b5b90506020020135612c1f90919063ffffffff16565b81526020016000151581525090506064858584818110610ae057610adf613831565b5b90506020020135610af19190613b5f565b60066000828254610b029190613afc565b92505081905550600781908060018154018082558091505060019003906000526020600020906007020160009091909190915060008201518160000160006101000a81548173ffffffffffffffffffffffffffffffffffffffff021916908373ffffffffffffffffffffffffffffffffffffffff1602179055506020820151816001015560408201518160020155606082015181600301556080820151816004015560a0820151816005015560c08201518160060160006101000a81548160ff0219169083151502179055505050508080610bdc9061388f565b9150506109e2565b50600160009054906101000a900473ffffffffffffffffffffffffffffffffffffffff1673ffffffffffffffffffffffffffffffffffffffff16632eb2c2d633308c8c8c8c6040518763ffffffff1660e01b8152600401610c4a96959493929190613bfa565b600060405180830381600087803b158015610c6457600080fd5b505af1158015610c78573d6000803e3d6000fd5b5050505050610c85612c35565b5050505050505050565b610c97612bd0565b600080600090505b85859050811015610f02576000610ce8878784818110610cc257610cc1613831565b5b90506020020135868685818110610cdc57610cdb613831565b5b90506020020135611005565b90503373ffffffffffffffffffffffffffffffffffffffff16816000015173ffffffffffffffffffffffffffffffffffffffff1614610d5c576040517f08c379a0000000000000000000000000000000000000000000000000000000008152600401610d5390613cb0565b60405180910390fd5b600015158160c00151151514610da7576040517f08c379a0000000000000000000000000000000000000000000000000000000008152600401610d9e90613d1c565b60405180910390fd5b60004290508160800151811015610df3576040517f08c379a0000000000000000000000000000000000000000000000000000000008152600401610dea90613d88565b60405180910390fd5b60018260c00190151590811515815250508160a0015184610e149190613afc565b9350600160009054906101000a900473ffffffffffffffffffffffffffffffffffffffff1673ffffffffffffffffffffffffffffffffffffffff1663f242432a3033856020015186606001516040518563ffffffff1660e01b8152600401610e7f94939291906139f7565b600060405180830381600087803b158015610e9957600080fd5b505af1158015610ead573d6000803e3d6000fd5b50505050610eed888885818110610ec757610ec6613831565b5b90506020020135878786818110610ee157610ee0613831565b5b905060200201356128d6565b50508080610efa9061388f565b915050610c9f565b508060066000828254610f159190613a4f565b92505081905550600260009054906101000a900473ffffffffffffffffffffffffffffffffffffffff1673ffffffffffffffffffffffffffffffffffffffff1663a9059cbb33836040518363ffffffff1660e01b8152600401610f79929190613da8565b6020604051808303816000875af1158015610f98573d6000803e3d6000fd5b505050506040513d601f19601f82011682018060405250810190610fbc9190613dfd565b507fd8138f8a3f377c5259ca548e70e4c2de94f129f5a11036a15b69513cba2b426a3382604051610fee929190613da8565b60405180910390a150610fff612c35565b50505050565b61100d612c3f565b600060078054905011611055576040517f08c379a000000000000000000000000000000000000000000000000000000000815260040161104c90613e76565b60405180910390fd5b60005b6007805490508110156111ad57836007828154811061107a57611079613831565b5b9060005260206000209060070201600101541480156110bd575082600782815481106110a9576110a8613831565b5b906000526020600020906007020160020154145b1561119a57600781815481106110d6576110d5613831565b5b90600052602060002090600702016040518060e00160405290816000820160009054906101000a900473ffffffffffffffffffffffffffffffffffffffff1673ffffffffffffffffffffffffffffffffffffffff1673ffffffffffffffffffffffffffffffffffffffff16815260200160018201548152602001600282015481526020016003820154815260200160048201548152602001600582015481526020016006820160009054906101000a900460ff1615151515815250509150506111e9565b80806111a59061388f565b915050611058565b506040517f08c379a00000000000000000000000000000000000000000000000000000000081526004016111e090613934565b60405180910390fd5b92915050565b60056020528060005260406000206000915090505481565b60606000600160009054906101000a900473ffffffffffffffffffffffffffffffffffffffff1673ffffffffffffffffffffffffffffffffffffffff166376f5e9f16040518163ffffffff1660e01b8152600401602060405180830381865afa158015611278573d6000803e3d6000fd5b505050506040513d601f19601f8201168201806040525081019061129c9190613eab565b905060008167ffffffffffffffff8111156112ba576112b9613ed8565b5b6040519080825280602002602001820160405280156112f357816020015b6112e0612c94565b8152602001906001900390816112d85790505b50905060005b828110156114ad576000600160009054906101000a900473ffffffffffffffffffffffffffffffffffffffff1673ffffffffffffffffffffffffffffffffffffffff1662fdd58e3360018561134e9190613afc565b6040518363ffffffff1660e01b815260040161136b929190613da8565b602060405180830381865afa158015611388573d6000803e3d6000fd5b505050506040513d601f19601f820116820180604052508101906113ac9190613eab565b111561149a5760405180604001604052806001836113ca9190613afc565b8152602001600160009054906101000a900473ffffffffffffffffffffffffffffffffffffffff1673ffffffffffffffffffffffffffffffffffffffff1662fdd58e3360018661141a9190613afc565b6040518363ffffffff1660e01b8152600401611437929190613da8565b602060405180830381865afa158015611454573d6000803e3d6000fd5b505050506040513d601f19601f820116820180604052508101906114789190613eab565b81525082828151811061148e5761148d613831565b5b60200260200101819052505b80806114a59061388f565b9150506112f9565b50809250505090565b600042905090565b6000600160009054906101000a900473ffffffffffffffffffffffffffffffffffffffff1673ffffffffffffffffffffffffffffffffffffffff1662fdd58e33876040518363ffffffff1660e01b815260040161151c929190613da8565b602060405180830381865afa158015611539573d6000803e3d6000fd5b505050506040513d601f19601f8201168201806040525081019061155d9190613eab565b1161159d576040517f08c379a000000000000000000000000000000000000000000000000000000000815260040161159490613f53565b60405180910390fd5b60004290506000603c846115b19190613aba565b826115bc9190613afc565b905060006115d4606485612c1f90919063ffffffff16565b905060006040518060e001604052803373ffffffffffffffffffffffffffffffffffffffff168152602001898152602001858152602001888152602001848152602001838152602001600015158152509050600781908060018154018082558091505060019003906000526020600020906007020160009091909190915060008201518160000160006101000a81548173ffffffffffffffffffffffffffffffffffffffff021916908373ffffffffffffffffffffffffffffffffffffffff1602179055506020820151816001015560408201518160020155606082015181600301556080820151816004015560a0820151816005015560c08201518160060160006101000a81548160ff0219169083151502179055505050600160009054906101000a900473ffffffffffffffffffffffffffffffffffffffff1673ffffffffffffffffffffffffffffffffffffffff1663f242432a33308b8b6040518563ffffffff1660e01b815260040161174e94939291906139f7565b600060405180830381600087803b15801561176857600080fd5b505af115801561177c573d6000803e3d6000fd5b5050505081600660008282546117929190613afc565b925050819055507f36b3725f1783bad4ff05b7f4c077c3aa68eeb23a4d054ba189db4d01ac278d393389896040516117cc93929190613a83565b60405180910390a15050505050505050565b600160009054906101000a900473ffffffffffffffffffffffffffffffffffffffff1681565b6007818154811061181457600080fd5b90600052602060002090600702016000915090508060000160009054906101000a900473ffffffffffffffffffffffffffffffffffffffff16908060010154908060020154908060030154908060040154908060050154908060060160009054906101000a900460ff16905087565b6000600780549050905090565b60046020528060005260406000206000915090505481565b6000806000905060005b6007805490508110156119f2578373ffffffffffffffffffffffffffffffffffffffff16600782815481106118ea576118e9613831565b5b906000526020600020906007020160000160009054906101000a900473ffffffffffffffffffffffffffffffffffffffff1673ffffffffffffffffffffffffffffffffffffffff1614801561196457506007818154811061194e5761194d613831565b5b9060005260206000209060070201600401544210155b80156119a65750600015156007828154811061198357611982613831565b5b906000526020600020906007020160060160009054906101000a900460ff161515145b156119df57600781815481106119bf576119be613831565b5b906000526020600020906007020160050154826119dc9190613afc565b91505b80806119ea9061388f565b9150506118b2565b5080915050919050565b60006007600183611a0d9190613a4f565b81548110611a1e57611a1d613831565b5b9060005260206000209060070201600201549050919050565b60006007600183611a489190613a4f565b81548110611a5957611a58613831565b5b9060005260206000209060070201600401549050919050565b611a7a612bd0565b6000611a868383611005565b90503373ffffffffffffffffffffffffffffffffffffffff16816000015173ffffffffffffffffffffffffffffffffffffffff1614611afa576040517f08c379a0000000000000000000000000000000000000000000000000000000008152600401611af190613cb0565b60405180910390fd5b600015158160c00151151514611b45576040517f08c379a0000000000000000000000000000000000000000000000000000000008152600401611b3c90613d1c565b60405180910390fd5b60004290508160800151811015611b91576040517f08c379a0000000000000000000000000000000000000000000000000000000008152600401611b8890613d88565b60405180910390fd5b60008260a00151905060018360c00190151590811515815250508060066000828254611bbd9190613a4f565b92505081905550600260009054906101000a900473ffffffffffffffffffffffffffffffffffffffff1673ffffffffffffffffffffffffffffffffffffffff1663a9059cbb33836040518363ffffffff1660e01b8152600401611c21929190613da8565b6020604051808303816000875af1158015611c40573d6000803e3d6000fd5b505050506040513d601f19601f82011682018060405250810190611c649190613dfd565b50600160009054906101000a900473ffffffffffffffffffffffffffffffffffffffff1673ffffffffffffffffffffffffffffffffffffffff1663f242432a3033866020015187606001516040518563ffffffff1660e01b8152600401611cce94939291906139f7565b600060405180830381600087803b158015611ce857600080fd5b505af1158015611cfc573d6000803e3d6000fd5b50505050611d12836020015184604001516128d6565b7fd8138f8a3f377c5259ca548e70e4c2de94f129f5a11036a15b69513cba2b426a3382604051611d43929190613da8565b60405180910390a17f36b3725f1783bad4ff05b7f4c077c3aa68eeb23a4d054ba189db4d01ac278d393384602001518560600151604051611d8693929190613a83565b60405180910390a1505050611d99612c35565b5050565b600260009054906101000a900473ffffffffffffffffffffffffffffffffffffffff1681565b611dcb612bd0565b600080611dd7836124a7565b905060008167ffffffffffffffff811115611df557611df4613ed8565b5b604051908082528060200260200182016040528015611e235781602001602082028036833780820191505090505b50905060008267ffffffffffffffff811115611e4257611e41613ed8565b5b604051908082528060200260200182016040528015611e705781602001602082028036833780820191505090505b50905060008367ffffffffffffffff811115611e8f57611e8e613ed8565b5b604051908082528060200260200182016040528015611ebd5781602001602082028036833780820191505090505b5090506000805b6007805490508110156120c7578773ffffffffffffffffffffffffffffffffffffffff1660078281548110611efc57611efb613831565b5b906000526020600020906007020160000160009054906101000a900473ffffffffffffffffffffffffffffffffffffffff1673ffffffffffffffffffffffffffffffffffffffff16148015611f76575060078181548110611f6057611f5f613831565b5b9060005260206000209060070201600401544210155b8015611fb857506000151560078281548110611f9557611f94613831565b5b906000526020600020906007020160060160009054906101000a900460ff161515145b156120b457600061201360078381548110611fd657611fd5613831565b5b90600052602060002090600702016001015460078481548110611ffc57611ffb613831565b5b906000526020600020906007020160020154611005565b90508060a00151886120259190613afc565b975060018160c001901515908115158152505080602001518684815181106120505761204f613831565b5b602002602001018181525050806060015185848151811061207457612073613831565b5b602002602001018181525050806040015184848151811061209857612097613831565b5b60200260200101818152505082806120af9061388f565b935050505b80806120bf9061388f565b915050611ec4565b5060005b85811015612124576121118582815181106120e9576120e8613831565b5b602002602001015184838151811061210457612103613831565b5b60200260200101516128d6565b808061211c9061388f565b9150506120cb565b5085600660008282546121379190613a4f565b92505081905550600160009054906101000a900473ffffffffffffffffffffffffffffffffffffffff1673ffffffffffffffffffffffffffffffffffffffff16632eb2c2d6303387876040518563ffffffff1660e01b815260040161219f9493929190613f73565b600060405180830381600087803b1580156121b957600080fd5b505af11580156121cd573d6000803e3d6000fd5b50505050600260009054906101000a900473ffffffffffffffffffffffffffffffffffffffff1673ffffffffffffffffffffffffffffffffffffffff1663a9059cbb33886040518363ffffffff1660e01b815260040161222e929190613da8565b6020604051808303816000875af115801561224d573d6000803e3d6000fd5b505050506040513d601f19601f820116820180604052508101906122719190613dfd565b507fd8138f8a3f377c5259ca548e70e4c2de94f129f5a11036a15b69513cba2b426a33876040516122a3929190613da8565b60405180910390a15050505050506122b9612c35565b50565b6122c4612bd0565b60005b88889050811015612368576123558989838181106122e8576122e7613831565b5b9050602002013588888481811061230257612301613831565b5b9050602002013587878581811061231c5761231b613831565b5b90506020020135612350606488888881811061233b5761233a613831565b5b90506020020135612c1f90919063ffffffff16565b6114be565b80806123609061388f565b9150506122c7565b50612371612c35565b5050505050505050565b600063bc197c8160e01b905098975050505050505050565b60606000600780549050116123a757600080fd5b6007805480602002602001604051908101604052809291908181526020016000905b8282101561249e57838290600052602060002090600702016040518060e00160405290816000820160009054906101000a900473ffffffffffffffffffffffffffffffffffffffff1673ffffffffffffffffffffffffffffffffffffffff1673ffffffffffffffffffffffffffffffffffffffff16815260200160018201548152602001600282015481526020016003820154815260200160048201548152602001600582015481526020016006820160009054906101000a900460ff161515151581525050815260200190600101906123c9565b50505050905090565b6000806000905060005b6007805490508110156125cc578373ffffffffffffffffffffffffffffffffffffffff16600782815481106124e9576124e8613831565b5b906000526020600020906007020160000160009054906101000a900473ffffffffffffffffffffffffffffffffffffffff1673ffffffffffffffffffffffffffffffffffffffff1614801561256357506007818154811061254d5761254c613831565b5b9060005260206000209060070201600401544210155b80156125a55750600015156007828154811061258257612581613831565b5b906000526020600020906007020160060160009054906101000a900460ff161515145b156125b95781806125b59061388f565b9250505b80806125c49061388f565b9150506124b1565b5080915050919050565b6000600654905090565b6060600060026125ef846124a7565b6125f99190613aba565b67ffffffffffffffff81111561261257612611613ed8565b5b6040519080825280602002602001820160405280156126405781602001602082028036833780820191505090505b5090506000805b60078054905081101561280d578473ffffffffffffffffffffffffffffffffffffffff166007828154811061267f5761267e613831565b5b906000526020600020906007020160000160009054906101000a900473ffffffffffffffffffffffffffffffffffffffff1673ffffffffffffffffffffffffffffffffffffffff161480156126f95750600781815481106126e3576126e2613831565b5b9060005260206000209060070201600401544210155b801561273b5750600015156007828154811061271857612717613831565b5b906000526020600020906007020160060160009054906101000a900460ff161515145b156127fa5760006127966007838154811061275957612758613831565b5b9060005260206000209060070201600101546007848154811061277f5761277e613831565b5b906000526020600020906007020160020154611005565b905080602001518484806127a99061388f565b9550815181106127bc576127bb613831565b5b60200260200101818152505080604001518484806127d99061388f565b9550815181106127ec576127eb613831565b5b602002602001018181525050505b80806128059061388f565b915050612647565b508192505050919050565b600063f23a6e6160e01b90509695505050505050565b600080600260009054906101000a900473ffffffffffffffffffffffffffffffffffffffff1673ffffffffffffffffffffffffffffffffffffffff166370a08231306040518263ffffffff1660e01b815260040161288c9190613fd9565b602060405180830381865afa1580156128a9573d6000803e3d6000fd5b505050506040513d601f19601f820116820180604052508101906128cd9190613eab565b90508091505090565b60005b600780549050811015612b905782600782815481106128fb576128fa613831565b5b90600052602060002090600702016001015414801561293e5750816007828154811061292a57612929613831565b5b906000526020600020906007020160020154145b15612b7d576007818154811061295757612956613831565b5b9060005260206000209060070201600080820160006101000a81549073ffffffffffffffffffffffffffffffffffffffff0219169055600182016000905560028201600090556003820160009055600482016000905560058201600090556006820160006101000a81549060ff02191690555050600760016007805490506129df9190613a4f565b815481106129f0576129ef613831565b5b906000526020600020906007020160078281548110612a1257612a11613831565b5b90600052602060002090600702016000820160009054906101000a900473ffffffffffffffffffffffffffffffffffffffff168160000160006101000a81548173ffffffffffffffffffffffffffffffffffffffff021916908373ffffffffffffffffffffffffffffffffffffffff16021790555060018201548160010155600282015481600201556003820154816003015560048201548160040155600582015481600501556006820160009054906101000a900460ff168160060160006101000a81548160ff0219169083151502179055509050506007805480612afb57612afa613ff4565b5b6001900381819060005260206000209060070201600080820160006101000a81549073ffffffffffffffffffffffffffffffffffffffff0219169055600182016000905560028201600090556003820160009055600482016000905560058201600090556006820160006101000a81549060ff02191690555050905550612bcc565b8080612b889061388f565b9150506128d9565b506040517f08c379a0000000000000000000000000000000000000000000000000000000008152600401612bc390614095565b60405180910390fd5b5050565b600260005403612c15576040517f08c379a0000000000000000000000000000000000000000000000000000000008152600401612c0c90614101565b60405180910390fd5b6002600081905550565b60008183612c2d9190613b5f565b905092915050565b6001600081905550565b6040518060e00160405280600073ffffffffffffffffffffffffffffffffffffffff16815260200160008152602001600081526020016000815260200160008152602001600081526020016000151581525090565b604051806040016040528060008152602001600081525090565b600080fd5b600080fd5b60007fffffffff0000000000000000000000000000000000000000000000000000000082169050919050565b612ced81612cb8565b8114612cf857600080fd5b50565b600081359050612d0a81612ce4565b92915050565b600060208284031215612d2657612d25612cae565b5b6000612d3484828501612cfb565b91505092915050565b60008115159050919050565b612d5281612d3d565b82525050565b6000602082019050612d6d6000830184612d49565b92915050565b6000819050919050565b612d8681612d73565b8114612d9157600080fd5b50565b600081359050612da381612d7d565b92915050565b60008060408385031215612dc057612dbf612cae565b5b6000612dce85828601612d94565b9250506020612ddf85828601612d94565b9150509250929050565b612df281612d73565b82525050565b6000602082019050612e0d6000830184612de9565b92915050565b600080fd5b600080fd5b600080fd5b60008083601f840112612e3857612e37612e13565b5b8235905067ffffffffffffffff811115612e5557612e54612e18565b5b602083019150836020820283011115612e7157612e70612e1d565b5b9250929050565b6000806000806000806000806080898b031215612e9857612e97612cae565b5b600089013567ffffffffffffffff811115612eb657612eb5612cb3565b5b612ec28b828c01612e22565b9850985050602089013567ffffffffffffffff811115612ee557612ee4612cb3565b5b612ef18b828c01612e22565b9650965050604089013567ffffffffffffffff811115612f1457612f13612cb3565b5b612f208b828c01612e22565b9450945050606089013567ffffffffffffffff811115612f4357612f42612cb3565b5b612f4f8b828c01612e22565b92509250509295985092959890939650565b60008060008060408587031215612f7b57612f7a612cae565b5b600085013567ffffffffffffffff811115612f9957612f98612cb3565b5b612fa587828801612e22565b9450945050602085013567ffffffffffffffff811115612fc857612fc7612cb3565b5b612fd487828801612e22565b925092505092959194509250565b600073ffffffffffffffffffffffffffffffffffffffff82169050919050565b600061300d82612fe2565b9050919050565b61301d81613002565b82525050565b61302c81612d73565b82525050565b61303b81612d3d565b82525050565b60e0820160008201516130576000850182613014565b50602082015161306a6020850182613023565b50604082015161307d6040850182613023565b5060608201516130906060850182613023565b5060808201516130a36080850182613023565b5060a08201516130b660a0850182613023565b5060c08201516130c960c0850182613032565b50505050565b600060e0820190506130e46000830184613041565b92915050565b600060208284031215613100576130ff612cae565b5b600061310e84828501612d94565b91505092915050565b600081519050919050565b600082825260208201905092915050565b6000819050602082019050919050565b6040820160008201516131596000850182613023565b50602082015161316c6020850182613023565b50505050565b600061317e8383613143565b60408301905092915050565b6000602082019050919050565b60006131a282613117565b6131ac8185613122565b93506131b783613133565b8060005b838110156131e85781516131cf8882613172565b97506131da8361318a565b9250506001810190506131bb565b5085935050505092915050565b6000602082019050818103600083015261320f8184613197565b905092915050565b6000806000806080858703121561323157613230612cae565b5b600061323f87828801612d94565b945050602061325087828801612d94565b935050604061326187828801612d94565b925050606061327287828801612d94565b91505092959194509250565b6000819050919050565b60006132a361329e61329984612fe2565b61327e565b612fe2565b9050919050565b60006132b582613288565b9050919050565b60006132c7826132aa565b9050919050565b6132d7816132bc565b82525050565b60006020820190506132f260008301846132ce565b92915050565b61330181613002565b82525050565b600060e08201905061331c600083018a6132f8565b6133296020830189612de9565b6133366040830188612de9565b6133436060830187612de9565b6133506080830186612de9565b61335d60a0830185612de9565b61336a60c0830184612d49565b98975050505050505050565b61337f81613002565b811461338a57600080fd5b50565b60008135905061339c81613376565b92915050565b6000602082840312156133b8576133b7612cae565b5b60006133c68482850161338d565b91505092915050565b60006133da826132aa565b9050919050565b6133ea816133cf565b82525050565b600060208201905061340560008301846133e1565b92915050565b60008083601f84011261342157613420612e13565b5b8235905067ffffffffffffffff81111561343e5761343d612e18565b5b60208301915083600182028301111561345a57613459612e1d565b5b9250929050565b60008060008060008060008060a0898b03121561348157613480612cae565b5b600061348f8b828c0161338d565b98505060206134a08b828c0161338d565b975050604089013567ffffffffffffffff8111156134c1576134c0612cb3565b5b6134cd8b828c01612e22565b9650965050606089013567ffffffffffffffff8111156134f0576134ef612cb3565b5b6134fc8b828c01612e22565b9450945050608089013567ffffffffffffffff81111561351f5761351e612cb3565b5b61352b8b828c0161340b565b92509250509295985092959890939650565b61354681612cb8565b82525050565b6000602082019050613561600083018461353d565b92915050565b600081519050919050565b600082825260208201905092915050565b6000819050602082019050919050565b60e0820160008201516135a96000850182613014565b5060208201516135bc6020850182613023565b5060408201516135cf6040850182613023565b5060608201516135e26060850182613023565b5060808201516135f56080850182613023565b5060a082015161360860a0850182613023565b5060c082015161361b60c0850182613032565b50505050565b600061362d8383613593565b60e08301905092915050565b6000602082019050919050565b600061365182613567565b61365b8185613572565b935061366683613583565b8060005b8381101561369757815161367e8882613621565b975061368983613639565b92505060018101905061366a565b5085935050505092915050565b600060208201905081810360008301526136be8184613646565b905092915050565b600081519050919050565b600082825260208201905092915050565b6000819050602082019050919050565b60006136fe8383613023565b60208301905092915050565b6000602082019050919050565b6000613722826136c6565b61372c81856136d1565b9350613737836136e2565b8060005b8381101561376857815161374f88826136f2565b975061375a8361370a565b92505060018101905061373b565b5085935050505092915050565b6000602082019050818103600083015261378f8184613717565b905092915050565b60008060008060008060a087890312156137b4576137b3612cae565b5b60006137c289828a0161338d565b96505060206137d389828a0161338d565b95505060406137e489828a01612d94565b94505060606137f589828a01612d94565b935050608087013567ffffffffffffffff81111561381657613815612cb3565b5b61382289828a0161340b565b92509250509295509295509295565b7f4e487b7100000000000000000000000000000000000000000000000000000000600052603260045260246000fd5b7f4e487b7100000000000000000000000000000000000000000000000000000000600052601160045260246000fd5b600061389a82612d73565b91507fffffffffffffffffffffffffffffffffffffffffffffffffffffffffffffffff82036138cc576138cb613860565b5b600182019050919050565b600082825260208201905092915050565b7f5374616b65206e6f7420666f756e640000000000000000000000000000000000600082015250565b600061391e600f836138d7565b9150613929826138e8565b602082019050919050565b6000602082019050818103600083015261394d81613911565b9050919050565b7f5374616b6520706572696f6420616c726561647920656e646564000000000000600082015250565b600061398a601a836138d7565b915061399582613954565b602082019050919050565b600060208201905081810360008301526139b98161397d565b9050919050565b600082825260208201905092915050565b50565b60006139e16000836139c0565b91506139ec826139d1565b600082019050919050565b600060a082019050613a0c60008301876132f8565b613a1960208301866132f8565b613a266040830185612de9565b613a336060830184612de9565b8181036080830152613a44816139d4565b905095945050505050565b6000613a5a82612d73565b9150613a6583612d73565b9250828203905081811115613a7d57613a7c613860565b5b92915050565b6000606082019050613a9860008301866132f8565b613aa56020830185612de9565b613ab26040830184612de9565b949350505050565b6000613ac582612d73565b9150613ad083612d73565b9250828202613ade81612d73565b91508282048414831517613af557613af4613860565b5b5092915050565b6000613b0782612d73565b9150613b1283612d73565b9250828201905080821115613b2a57613b29613860565b5b92915050565b7f4e487b7100000000000000000000000000000000000000000000000000000000600052601260045260246000fd5b6000613b6a82612d73565b9150613b7583612d73565b925082613b8557613b84613b30565b5b828204905092915050565b600080fd5b82818337505050565b6000613baa83856136d1565b93507f07ffffffffffffffffffffffffffffffffffffffffffffffffffffffffffffff831115613bdd57613bdc613b90565b5b602083029250613bee838584613b95565b82840190509392505050565b600060a082019050613c0f60008301896132f8565b613c1c60208301886132f8565b8181036040830152613c2f818688613b9e565b90508181036060830152613c44818486613b9e565b90508181036080830152613c57816139d4565b9050979650505050505050565b7f4e6f7420746865206f776e6572206f6620746865207374616b65000000000000600082015250565b6000613c9a601a836138d7565b9150613ca582613c64565b602082019050919050565b60006020820190508181036000830152613cc981613c8d565b9050919050565b7f52657761726420616c726561647920636c61696d656400000000000000000000600082015250565b6000613d066016836138d7565b9150613d1182613cd0565b602082019050919050565b60006020820190508181036000830152613d3581613cf9565b9050919050565b7f5374616b6520706572696f6420686173206e6f7420656e646564207965740000600082015250565b6000613d72601e836138d7565b9150613d7d82613d3c565b602082019050919050565b60006020820190508181036000830152613da181613d65565b9050919050565b6000604082019050613dbd60008301856132f8565b613dca6020830184612de9565b9392505050565b613dda81612d3d565b8114613de557600080fd5b50565b600081519050613df781613dd1565b92915050565b600060208284031215613e1357613e12612cae565b5b6000613e2184828501613de8565b91505092915050565b7f4e6f207374616b657320666f756e640000000000000000000000000000000000600082015250565b6000613e60600f836138d7565b9150613e6b82613e2a565b602082019050919050565b60006020820190508181036000830152613e8f81613e53565b9050919050565b600081519050613ea581612d7d565b92915050565b600060208284031215613ec157613ec0612cae565b5b6000613ecf84828501613e96565b91505092915050565b7f4e487b7100000000000000000000000000000000000000000000000000000000600052604160045260246000fd5b7f4e6f7420746865206f776e6572206f6620746865204e46540000000000000000600082015250565b6000613f3d6018836138d7565b9150613f4882613f07565b602082019050919050565b60006020820190508181036000830152613f6c81613f30565b9050919050565b600060a082019050613f8860008301876132f8565b613f9560208301866132f8565b8181036040830152613fa78185613717565b90508181036060830152613fbb8184613717565b90508181036080830152613fce816139d4565b905095945050505050565b6000602082019050613fee60008301846132f8565b92915050565b7f4e487b7100000000000000000000000000000000000000000000000000000000600052603160045260246000fd5b7f5374616b65206e6f7420666f756e6420666f722074686520676976656e20746f60008201527f6b656e2049440000000000000000000000000000000000000000000000000000602082015250565b600061407f6026836138d7565b915061408a82614023565b604082019050919050565b600060208201905081810360008301526140ae81614072565b9050919050565b7f5265656e7472616e637947756172643a207265656e7472616e742063616c6c00600082015250565b60006140eb601f836138d7565b91506140f6826140b5565b602082019050919050565b6000602082019050818103600083015261411a816140de565b905091905056fea2646970667358221220a2567d5b86945854aaf21c070748d472f37df8d2bb34c2f2bdf4610dd15d3ebb64736f6c63430008130033",
  "immutableReferences": {},
  "source": "//SPDX-License-Identifier: MIT\r\npragma solidity ^0.8.19;\r\n\r\nimport '../contracts/HutToken.sol';\r\nimport '../contracts/WinenwinToken.sol';\r\nimport '../node_modules/@openzeppelin/contracts/utils/math/SafeMath.sol';\r\nimport '../node_modules/@openzeppelin/contracts/token/ERC1155/IERC1155Receiver.sol';\r\nimport '../node_modules/@openzeppelin/contracts/security/ReentrancyGuard.sol';\r\n\r\ncontract StakingNFT is IERC1155Receiver, ReentrancyGuard {\r\n    using SafeMath for uint256;\r\n    WinenwinToken public nft;\r\n    HutToken public hutToken;\r\n\r\n    mapping(uint => mapping(address => uint256)) private stakeAmount;\r\n    mapping(uint256 => uint256) public stakePrices;\r\n    mapping(uint256 => uint256) public nftAmount;\r\n\r\n    struct NftInfo {\r\n        uint256 tokenId;\r\n        uint256 amount;\r\n    }\r\n    struct StakeItem {\r\n        address owner;\r\n        uint256 tokenId;\r\n        uint256 start;\r\n        uint256 amount;\r\n        uint256 deadline;\r\n        uint256 reward;\r\n        bool isClaimed;\r\n    }\r\n\r\n    uint256 public totalRewards;\r\n    StakeItem[] public stakeList;\r\n    event NFTStaked(address _owner, uint256 _tokenId, uint _amount);\r\n    event NFTUnstaked(address _owner, uint256 _tokenId, uint _amount);\r\n    event Claimed(address _owner, uint256 amount);\r\n\r\n    constructor(address _HutTokenAddress, address _nftAddress) {\r\n        nft = WinenwinToken(_nftAddress);\r\n        hutToken = HutToken(_HutTokenAddress);\r\n    }\r\n\r\n    function staking(uint256 _tokenId, uint256 _amount, uint256 _duration, uint256 _reward) public {\r\n        require(nft.balanceOf(msg.sender, _tokenId) > 0, 'Not the owner of the NFT');\r\n        uint256 start = block.timestamp;\r\n        uint256 deadline = start + _duration * 1 minutes;\r\n        uint256 reward = _reward.div(100);\r\n        StakeItem memory stake = StakeItem(msg.sender, _tokenId, start, _amount, deadline, reward, false);\r\n        stakeList.push(stake);\r\n        nft.safeTransferFrom(msg.sender, address(this), _tokenId, _amount, '');\r\n        totalRewards += reward;\r\n        emit NFTStaked(msg.sender, _tokenId, _amount);\r\n    }\r\n\r\n    function stakingBatch(\r\n        uint256[] calldata _tokenIds,\r\n        uint256[] calldata _amounts,\r\n        uint256[] calldata _durations,\r\n        uint256[] calldata _rewards\r\n    ) public nonReentrant {\r\n        for (uint256 i = 0; i < _tokenIds.length; i++) {\r\n            staking(_tokenIds[i], _amounts[i], _durations[i], _rewards[i].div(100));\r\n        }\r\n    }\r\n\r\n    function stakingBatch2(\r\n        uint256[] calldata _tokenIds,\r\n        uint256[] calldata _amounts,\r\n        uint256[] calldata _durations,\r\n        uint256[] calldata _rewards\r\n    ) public nonReentrant {\r\n        uint256 start = block.timestamp;\r\n        for (uint256 i = 0; i < _tokenIds.length; i++) {\r\n            StakeItem memory stake = StakeItem(\r\n                msg.sender,\r\n                _tokenIds[i],\r\n                start,\r\n                _amounts[i],\r\n                start + _durations[i] * 1 minutes,\r\n                _rewards[i].div(100),\r\n                false\r\n            );\r\n            totalRewards += _rewards[i] / 100;\r\n            stakeList.push(stake);\r\n        }\r\n        nft.safeBatchTransferFrom(msg.sender, address(this), _tokenIds, _amounts, '');\r\n    }\r\n\r\n    function unStaking(uint256 _tokenId, uint256 _start) public {\r\n        uint256 index = stakeList.length;\r\n        for (uint256 i = 0; i < stakeList.length; i++) {\r\n            if (stakeList[i].tokenId == _tokenId && stakeList[i].start == _start && stakeList[i].owner == msg.sender) {\r\n                index = i;\r\n                break;\r\n            }\r\n        }\r\n        require(index < stakeList.length, 'Stake not found');\r\n        StakeItem memory stake = stakeList[index];\r\n        uint256 elapsed = block.timestamp;\r\n        require(elapsed < stake.deadline, 'Stake period already ended');\r\n\r\n        // Transfer the NFT back to the user\r\n        nft.safeTransferFrom(address(this), msg.sender, stake.tokenId, stake.amount, '');\r\n\r\n        // Update the stakeList and totalRewards\r\n        totalRewards -= stake.reward;\r\n        emit NFTUnstaked(msg.sender, stake.tokenId, stake.amount);\r\n        popStake(_tokenId, _start);\r\n    }\r\n\r\n    function popStake(uint256 _tokenId, uint256 _start) internal {\r\n        for (uint256 i = 0; i < stakeList.length; i++) {\r\n            if (stakeList[i].tokenId == _tokenId && stakeList[i].start == _start) {\r\n                delete stakeList[i];\r\n                stakeList[i] = stakeList[stakeList.length - 1];\r\n                stakeList.pop();\r\n                return;\r\n            }\r\n        }\r\n        revert('Stake not found for the given token ID');\r\n    }\r\n\r\n    function getStakeInfo(uint256 _tokenId, uint256 _start) public view returns (StakeItem memory) {\r\n        require(stakeList.length > 0, 'No stakes found');\r\n        for (uint256 i = 0; i < stakeList.length; i++) {\r\n            if (stakeList[i].tokenId == _tokenId && stakeList[i].start == _start) {\r\n                return stakeList[i];\r\n            }\r\n        }\r\n        revert('Stake not found');\r\n    }\r\n\r\n    function getHutToken() public view returns (uint tokenAmount) {\r\n        uint256 vendorBalance = hutToken.balanceOf(address(this));\r\n        return vendorBalance;\r\n    }\r\n\r\n    function getTotalRewards() public view returns (uint) {\r\n        return totalRewards;\r\n    }\r\n\r\n    function getStakingList() public view returns (StakeItem[] memory) {\r\n        require(stakeList.length > 0);\r\n        return stakeList;\r\n    }\r\n\r\n    function getTokenListLength() public view returns (uint256) {\r\n        return stakeList.length;\r\n    }\r\n\r\n    function getStakeTime(uint256 _stakeListLength) public view returns (uint256) {\r\n        return stakeList[_stakeListLength - 1].start;\r\n    }\r\n\r\n    function getDeadline(uint256 _stakeListLength) public view returns (uint256) {\r\n        return stakeList[_stakeListLength - 1].deadline;\r\n    }\r\n\r\n    function getOwnerTokenList() public view returns (NftInfo[] memory) {\r\n        uint256 balance = nft.getNftAmount(); //  \r\n        NftInfo[] memory list = new NftInfo[](balance);\r\n        for (uint256 i = 0; i < balance; i++) {\r\n            if (nft.balanceOf(msg.sender, i + 1) > 0) {\r\n                list[i] = NftInfo(i + 1, nft.balanceOf(msg.sender, i + 1));\r\n            }\r\n        }\r\n        return list;\r\n    }\r\n\r\n    function batchClaim(uint256[] calldata _tokenIds, uint256[] calldata _startTime) public nonReentrant {\r\n        uint256 tempRewards;\r\n        for (uint i = 0; i < _tokenIds.length; i++) {\r\n            StakeItem memory stake = getStakeInfo(_tokenIds[i], _startTime[i]);\r\n            require(stake.owner == msg.sender, 'Not the owner of the stake');\r\n            require(stake.isClaimed == false, 'Reward already claimed');\r\n            uint256 elapsed = block.timestamp;\r\n            require(elapsed >= stake.deadline, 'Stake period has not ended yet');\r\n            stake.isClaimed = true;\r\n            tempRewards += stake.reward;\r\n            nft.safeTransferFrom(address(this), msg.sender, stake.tokenId, stake.amount, '');\r\n            popStake(_tokenIds[i], _startTime[i]);\r\n        }\r\n        totalRewards -= tempRewards;\r\n        hutToken.transfer(msg.sender, tempRewards);\r\n        emit Claimed(msg.sender, tempRewards);\r\n    }\r\n\r\n    function getBatchReward(address _account) public view returns (uint256) {\r\n        uint256 batchReward = 0;\r\n        for (uint256 i = 0; i < stakeList.length; i++) {\r\n            if (\r\n                stakeList[i].owner == _account &&\r\n                block.timestamp >= stakeList[i].deadline &&\r\n                stakeList[i].isClaimed == false\r\n            ) {\r\n                batchReward += stakeList[i].reward;\r\n            }\r\n        }\r\n        return batchReward;\r\n    }\r\n\r\n    function getBatchRewardLength(address _account) public view returns (uint256) {\r\n        uint256 batchRewardLength = 0;\r\n        for (uint256 i = 0; i < stakeList.length; i++) {\r\n            if (\r\n                stakeList[i].owner == _account &&\r\n                block.timestamp >= stakeList[i].deadline &&\r\n                stakeList[i].isClaimed == false\r\n            ) {\r\n                batchRewardLength++;\r\n            }\r\n        }\r\n        return batchRewardLength;\r\n    }\r\n\r\n    function getBatchClaimList(address _account) public view returns (uint256[] memory) {\r\n        uint256[] memory claimableList = new uint256[](getBatchRewardLength(_account) * 2);\r\n        uint256 j = 0;\r\n        for (uint256 i = 0; i < stakeList.length; i++) {\r\n            if (\r\n                stakeList[i].owner == _account &&\r\n                block.timestamp >= stakeList[i].deadline &&\r\n                stakeList[i].isClaimed == false\r\n            ) {\r\n                StakeItem memory stake = getStakeInfo(stakeList[i].tokenId, stakeList[i].start);\r\n                claimableList[j++] = stake.tokenId;\r\n                claimableList[j++] = stake.start;\r\n            }\r\n        }\r\n        return claimableList;\r\n    }\r\n\r\n    function batchClaim2(address _account) public nonReentrant {\r\n        uint256 tempReward;\r\n        uint256 tempLength = getBatchRewardLength(_account);\r\n        uint256[] memory ids = new uint256[](tempLength);\r\n        uint256[] memory amounts = new uint256[](tempLength);\r\n        uint256[] memory startTimes = new uint256[](tempLength);\r\n        uint256 j = 0;\r\n        for (uint256 i = 0; i < stakeList.length; i++) {\r\n            if (\r\n                stakeList[i].owner == _account &&\r\n                block.timestamp >= stakeList[i].deadline &&\r\n                stakeList[i].isClaimed == false\r\n            ) {\r\n                StakeItem memory stake = getStakeInfo(stakeList[i].tokenId, stakeList[i].start);\r\n                tempReward += stake.reward;\r\n                stake.isClaimed = true;\r\n                ids[j] = stake.tokenId;\r\n                amounts[j] = stake.amount;\r\n                startTimes[j] = stake.start;\r\n                j++;\r\n            }\r\n        }\r\n        for (uint256 i = 0; i < tempLength; i++) {\r\n            popStake(ids[i], startTimes[i]);\r\n        }\r\n        totalRewards -= tempReward;\r\n        nft.safeBatchTransferFrom(address(this), msg.sender, ids, amounts, '');\r\n        hutToken.transfer(msg.sender, tempReward);\r\n        emit Claimed(msg.sender, tempReward);\r\n    }\r\n\r\n    function claimReward(uint256 _tokenId, uint256 _start) public nonReentrant {\r\n        StakeItem memory stake = getStakeInfo(_tokenId, _start);\r\n        require(stake.owner == msg.sender, 'Not the owner of the stake');\r\n        require(stake.isClaimed == false, 'Reward already claimed');\r\n\r\n        uint256 elapsed = block.timestamp;\r\n        require(elapsed >= stake.deadline, 'Stake period has not ended yet');\r\n\r\n        uint256 reward = stake.reward;\r\n        stake.isClaimed = true;\r\n        totalRewards -= reward;\r\n\r\n        hutToken.transfer(msg.sender, reward);\r\n        nft.safeTransferFrom(address(this), msg.sender, stake.tokenId, stake.amount, '');\r\n        popStake(stake.tokenId, stake.start);\r\n        emit Claimed(msg.sender, reward);\r\n        emit NFTStaked(msg.sender, stake.tokenId, stake.amount);\r\n    }\r\n\r\n    function checkBlockTime() public view returns (uint256) {\r\n        return block.timestamp;\r\n    }\r\n\r\n    function onERC1155Received(address, address, uint256, uint256, bytes calldata) public pure returns (bytes4) {\r\n        return this.onERC1155Received.selector;\r\n    }\r\n\r\n    function onERC1155BatchReceived(\r\n        address,\r\n        address,\r\n        uint256[] calldata,\r\n        uint256[] calldata,\r\n        bytes calldata\r\n    ) public pure returns (bytes4) {\r\n        return this.onERC1155BatchReceived.selector;\r\n    }\r\n\r\n    function supportsInterface(bytes4 interfaceID) external pure returns (bool) {\r\n        return interfaceID == type(IERC1155Receiver).interfaceId;\r\n    }\r\n}\r\n",
  "sourcePath": "C:\\Users\\user\\Desktop\\Epsilon-Studio\\server\\contracts\\StakingNFT.sol",
  "compiler": {
    "name": "solc",
    "version": "0.8.19+commit.7dd6d404.Emscripten.clang"
  },
  "schemaVersion": "3.4.13",
  "updatedAt": "2023-05-08T10:43:44.145Z",
  "networkType": "ethereum",
  "devdoc": {
    "kind": "dev",
    "methods": {},
    "version": 1
  },
  "userdoc": {
    "kind": "user",
    "methods": {},
    "version": 1
  }
}