{
  "contractName": "Vendor",
  "abi": [
    {
      "inputs": [
        {
          "internalType": "address",
          "name": "_tokenAddress",
          "type": "address"
        }
      ],
      "stateMutability": "nonpayable",
      "type": "constructor"
    },
    {
      "anonymous": false,
      "inputs": [
        {
          "indexed": false,
          "internalType": "address",
          "name": "buyer",
          "type": "address"
        },
        {
          "indexed": false,
          "internalType": "uint256",
          "name": "amountOfMatic",
          "type": "uint256"
        },
        {
          "indexed": false,
          "internalType": "uint256",
          "name": "amountOfTokens",
          "type": "uint256"
        }
      ],
      "name": "BuyTokens",
      "type": "event"
    },
    {
      "anonymous": false,
      "inputs": [
        {
          "indexed": true,
          "internalType": "address",
          "name": "previousOwner",
          "type": "address"
        },
        {
          "indexed": true,
          "internalType": "address",
          "name": "newOwner",
          "type": "address"
        }
      ],
      "name": "OwnershipTransferred",
      "type": "event"
    },
    {
      "anonymous": false,
      "inputs": [
        {
          "indexed": false,
          "internalType": "address",
          "name": "seller",
          "type": "address"
        },
        {
          "indexed": false,
          "internalType": "uint256",
          "name": "amountofTokens",
          "type": "uint256"
        },
        {
          "indexed": false,
          "internalType": "uint256",
          "name": "amountOfMatic",
          "type": "uint256"
        }
      ],
      "name": "SellTokens",
      "type": "event"
    },
    {
      "inputs": [],
      "name": "hutToken",
      "outputs": [
        {
          "internalType": "contract HutToken",
          "name": "",
          "type": "address"
        }
      ],
      "stateMutability": "view",
      "type": "function"
    },
    {
      "inputs": [],
      "name": "owner",
      "outputs": [
        {
          "internalType": "address",
          "name": "",
          "type": "address"
        }
      ],
      "stateMutability": "view",
      "type": "function"
    },
    {
      "inputs": [],
      "name": "renounceOwnership",
      "outputs": [],
      "stateMutability": "nonpayable",
      "type": "function"
    },
    {
      "inputs": [
        {
          "internalType": "address",
          "name": "newOwner",
          "type": "address"
        }
      ],
      "name": "transferOwnership",
      "outputs": [],
      "stateMutability": "nonpayable",
      "type": "function"
    },
    {
      "inputs": [],
      "name": "getHutToken",
      "outputs": [
        {
          "internalType": "uint256",
          "name": "tokenAmount",
          "type": "uint256"
        }
      ],
      "stateMutability": "view",
      "type": "function"
    },
    {
      "inputs": [
        {
          "internalType": "uint256",
          "name": "_rate",
          "type": "uint256"
        }
      ],
      "name": "buyTokens",
      "outputs": [],
      "stateMutability": "payable",
      "type": "function"
    },
    {
      "inputs": [
        {
          "internalType": "uint256",
          "name": "_tokenAmountToSell",
          "type": "uint256"
        },
        {
          "internalType": "uint256",
          "name": "_rate",
          "type": "uint256"
        }
      ],
      "name": "sellTokens",
      "outputs": [],
      "stateMutability": "nonpayable",
      "type": "function"
    },
    {
      "inputs": [],
      "name": "getBalance",
      "outputs": [
        {
          "internalType": "uint256",
          "name": "",
          "type": "uint256"
        }
      ],
      "stateMutability": "view",
      "type": "function"
    },
    {
      "inputs": [
        {
          "internalType": "uint256",
          "name": "_newFeeRate",
          "type": "uint256"
        }
      ],
      "name": "setFeeRate",
      "outputs": [],
      "stateMutability": "nonpayable",
      "type": "function"
    },
    {
      "inputs": [
        {
          "internalType": "uint256",
          "name": "_amount",
          "type": "uint256"
        }
      ],
      "name": "withdrawEther",
      "outputs": [],
      "stateMutability": "nonpayable",
      "type": "function"
    },
    {
      "inputs": [
        {
          "internalType": "uint256",
          "name": "_amount",
          "type": "uint256"
        }
      ],
      "name": "withdrawHutToken",
      "outputs": [],
      "stateMutability": "nonpayable",
      "type": "function"
    }
  ],
  "bytecode": "0x6080604052600380553480156200001557600080fd5b50604051620021123803806200211283398181016040528101906200003b91906200021a565b6200005b6200004f620000e460201b60201c565b620000ec60201b60201c565b33600260006101000a81548173ffffffffffffffffffffffffffffffffffffffff021916908373ffffffffffffffffffffffffffffffffffffffff16021790555080600160006101000a81548173ffffffffffffffffffffffffffffffffffffffff021916908373ffffffffffffffffffffffffffffffffffffffff160217905550506200024c565b600033905090565b60008060009054906101000a900473ffffffffffffffffffffffffffffffffffffffff169050816000806101000a81548173ffffffffffffffffffffffffffffffffffffffff021916908373ffffffffffffffffffffffffffffffffffffffff1602179055508173ffffffffffffffffffffffffffffffffffffffff168173ffffffffffffffffffffffffffffffffffffffff167f8be0079c531659141344cd1fd0a4f28419497f9722a3daafe3b4186f6b6457e060405160405180910390a35050565b600080fd5b600073ffffffffffffffffffffffffffffffffffffffff82169050919050565b6000620001e282620001b5565b9050919050565b620001f481620001d5565b81146200020057600080fd5b50565b6000815190506200021481620001e9565b92915050565b600060208284031215620002335762000232620001b0565b5b6000620002438482850162000203565b91505092915050565b611eb6806200025c6000396000f3fe60806040526004361061009c5760003560e01c80638da5cb5b116100645780638da5cb5b146101515780638f3252101461017c578063ed9772b6146101a7578063f2fde38b146101d0578063fb1c0c6f146101f9578063fcbf5e04146102225761009c565b806312065fe0146100a15780633610724e146100cc5780633bed33ce146100e857806345596e2e14610111578063715018a61461013a575b600080fd5b3480156100ad57600080fd5b506100b661024d565b6040516100c3919061110a565b60405180910390f35b6100e660048036038101906100e19190611156565b610255565b005b3480156100f457600080fd5b5061010f600480360381019061010a9190611156565b610602565b005b34801561011d57600080fd5b5061013860048036038101906101339190611156565b610741565b005b34801561014657600080fd5b5061014f6107db565b005b34801561015d57600080fd5b506101666107ef565b60405161017391906111c4565b60405180910390f35b34801561018857600080fd5b50610191610818565b60405161019e919061123e565b60405180910390f35b3480156101b357600080fd5b506101ce60048036038101906101c99190611259565b61083e565b005b3480156101dc57600080fd5b506101f760048036038101906101f291906112c5565b610c21565b005b34801561020557600080fd5b50610220600480360381019061021b9190611156565b610ca4565b005b34801561022e57600080fd5b50610237610ed8565b604051610244919061110a565b60405180910390f35b600047905090565b600073ffffffffffffffffffffffffffffffffffffffff163373ffffffffffffffffffffffffffffffffffffffff16036102c4576040517f08c379a00000000000000000000000000000000000000000000000000000000081526004016102bb9061134f565b60405180910390fd5b60003411610307576040517f08c379a00000000000000000000000000000000000000000000000000000000081526004016102fe906113bb565b60405180910390fd5b6000600160009054906101000a900473ffffffffffffffffffffffffffffffffffffffff1673ffffffffffffffffffffffffffffffffffffffff166370a08231306040518263ffffffff1660e01b815260040161036491906111c4565b602060405180830381865afa158015610381573d6000803e3d6000fd5b505050506040513d601f19601f820116820180604052508101906103a591906113f0565b9050600061040260646103f460035460646103c0919061144c565b6103e660646103d88934610f7b90919063ffffffff16565b610f9190919063ffffffff16565b610f7b90919063ffffffff16565b610f9190919063ffffffff16565b9050600061042e606461042060035434610f7b90919063ffffffff16565b610f9190919063ffffffff16565b905081831015610473576040517f08c379a000000000000000000000000000000000000000000000000000000000815260040161046a906114f2565b60405180910390fd5b6000600160009054906101000a900473ffffffffffffffffffffffffffffffffffffffff1673ffffffffffffffffffffffffffffffffffffffff1663a9059cbb33856040518363ffffffff1660e01b81526004016104d2929190611512565b6020604051808303816000875af11580156104f1573d6000803e3d6000fd5b505050506040513d601f19601f820116820180604052508101906105159190611573565b9050600260009054906101000a900473ffffffffffffffffffffffffffffffffffffffff1673ffffffffffffffffffffffffffffffffffffffff166108fc839081150290604051600060405180830381858888f1935050505015801561057f573d6000803e3d6000fd5b50806105c0576040517f08c379a00000000000000000000000000000000000000000000000000000000081526004016105b790611612565b60405180910390fd5b7f0a37b72bb67eee30e09084cf386f8a17817c57f620c3ab95fb25d6a20356ec773334856040516105f393929190611632565b60405180910390a15050505050565b600260009054906101000a900473ffffffffffffffffffffffffffffffffffffffff1673ffffffffffffffffffffffffffffffffffffffff163373ffffffffffffffffffffffffffffffffffffffff1614610692576040517f08c379a0000000000000000000000000000000000000000000000000000000008152600401610689906116db565b60405180910390fd5b804710156106d5576040517f08c379a00000000000000000000000000000000000000000000000000000000081526004016106cc9061176d565b60405180910390fd5b600260009054906101000a900473ffffffffffffffffffffffffffffffffffffffff1673ffffffffffffffffffffffffffffffffffffffff166108fc829081150290604051600060405180830381858888f1935050505015801561073d573d6000803e3d6000fd5b5050565b600260009054906101000a900473ffffffffffffffffffffffffffffffffffffffff1673ffffffffffffffffffffffffffffffffffffffff163373ffffffffffffffffffffffffffffffffffffffff16146107d1576040517f08c379a00000000000000000000000000000000000000000000000000000000081526004016107c8906117d9565b60405180910390fd5b8060038190555050565b6107e3610fa7565b6107ed6000611025565b565b60008060009054906101000a900473ffffffffffffffffffffffffffffffffffffffff16905090565b600160009054906101000a900473ffffffffffffffffffffffffffffffffffffffff1681565b60008211610881576040517f08c379a00000000000000000000000000000000000000000000000000000000081526004016108789061186b565b60405180910390fd5b6000600160009054906101000a900473ffffffffffffffffffffffffffffffffffffffff1673ffffffffffffffffffffffffffffffffffffffff166370a08231336040518263ffffffff1660e01b81526004016108de91906111c4565b602060405180830381865afa1580156108fb573d6000803e3d6000fd5b505050506040513d601f19601f8201168201806040525081019061091f91906113f0565b905082811015610964576040517f08c379a000000000000000000000000000000000000000000000000000000000815260040161095b906118fd565b60405180910390fd5b60006109bf60646109b1600354606461097d919061144c565b6109a36064610995898b610f7b90919063ffffffff16565b610f9190919063ffffffff16565b610f7b90919063ffffffff16565b610f9190919063ffffffff16565b905060008111610a04576040517f08c379a00000000000000000000000000000000000000000000000000000000081526004016109fb9061198f565b60405180910390fd5b600047905081811015610a4c576040517f08c379a0000000000000000000000000000000000000000000000000000000008152600401610a4390611a21565b60405180910390fd5b6000600160009054906101000a900473ffffffffffffffffffffffffffffffffffffffff1673ffffffffffffffffffffffffffffffffffffffff166323b872dd3330896040518463ffffffff1660e01b8152600401610aad93929190611a41565b6020604051808303816000875af1158015610acc573d6000803e3d6000fd5b505050506040513d601f19601f82011682018060405250810190610af09190611573565b905080610b32576040517f08c379a0000000000000000000000000000000000000000000000000000000008152600401610b2990611aea565b60405180910390fd5b3373ffffffffffffffffffffffffffffffffffffffff1683604051610b5690611b3b565b60006040518083038185875af1925050503d8060008114610b93576040519150601f19603f3d011682016040523d82523d6000602084013e610b98565b606091505b50508091505080610bde576040517f08c379a0000000000000000000000000000000000000000000000000000000008152600401610bd590611b9c565b60405180910390fd5b7fa24838acd4af5195a2396965dae5abf54e84e8c19f5698bb966ae64e29994ee5338785604051610c1193929190611632565b60405180910390a1505050505050565b610c29610fa7565b600073ffffffffffffffffffffffffffffffffffffffff168173ffffffffffffffffffffffffffffffffffffffff1603610c98576040517f08c379a0000000000000000000000000000000000000000000000000000000008152600401610c8f90611c2e565b60405180910390fd5b610ca181611025565b50565b600260009054906101000a900473ffffffffffffffffffffffffffffffffffffffff1673ffffffffffffffffffffffffffffffffffffffff163373ffffffffffffffffffffffffffffffffffffffff1614610d34576040517f08c379a0000000000000000000000000000000000000000000000000000000008152600401610d2b90611cc0565b60405180910390fd5b80600160009054906101000a900473ffffffffffffffffffffffffffffffffffffffff1673ffffffffffffffffffffffffffffffffffffffff166370a08231306040518263ffffffff1660e01b8152600401610d9091906111c4565b602060405180830381865afa158015610dad573d6000803e3d6000fd5b505050506040513d601f19601f82011682018060405250810190610dd191906113f0565b1015610e12576040517f08c379a0000000000000000000000000000000000000000000000000000000008152600401610e0990611d52565b60405180910390fd5b600160009054906101000a900473ffffffffffffffffffffffffffffffffffffffff1673ffffffffffffffffffffffffffffffffffffffff1663a9059cbb600260009054906101000a900473ffffffffffffffffffffffffffffffffffffffff16836040518363ffffffff1660e01b8152600401610e91929190611512565b6020604051808303816000875af1158015610eb0573d6000803e3d6000fd5b505050506040513d601f19601f82011682018060405250810190610ed49190611573565b5050565b6000600160009054906101000a900473ffffffffffffffffffffffffffffffffffffffff1673ffffffffffffffffffffffffffffffffffffffff166370a08231306040518263ffffffff1660e01b8152600401610f3591906111c4565b602060405180830381865afa158015610f52573d6000803e3d6000fd5b505050506040513d601f19601f82011682018060405250810190610f7691906113f0565b905090565b60008183610f899190611d72565b905092915050565b60008183610f9f9190611de3565b905092915050565b610faf6110e9565b73ffffffffffffffffffffffffffffffffffffffff16610fcd6107ef565b73ffffffffffffffffffffffffffffffffffffffff1614611023576040517f08c379a000000000000000000000000000000000000000000000000000000000815260040161101a90611e60565b60405180910390fd5b565b60008060009054906101000a900473ffffffffffffffffffffffffffffffffffffffff169050816000806101000a81548173ffffffffffffffffffffffffffffffffffffffff021916908373ffffffffffffffffffffffffffffffffffffffff1602179055508173ffffffffffffffffffffffffffffffffffffffff168173ffffffffffffffffffffffffffffffffffffffff167f8be0079c531659141344cd1fd0a4f28419497f9722a3daafe3b4186f6b6457e060405160405180910390a35050565b600033905090565b6000819050919050565b611104816110f1565b82525050565b600060208201905061111f60008301846110fb565b92915050565b600080fd5b611133816110f1565b811461113e57600080fd5b50565b6000813590506111508161112a565b92915050565b60006020828403121561116c5761116b611125565b5b600061117a84828501611141565b91505092915050565b600073ffffffffffffffffffffffffffffffffffffffff82169050919050565b60006111ae82611183565b9050919050565b6111be816111a3565b82525050565b60006020820190506111d960008301846111b5565b92915050565b6000819050919050565b60006112046111ff6111fa84611183565b6111df565b611183565b9050919050565b6000611216826111e9565b9050919050565b60006112288261120b565b9050919050565b6112388161121d565b82525050565b6000602082019050611253600083018461122f565b92915050565b600080604083850312156112705761126f611125565b5b600061127e85828601611141565b925050602061128f85828601611141565b9150509250929050565b6112a2816111a3565b81146112ad57600080fd5b50565b6000813590506112bf81611299565b92915050565b6000602082840312156112db576112da611125565b5b60006112e9848285016112b0565b91505092915050565b600082825260208201905092915050565b7f53656e64657220616464726573732063616e6e6f74206265207a65726f000000600082015250565b6000611339601d836112f2565b915061134482611303565b602082019050919050565b600060208201905081810360008301526113688161132c565b9050919050565b7f53656e64204d6174696320746f2062757920736f6d6520746f6b656e73000000600082015250565b60006113a5601d836112f2565b91506113b08261136f565b602082019050919050565b600060208201905081810360008301526113d481611398565b9050919050565b6000815190506113ea8161112a565b92915050565b60006020828403121561140657611405611125565b5b6000611414848285016113db565b91505092915050565b7f4e487b7100000000000000000000000000000000000000000000000000000000600052601160045260246000fd5b6000611457826110f1565b9150611462836110f1565b925082820390508181111561147a5761147961141d565b5b92915050565b7f56656e646f7220636f6e747261637420686173206e6f7420656e6f756768207460008201527f6f6b656e7320696e206974732062616c616e6365000000000000000000000000602082015250565b60006114dc6034836112f2565b91506114e782611480565b604082019050919050565b6000602082019050818103600083015261150b816114cf565b9050919050565b600060408201905061152760008301856111b5565b61153460208301846110fb565b9392505050565b60008115159050919050565b6115508161153b565b811461155b57600080fd5b50565b60008151905061156d81611547565b92915050565b60006020828403121561158957611588611125565b5b60006115978482850161155e565b91505092915050565b7f4661696c656420746f207472616e7366657220746f6b656e7320746f2062757960008201527f6572000000000000000000000000000000000000000000000000000000000000602082015250565b60006115fc6022836112f2565b9150611607826115a0565b604082019050919050565b6000602082019050818103600083015261162b816115ef565b9050919050565b600060608201905061164760008301866111b5565b61165460208301856110fb565b61166160408301846110fb565b949350505050565b7f4f6e6c792061646d696e2063616e20776974686472617720457468657220667260008201527f6f6d2074686520636f6e74726163740000000000000000000000000000000000602082015250565b60006116c5602f836112f2565b91506116d082611669565b604082019050919050565b600060208201905081810360008301526116f4816116b8565b9050919050565b7f496e73756666696369656e742045746865722062616c616e636520696e20746860008201527f6520636f6e747261637400000000000000000000000000000000000000000000602082015250565b6000611757602a836112f2565b9150611762826116fb565b604082019050919050565b600060208201905081810360008301526117868161174a565b9050919050565b7f4f6e6c792061646d696e2063616e207365742074686520666565207261746500600082015250565b60006117c3601f836112f2565b91506117ce8261178d565b602082019050919050565b600060208201905081810360008301526117f2816117b6565b9050919050565b7f5370656369667920616e20616d6f756e74206f6620746f6b656e20677265617460008201527f6572207468616e207a65726f0000000000000000000000000000000000000000602082015250565b6000611855602c836112f2565b9150611860826117f9565b604082019050919050565b6000602082019050818103600083015261188481611848565b9050919050565b7f596f75722062616c616e6365206973206c6f776572207468616e20746865206160008201527f6d6f756e74206f6620746f6b656e7320796f752077616e7420746f2073656c6c602082015250565b60006118e76040836112f2565b91506118f28261188b565b604082019050919050565b60006020820190508181036000830152611916816118da565b9050919050565b7f416d6f756e74206f66204d6174696320746f207472616e73666572206d75737460008201527f2062652067726561746572207468616e207a65726f0000000000000000000000602082015250565b60006119796035836112f2565b91506119848261191d565b604082019050919050565b600060208201905081810360008301526119a88161196c565b9050919050565b7f56656e646f7220686173206e6f7420656e6f7567682066756e647320746f206160008201527f6363657074207468652073656c6c207265717565737400000000000000000000602082015250565b6000611a0b6036836112f2565b9150611a16826119af565b604082019050919050565b60006020820190508181036000830152611a3a816119fe565b9050919050565b6000606082019050611a5660008301866111b5565b611a6360208301856111b5565b611a7060408301846110fb565b949350505050565b7f4661696c656420746f207472616e7366657220746f6b656e732066726f6d207560008201527f73657220746f2076656e646f7200000000000000000000000000000000000000602082015250565b6000611ad4602d836112f2565b9150611adf82611a78565b604082019050919050565b60006020820190508181036000830152611b0381611ac7565b9050919050565b600081905092915050565b50565b6000611b25600083611b0a565b9150611b3082611b15565b600082019050919050565b6000611b4682611b18565b9150819050919050565b7f4661696c656420746f2073656e64204d6174696320746f207468652075736572600082015250565b6000611b866020836112f2565b9150611b9182611b50565b602082019050919050565b60006020820190508181036000830152611bb581611b79565b9050919050565b7f4f776e61626c653a206e6577206f776e657220697320746865207a65726f206160008201527f6464726573730000000000000000000000000000000000000000000000000000602082015250565b6000611c186026836112f2565b9150611c2382611bbc565b604082019050919050565b60006020820190508181036000830152611c4781611c0b565b9050919050565b7f4f6e6c792061646d696e2063616e20776974686472617720487574546f6b656e60008201527f2066726f6d2074686520636f6e74726163740000000000000000000000000000602082015250565b6000611caa6032836112f2565b9150611cb582611c4e565b604082019050919050565b60006020820190508181036000830152611cd981611c9d565b9050919050565b7f496e73756666696369656e7420487574546f6b656e2062616c616e636520696e60008201527f2074686520636f6e747261637400000000000000000000000000000000000000602082015250565b6000611d3c602d836112f2565b9150611d4782611ce0565b604082019050919050565b60006020820190508181036000830152611d6b81611d2f565b9050919050565b6000611d7d826110f1565b9150611d88836110f1565b9250828202611d96816110f1565b91508282048414831517611dad57611dac61141d565b5b5092915050565b7f4e487b7100000000000000000000000000000000000000000000000000000000600052601260045260246000fd5b6000611dee826110f1565b9150611df9836110f1565b925082611e0957611e08611db4565b5b828204905092915050565b7f4f776e61626c653a2063616c6c6572206973206e6f7420746865206f776e6572600082015250565b6000611e4a6020836112f2565b9150611e5582611e14565b602082019050919050565b60006020820190508181036000830152611e7981611e3d565b905091905056fea2646970667358221220b6fedea73ed184e836d97fad8f6252a166d003e6b968afe95085b2caefdd01e964736f6c63430008130033",
  "immutableReferences": {},
  "source": "//SPDX-License-Identifier: MIT\r\npragma solidity ^0.8.19;\r\n\r\nimport '../contracts/HutToken.sol';\r\nimport '../node_modules/@openzeppelin/contracts/utils/math/SafeMath.sol';\r\nimport '../node_modules/@openzeppelin/contracts/access/Ownable.sol';\r\n\r\ncontract Vendor is Ownable {\r\n    using SafeMath for uint256;\r\n    HutToken public hutToken;\r\n    event BuyTokens(address buyer, uint256 amountOfMatic, uint256 amountOfTokens);\r\n    event SellTokens(address seller, uint256 amountofTokens, uint256 amountOfMatic);\r\n    address private admin;\r\n    uint256 private feeRate = 3; // \r\n\r\n    constructor(address _tokenAddress) {\r\n        admin = msg.sender;\r\n        hutToken = HutToken(_tokenAddress);\r\n    }\r\n\r\n    function getHutToken() public view returns (uint256 tokenAmount) {\r\n        return hutToken.balanceOf(address(this));\r\n    }\r\n\r\n    function buyTokens(uint256 _rate) public payable {\r\n        require(msg.sender != address(0), 'Sender address cannot be zero');\r\n        require(msg.value > 0, 'Send Matic to buy some tokens');\r\n\r\n        uint256 vendorBalance = hutToken.balanceOf(address(this));\r\n\r\n        uint256 hutTokenAmount = msg.value.mul(_rate).div(100).mul(100 - feeRate).div(100);\r\n        uint256 feeAmount = msg.value.mul(feeRate).div(100);\r\n\r\n        require(vendorBalance >= hutTokenAmount, 'Vendor contract has not enough tokens in its balance');\r\n        bool sent = hutToken.transfer(msg.sender, hutTokenAmount);\r\n        payable(admin).transfer(feeAmount);\r\n        require(sent, 'Failed to transfer tokens to buyer');\r\n        emit BuyTokens(msg.sender, msg.value, hutTokenAmount);\r\n    }\r\n\r\n    function sellTokens(uint256 _tokenAmountToSell, uint256 _rate) public {\r\n        require(_tokenAmountToSell > 0, 'Specify an amount of token greater than zero');\r\n\r\n        uint256 userBalance = hutToken.balanceOf(msg.sender);\r\n        require(userBalance >= _tokenAmountToSell, 'Your balance is lower than the amount of tokens you want to sell');\r\n\r\n        uint256 amountOfMaticToTransfer = _tokenAmountToSell.mul(_rate).div(100).mul(100 - feeRate).div(100);\r\n        require(amountOfMaticToTransfer > 0, 'Amount of Matic to transfer must be greater than zero');\r\n\r\n        uint256 ownerMaticBalance = address(this).balance;\r\n        require(ownerMaticBalance >= amountOfMaticToTransfer, 'Vendor has not enough funds to accept the sell request');\r\n\r\n        bool sent = hutToken.transferFrom(msg.sender, address(this), _tokenAmountToSell);\r\n        require(sent, 'Failed to transfer tokens from user to vendor');\r\n        (sent, ) = msg.sender.call{ value: amountOfMaticToTransfer }('');\r\n        require(sent, 'Failed to send Matic to the user');\r\n        emit SellTokens(msg.sender, _tokenAmountToSell, amountOfMaticToTransfer);\r\n    }\r\n\r\n    function getBalance() public view returns (uint256) {\r\n        return address(this).balance;\r\n    }\r\n\r\n    function setFeeRate(uint256 _newFeeRate) external {\r\n        require(msg.sender == admin, 'Only admin can set the fee rate');\r\n        feeRate = _newFeeRate;\r\n    }\r\n\r\n    function withdrawEther(uint256 _amount) external {\r\n        require(msg.sender == admin, 'Only admin can withdraw Ether from the contract');\r\n        require(address(this).balance >= _amount, 'Insufficient Ether balance in the contract');\r\n        payable(admin).transfer(_amount);\r\n    }\r\n\r\n    function withdrawHutToken(uint256 _amount) external {\r\n        require(msg.sender == admin, 'Only admin can withdraw HutToken from the contract');\r\n        require(hutToken.balanceOf(address(this)) >= _amount, 'Insufficient HutToken balance in the contract');\r\n        hutToken.transfer(admin, _amount);\r\n    }\r\n}\r\n",
  "sourcePath": "C:\\Users\\user\\Desktop\\Epsilon-Studio\\server\\contracts\\Vendor.sol",
  "compiler": {
    "name": "solc",
    "version": "0.8.19+commit.7dd6d404.Emscripten.clang"
  },
  "schemaVersion": "3.4.13",
  "updatedAt": "2023-05-08T10:43:20.644Z",
  "devdoc": {
    "kind": "dev",
    "methods": {
      "owner()": {
        "details": "Returns the address of the current owner."
      },
      "renounceOwnership()": {
        "details": "Leaves the contract without owner. It will not be possible to call `onlyOwner` functions anymore. Can only be called by the current owner. NOTE: Renouncing ownership will leave the contract without an owner, thereby removing any functionality that is only available to the owner."
      },
      "transferOwnership(address)": {
        "details": "Transfers ownership of the contract to a new account (`newOwner`). Can only be called by the current owner."
      }
    },
    "version": 1
  },
  "userdoc": {
    "kind": "user",
    "methods": {},
    "version": 1
  }
}