{
  "contractName": "WinenwinToken",
  "abi": [
    {
      "inputs": [
        {
          "internalType": "address[]",
          "name": "admins_",
          "type": "address[]"
        }
      ],
      "stateMutability": "nonpayable",
      "type": "constructor"
    },
    {
      "anonymous": false,
      "inputs": [
        {
          "indexed": true,
          "internalType": "address",
          "name": "account",
          "type": "address"
        },
        {
          "indexed": true,
          "internalType": "address",
          "name": "operator",
          "type": "address"
        },
        {
          "indexed": false,
          "internalType": "bool",
          "name": "approved",
          "type": "bool"
        }
      ],
      "name": "ApprovalForAll",
      "type": "event"
    },
    {
      "anonymous": false,
      "inputs": [
        {
          "indexed": true,
          "internalType": "address",
          "name": "previousOwner",
          "type": "address"
        },
        {
          "indexed": true,
          "internalType": "address",
          "name": "newOwner",
          "type": "address"
        }
      ],
      "name": "OwnershipTransferred",
      "type": "event"
    },
    {
      "anonymous": false,
      "inputs": [
        {
          "indexed": true,
          "internalType": "address",
          "name": "operator",
          "type": "address"
        },
        {
          "indexed": true,
          "internalType": "address",
          "name": "from",
          "type": "address"
        },
        {
          "indexed": true,
          "internalType": "address",
          "name": "to",
          "type": "address"
        },
        {
          "indexed": false,
          "internalType": "uint256[]",
          "name": "ids",
          "type": "uint256[]"
        },
        {
          "indexed": false,
          "internalType": "uint256[]",
          "name": "values",
          "type": "uint256[]"
        }
      ],
      "name": "TransferBatch",
      "type": "event"
    },
    {
      "anonymous": false,
      "inputs": [
        {
          "indexed": true,
          "internalType": "address",
          "name": "operator",
          "type": "address"
        },
        {
          "indexed": true,
          "internalType": "address",
          "name": "from",
          "type": "address"
        },
        {
          "indexed": true,
          "internalType": "address",
          "name": "to",
          "type": "address"
        },
        {
          "indexed": false,
          "internalType": "uint256",
          "name": "id",
          "type": "uint256"
        },
        {
          "indexed": false,
          "internalType": "uint256",
          "name": "value",
          "type": "uint256"
        }
      ],
      "name": "TransferSingle",
      "type": "event"
    },
    {
      "anonymous": false,
      "inputs": [
        {
          "indexed": false,
          "internalType": "string",
          "name": "value",
          "type": "string"
        },
        {
          "indexed": true,
          "internalType": "uint256",
          "name": "id",
          "type": "uint256"
        }
      ],
      "name": "URI",
      "type": "event"
    },
    {
      "inputs": [
        {
          "internalType": "address",
          "name": "account",
          "type": "address"
        },
        {
          "internalType": "uint256",
          "name": "id",
          "type": "uint256"
        }
      ],
      "name": "balanceOf",
      "outputs": [
        {
          "internalType": "uint256",
          "name": "",
          "type": "uint256"
        }
      ],
      "stateMutability": "view",
      "type": "function"
    },
    {
      "inputs": [
        {
          "internalType": "address[]",
          "name": "accounts",
          "type": "address[]"
        },
        {
          "internalType": "uint256[]",
          "name": "ids",
          "type": "uint256[]"
        }
      ],
      "name": "balanceOfBatch",
      "outputs": [
        {
          "internalType": "uint256[]",
          "name": "",
          "type": "uint256[]"
        }
      ],
      "stateMutability": "view",
      "type": "function"
    },
    {
      "inputs": [
        {
          "internalType": "address",
          "name": "account",
          "type": "address"
        },
        {
          "internalType": "address",
          "name": "operator",
          "type": "address"
        }
      ],
      "name": "isApprovedForAll",
      "outputs": [
        {
          "internalType": "bool",
          "name": "",
          "type": "bool"
        }
      ],
      "stateMutability": "view",
      "type": "function"
    },
    {
      "inputs": [],
      "name": "name",
      "outputs": [
        {
          "internalType": "string",
          "name": "",
          "type": "string"
        }
      ],
      "stateMutability": "view",
      "type": "function"
    },
    {
      "inputs": [],
      "name": "owner",
      "outputs": [
        {
          "internalType": "address",
          "name": "",
          "type": "address"
        }
      ],
      "stateMutability": "view",
      "type": "function"
    },
    {
      "inputs": [],
      "name": "renounceOwnership",
      "outputs": [],
      "stateMutability": "nonpayable",
      "type": "function"
    },
    {
      "inputs": [
        {
          "internalType": "address",
          "name": "from",
          "type": "address"
        },
        {
          "internalType": "address",
          "name": "to",
          "type": "address"
        },
        {
          "internalType": "uint256[]",
          "name": "ids",
          "type": "uint256[]"
        },
        {
          "internalType": "uint256[]",
          "name": "amounts",
          "type": "uint256[]"
        },
        {
          "internalType": "bytes",
          "name": "data",
          "type": "bytes"
        }
      ],
      "name": "safeBatchTransferFrom",
      "outputs": [],
      "stateMutability": "nonpayable",
      "type": "function"
    },
    {
      "inputs": [
        {
          "internalType": "address",
          "name": "from",
          "type": "address"
        },
        {
          "internalType": "address",
          "name": "to",
          "type": "address"
        },
        {
          "internalType": "uint256",
          "name": "id",
          "type": "uint256"
        },
        {
          "internalType": "uint256",
          "name": "amount",
          "type": "uint256"
        },
        {
          "internalType": "bytes",
          "name": "data",
          "type": "bytes"
        }
      ],
      "name": "safeTransferFrom",
      "outputs": [],
      "stateMutability": "nonpayable",
      "type": "function"
    },
    {
      "inputs": [
        {
          "internalType": "address",
          "name": "operator",
          "type": "address"
        },
        {
          "internalType": "bool",
          "name": "approved",
          "type": "bool"
        }
      ],
      "name": "setApprovalForAll",
      "outputs": [],
      "stateMutability": "nonpayable",
      "type": "function"
    },
    {
      "inputs": [
        {
          "internalType": "bytes4",
          "name": "interfaceId",
          "type": "bytes4"
        }
      ],
      "name": "supportsInterface",
      "outputs": [
        {
          "internalType": "bool",
          "name": "",
          "type": "bool"
        }
      ],
      "stateMutability": "view",
      "type": "function"
    },
    {
      "inputs": [],
      "name": "symbol",
      "outputs": [
        {
          "internalType": "string",
          "name": "",
          "type": "string"
        }
      ],
      "stateMutability": "view",
      "type": "function"
    },
    {
      "inputs": [
        {
          "internalType": "uint256",
          "name": "",
          "type": "uint256"
        }
      ],
      "name": "tokenSupply",
      "outputs": [
        {
          "internalType": "uint256",
          "name": "",
          "type": "uint256"
        }
      ],
      "stateMutability": "view",
      "type": "function"
    },
    {
      "inputs": [
        {
          "internalType": "address",
          "name": "newOwner",
          "type": "address"
        }
      ],
      "name": "transferOwnership",
      "outputs": [],
      "stateMutability": "nonpayable",
      "type": "function"
    },
    {
      "inputs": [
        {
          "internalType": "uint256",
          "name": "tokenId",
          "type": "uint256"
        }
      ],
      "name": "uri",
      "outputs": [
        {
          "internalType": "string",
          "name": "",
          "type": "string"
        }
      ],
      "stateMutability": "view",
      "type": "function"
    },
    {
      "inputs": [
        {
          "internalType": "address",
          "name": "account",
          "type": "address"
        },
        {
          "internalType": "uint256",
          "name": "amount",
          "type": "uint256"
        },
        {
          "internalType": "string",
          "name": "_tokenURI",
          "type": "string"
        }
      ],
      "name": "mint",
      "outputs": [],
      "stateMutability": "nonpayable",
      "type": "function"
    },
    {
      "inputs": [
        {
          "internalType": "uint256",
          "name": "tokenId",
          "type": "uint256"
        },
        {
          "internalType": "uint256",
          "name": "amount",
          "type": "uint256"
        }
      ],
      "name": "addTokenSupply",
      "outputs": [],
      "stateMutability": "nonpayable",
      "type": "function"
    },
    {
      "inputs": [
        {
          "internalType": "uint256",
          "name": "tokenId",
          "type": "uint256"
        },
        {
          "internalType": "uint256",
          "name": "amount",
          "type": "uint256"
        }
      ],
      "name": "removeTokenSupply",
      "outputs": [],
      "stateMutability": "nonpayable",
      "type": "function"
    },
    {
      "inputs": [
        {
          "internalType": "address[]",
          "name": "accounts",
          "type": "address[]"
        },
        {
          "internalType": "uint256[]",
          "name": "amounts",
          "type": "uint256[]"
        },
        {
          "internalType": "string[]",
          "name": "tokenURIs",
          "type": "string[]"
        }
      ],
      "name": "mintBatch",
      "outputs": [],
      "stateMutability": "nonpayable",
      "type": "function"
    },
    {
      "inputs": [
        {
          "internalType": "address",
          "name": "account",
          "type": "address"
        }
      ],
      "name": "isAdmin",
      "outputs": [
        {
          "internalType": "bool",
          "name": "",
          "type": "bool"
        }
      ],
      "stateMutability": "view",
      "type": "function"
    },
    {
      "inputs": [],
      "name": "getNftAmount",
      "outputs": [
        {
          "internalType": "uint256",
          "name": "",
          "type": "uint256"
        }
      ],
      "stateMutability": "view",
      "type": "function"
    },
    {
      "inputs": [],
      "name": "getOwners",
      "outputs": [
        {
          "internalType": "address[]",
          "name": "",
          "type": "address[]"
        }
      ],
      "stateMutability": "view",
      "type": "function"
    }
  ],
  "bytecode": "0x6080604052604051806020016040528060008152506004908162000024919062000564565b503480156200003257600080fd5b50604051620047c1380380620047c183398181016040528101906200005891906200080a565b60078054620000679062000353565b80601f0160208091040260200160405190810160405280929190818152602001828054620000959062000353565b8015620000e65780601f10620000ba57610100808354040283529160200191620000e6565b820191906000526020600020905b815481529060010190602001808311620000c857829003601f168201915b5050505050620000fc81620001f260201b60201c565b506200011d620001116200020760201b60201c565b6200020f60201b60201c565b620001476040518060600160405280602281526020016200479f60229139620002d560201b60201c565b60005b8151811015620001ea5760088282815181106200016c576200016b6200085b565b5b60200260200101519080600181540180825580915050600190039060005260206000200160009091909190916101000a81548173ffffffffffffffffffffffffffffffffffffffff021916908373ffffffffffffffffffffffffffffffffffffffff1602179055508080620001e190620008b9565b9150506200014a565b505062000906565b806002908162000203919062000564565b5050565b600033905090565b6000600360009054906101000a900473ffffffffffffffffffffffffffffffffffffffff16905081600360006101000a81548173ffffffffffffffffffffffffffffffffffffffff021916908373ffffffffffffffffffffffffffffffffffffffff1602179055508173ffffffffffffffffffffffffffffffffffffffff168173ffffffffffffffffffffffffffffffffffffffff167f8be0079c531659141344cd1fd0a4f28419497f9722a3daafe3b4186f6b6457e060405160405180910390a35050565b8060049081620002e6919062000564565b5050565b600081519050919050565b7f4e487b7100000000000000000000000000000000000000000000000000000000600052604160045260246000fd5b7f4e487b7100000000000000000000000000000000000000000000000000000000600052602260045260246000fd5b600060028204905060018216806200036c57607f821691505b60208210810362000382576200038162000324565b5b50919050565b60008190508160005260206000209050919050565b60006020601f8301049050919050565b600082821b905092915050565b600060088302620003ec7fffffffffffffffffffffffffffffffffffffffffffffffffffffffffffffffff82620003ad565b620003f88683620003ad565b95508019841693508086168417925050509392505050565b6000819050919050565b6000819050919050565b6000620004456200043f620004398462000410565b6200041a565b62000410565b9050919050565b6000819050919050565b620004618362000424565b6200047962000470826200044c565b848454620003ba565b825550505050565b600090565b6200049062000481565b6200049d81848462000456565b505050565b5b81811015620004c557620004b960008262000486565b600181019050620004a3565b5050565b601f8211156200051457620004de8162000388565b620004e9846200039d565b81016020851015620004f9578190505b6200051162000508856200039d565b830182620004a2565b50505b505050565b600082821c905092915050565b6000620005396000198460080262000519565b1980831691505092915050565b600062000554838362000526565b9150826002028217905092915050565b6200056f82620002ea565b67ffffffffffffffff8111156200058b576200058a620002f5565b5b62000597825462000353565b620005a4828285620004c9565b600060209050601f831160018114620005dc5760008415620005c7578287015190505b620005d3858262000546565b86555062000643565b601f198416620005ec8662000388565b60005b828110156200061657848901518255600182019150602085019450602081019050620005ef565b8683101562000636578489015162000632601f89168262000526565b8355505b6001600288020188555050505b505050505050565b6000604051905090565b600080fd5b600080fd5b600080fd5b6000601f19601f8301169050919050565b620006808262000664565b810181811067ffffffffffffffff82111715620006a257620006a1620002f5565b5b80604052505050565b6000620006b76200064b565b9050620006c5828262000675565b919050565b600067ffffffffffffffff821115620006e857620006e7620002f5565b5b602082029050602081019050919050565b600080fd5b600073ffffffffffffffffffffffffffffffffffffffff82169050919050565b60006200072b82620006fe565b9050919050565b6200073d816200071e565b81146200074957600080fd5b50565b6000815190506200075d8162000732565b92915050565b60006200077a6200077484620006ca565b620006ab565b90508083825260208201905060208402830185811115620007a0576200079f620006f9565b5b835b81811015620007cd5780620007b888826200074c565b845260208401935050602081019050620007a2565b5050509392505050565b600082601f830112620007ef57620007ee6200065f565b5b81516200080184826020860162000763565b91505092915050565b60006020828403121562000823576200082262000655565b5b600082015167ffffffffffffffff8111156200084457620008436200065a565b5b6200085284828501620007d7565b91505092915050565b7f4e487b7100000000000000000000000000000000000000000000000000000000600052603260045260246000fd5b7f4e487b7100000000000000000000000000000000000000000000000000000000600052601160045260246000fd5b6000620008c68262000410565b91507fffffffffffffffffffffffffffffffffffffffffffffffffffffffffffffffff8203620008fb57620008fa6200088a565b5b600182019050919050565b613e8980620009166000396000f3fe608060405234801561001057600080fd5b50600436106101365760003560e01c806376f5e9f1116100b8578063a22cb4651161007c578063a22cb4651461034f578063aaa283611461036b578063d3fc986414610387578063e985e9c5146103a3578063f242432a146103d3578063f2fde38b146103ef57610136565b806376f5e9f1146102bb5780638da5cb5b146102d957806392315df7146102f757806395d89b4114610313578063a0e67e2b1461033157610136565b806324d7806c116100ff57806324d7806c146102055780632693ebf2146102355780632eb2c2d6146102655780634e1273f414610281578063715018a6146102b157610136565b8062fdd58e1461013b57806301ffc9a71461016b57806306fdde031461019b5780630e89341c146101b957806323e96247146101e9575b600080fd5b610155600480360381019061015091906121b5565b61040b565b6040516101629190612204565b60405180910390f35b61018560048036038101906101809190612277565b6104d3565b60405161019291906122bf565b60405180910390f35b6101a36105b5565b6040516101b0919061236a565b60405180910390f35b6101d360048036038101906101ce919061238c565b6105ee565b6040516101e0919061236a565b60405180910390f35b61020360048036038101906101fe91906123b9565b610600565b005b61021f600480360381019061021a91906123f9565b610651565b60405161022c91906122bf565b60405180910390f35b61024f600480360381019061024a919061238c565b6106ff565b60405161025c9190612204565b60405180910390f35b61027f600480360381019061027a9190612623565b610717565b005b61029b600480360381019061029691906127b5565b6107b8565b6040516102a891906128eb565b60405180910390f35b6102b96108d1565b005b6102c36108e5565b6040516102d09190612204565b60405180910390f35b6102e16108fb565b6040516102ee919061291c565b60405180910390f35b610311600480360381019061030c9190612ab9565b610925565b005b61031b6109f4565b604051610328919061236a565b60405180910390f35b610339610a2d565b6040516103469190612c1e565b60405180910390f35b61036960048036038101906103649190612c6c565b610ac3565b005b610385600480360381019061038091906123b9565b610ad9565b005b6103a1600480360381019061039c9190612cac565b610b6f565b005b6103bd60048036038101906103b89190612d1b565b610c24565b6040516103ca91906122bf565b60405180910390f35b6103ed60048036038101906103e89190612d5b565b610cb8565b005b610409600480360381019061040491906123f9565b610d59565b005b60008073ffffffffffffffffffffffffffffffffffffffff168373ffffffffffffffffffffffffffffffffffffffff160361047b576040517f08c379a000000000000000000000000000000000000000000000000000000000815260040161047290612e64565b60405180910390fd5b60008083815260200190815260200160002060008473ffffffffffffffffffffffffffffffffffffffff1673ffffffffffffffffffffffffffffffffffffffff16815260200190815260200160002054905092915050565b60007fd9b67a26000000000000000000000000000000000000000000000000000000007bffffffffffffffffffffffffffffffffffffffffffffffffffffffff1916827bffffffffffffffffffffffffffffffffffffffffffffffffffffffff1916148061059e57507f0e89341c000000000000000000000000000000000000000000000000000000007bffffffffffffffffffffffffffffffffffffffffffffffffffffffff1916827bffffffffffffffffffffffffffffffffffffffffffffffffffffffff1916145b806105ae57506105ad82610ddc565b5b9050919050565b6040518060400160405280600881526020017f77696e656e77696e00000000000000000000000000000000000000000000000081525081565b60606105f982610e46565b9050919050565b610608610f2b565b8060096000848152602001908152602001600020600082825461062b9190612eb3565b9250508190555061064d33838360405180602001604052806000815250610fa9565b5050565b600080600090505b6008805490508110156106f4578273ffffffffffffffffffffffffffffffffffffffff166008828154811061069157610690612ee7565b5b9060005260206000200160009054906101000a900473ffffffffffffffffffffffffffffffffffffffff1673ffffffffffffffffffffffffffffffffffffffff16036106e15760019150506106fa565b80806106ec90612f16565b915050610659565b50600090505b919050565b60096020528060005260406000206000915090505481565b61071f611159565b73ffffffffffffffffffffffffffffffffffffffff168573ffffffffffffffffffffffffffffffffffffffff16148061076557506107648561075f611159565b610c24565b5b6107a4576040517f08c379a000000000000000000000000000000000000000000000000000000000815260040161079b90612fd0565b60405180910390fd5b6107b18585858585611161565b5050505050565b606081518351146107fe576040517f08c379a00000000000000000000000000000000000000000000000000000000081526004016107f590613062565b60405180910390fd5b6000835167ffffffffffffffff81111561081b5761081a61242b565b5b6040519080825280602002602001820160405280156108495781602001602082028036833780820191505090505b50905060005b84518110156108c65761089685828151811061086e5761086d612ee7565b5b602002602001015185838151811061088957610888612ee7565b5b602002602001015161040b565b8282815181106108a9576108a8612ee7565b5b602002602001018181525050806108bf90612f16565b905061084f565b508091505092915050565b6108d9610f2b565b6108e36000611482565b565b6000806108f26006611548565b90508091505090565b6000600360009054906101000a900473ffffffffffffffffffffffffffffffffffffffff16905090565b81518351148015610937575080518351145b610976576040517f08c379a000000000000000000000000000000000000000000000000000000000815260040161096d906130ce565b60405180910390fd5b60005b83518110156109ee576109db84828151811061099857610997612ee7565b5b60200260200101518483815181106109b3576109b2612ee7565b5b60200260200101518484815181106109ce576109cd612ee7565b5b6020026020010151610b6f565b80806109e690612f16565b915050610979565b50505050565b6040518060400160405280600381526020017f57494e000000000000000000000000000000000000000000000000000000000081525081565b6060610a37610f2b565b6008805480602002602001604051908101604052809291908181526020018280548015610ab957602002820191906000526020600020905b8160009054906101000a900473ffffffffffffffffffffffffffffffffffffffff1673ffffffffffffffffffffffffffffffffffffffff1681526020019060010190808311610a6f575b5050505050905090565b610ad5610ace611159565b8383611556565b5050565b80600960008481526020019081526020016000206000828254610afc91906130ee565b925050819055506000600960008481526020019081526020016000205490506000811015610b5f576040517f08c379a0000000000000000000000000000000000000000000000000000000008152600401610b569061316e565b60405180910390fd5b610b6a3384846116c2565b505050565b610b7833610651565b610bb7576040517f08c379a0000000000000000000000000000000000000000000000000000000008152600401610bae906131da565b60405180910390fd5b610bc16006611908565b6000610bcd6006611548565b905082600960008381526020019081526020016000206000828254610bf29190612eb3565b92505081905550610c03818361191e565b610c1e84828560405180602001604052806000815250610fa9565b50505050565b6000600160008473ffffffffffffffffffffffffffffffffffffffff1673ffffffffffffffffffffffffffffffffffffffff16815260200190815260200160002060008373ffffffffffffffffffffffffffffffffffffffff1673ffffffffffffffffffffffffffffffffffffffff16815260200190815260200160002060009054906101000a900460ff16905092915050565b610cc0611159565b73ffffffffffffffffffffffffffffffffffffffff168573ffffffffffffffffffffffffffffffffffffffff161480610d065750610d0585610d00611159565b610c24565b5b610d45576040517f08c379a0000000000000000000000000000000000000000000000000000000008152600401610d3c90612fd0565b60405180910390fd5b610d528585858585611983565b5050505050565b610d61610f2b565b600073ffffffffffffffffffffffffffffffffffffffff168173ffffffffffffffffffffffffffffffffffffffff1603610dd0576040517f08c379a0000000000000000000000000000000000000000000000000000000008152600401610dc79061326c565b60405180910390fd5b610dd981611482565b50565b60007f01ffc9a7000000000000000000000000000000000000000000000000000000007bffffffffffffffffffffffffffffffffffffffffffffffffffffffff1916827bffffffffffffffffffffffffffffffffffffffffffffffffffffffff1916149050919050565b60606000600560008481526020019081526020016000208054610e68906132bb565b80601f0160208091040260200160405190810160405280929190818152602001828054610e94906132bb565b8015610ee15780601f10610eb657610100808354040283529160200191610ee1565b820191906000526020600020905b815481529060010190602001808311610ec457829003601f168201915b505050505090506000815111610eff57610efa83611c1e565b610f23565b600481604051602001610f139291906133c0565b6040516020818303038152906040525b915050919050565b610f33611159565b73ffffffffffffffffffffffffffffffffffffffff16610f516108fb565b73ffffffffffffffffffffffffffffffffffffffff1614610fa7576040517f08c379a0000000000000000000000000000000000000000000000000000000008152600401610f9e90613430565b60405180910390fd5b565b600073ffffffffffffffffffffffffffffffffffffffff168473ffffffffffffffffffffffffffffffffffffffff1603611018576040517f08c379a000000000000000000000000000000000000000000000000000000000815260040161100f906134c2565b60405180910390fd5b6000611022611159565b9050600061102f85611cb2565b9050600061103c85611cb2565b905061104d83600089858589611d2c565b8460008088815260200190815260200160002060008973ffffffffffffffffffffffffffffffffffffffff1673ffffffffffffffffffffffffffffffffffffffff16815260200190815260200160002060008282546110ac9190612eb3565b925050819055508673ffffffffffffffffffffffffffffffffffffffff16600073ffffffffffffffffffffffffffffffffffffffff168473ffffffffffffffffffffffffffffffffffffffff167fc3d58168c5ae7397731d063d5bbf3d657854427343f4c083240f7aacaa2d0f62898960405161112a9291906134e2565b60405180910390a461114183600089858589611d34565b61115083600089898989611d3c565b50505050505050565b600033905090565b81518351146111a5576040517f08c379a000000000000000000000000000000000000000000000000000000000815260040161119c9061357d565b60405180910390fd5b600073ffffffffffffffffffffffffffffffffffffffff168473ffffffffffffffffffffffffffffffffffffffff1603611214576040517f08c379a000000000000000000000000000000000000000000000000000000000815260040161120b9061360f565b60405180910390fd5b600061121e611159565b905061122e818787878787611d2c565b60005b84518110156113df57600085828151811061124f5761124e612ee7565b5b60200260200101519050600085838151811061126e5761126d612ee7565b5b60200260200101519050600080600084815260200190815260200160002060008b73ffffffffffffffffffffffffffffffffffffffff1673ffffffffffffffffffffffffffffffffffffffff1681526020019081526020016000205490508181101561130f576040517f08c379a0000000000000000000000000000000000000000000000000000000008152600401611306906136a1565b60405180910390fd5b81810360008085815260200190815260200160002060008c73ffffffffffffffffffffffffffffffffffffffff1673ffffffffffffffffffffffffffffffffffffffff168152602001908152602001600020819055508160008085815260200190815260200160002060008b73ffffffffffffffffffffffffffffffffffffffff1673ffffffffffffffffffffffffffffffffffffffff16815260200190815260200160002060008282546113c49190612eb3565b92505081905550505050806113d890612f16565b9050611231565b508473ffffffffffffffffffffffffffffffffffffffff168673ffffffffffffffffffffffffffffffffffffffff168273ffffffffffffffffffffffffffffffffffffffff167f4a39dc06d4c0dbc64b70af90fd698a233a518aa5d07e595d983b8c0526c8f7fb87876040516114569291906136c1565b60405180910390a461146c818787878787611d34565b61147a818787878787611f13565b505050505050565b6000600360009054906101000a900473ffffffffffffffffffffffffffffffffffffffff16905081600360006101000a81548173ffffffffffffffffffffffffffffffffffffffff021916908373ffffffffffffffffffffffffffffffffffffffff1602179055508173ffffffffffffffffffffffffffffffffffffffff168173ffffffffffffffffffffffffffffffffffffffff167f8be0079c531659141344cd1fd0a4f28419497f9722a3daafe3b4186f6b6457e060405160405180910390a35050565b600081600001549050919050565b8173ffffffffffffffffffffffffffffffffffffffff168373ffffffffffffffffffffffffffffffffffffffff16036115c4576040517f08c379a00000000000000000000000000000000000000000000000000000000081526004016115bb9061376a565b60405180910390fd5b80600160008573ffffffffffffffffffffffffffffffffffffffff1673ffffffffffffffffffffffffffffffffffffffff16815260200190815260200160002060008473ffffffffffffffffffffffffffffffffffffffff1673ffffffffffffffffffffffffffffffffffffffff16815260200190815260200160002060006101000a81548160ff0219169083151502179055508173ffffffffffffffffffffffffffffffffffffffff168373ffffffffffffffffffffffffffffffffffffffff167f17307eab39ab6107e8899845ad3d59bd9653f200f220920489ca2b5937696c31836040516116b591906122bf565b60405180910390a3505050565b600073ffffffffffffffffffffffffffffffffffffffff168373ffffffffffffffffffffffffffffffffffffffff1603611731576040517f08c379a0000000000000000000000000000000000000000000000000000000008152600401611728906137fc565b60405180910390fd5b600061173b611159565b9050600061174884611cb2565b9050600061175584611cb2565b905061177583876000858560405180602001604052806000815250611d2c565b600080600087815260200190815260200160002060008873ffffffffffffffffffffffffffffffffffffffff1673ffffffffffffffffffffffffffffffffffffffff1681526020019081526020016000205490508481101561180c576040517f08c379a00000000000000000000000000000000000000000000000000000000081526004016118039061388e565b60405180910390fd5b84810360008088815260200190815260200160002060008973ffffffffffffffffffffffffffffffffffffffff1673ffffffffffffffffffffffffffffffffffffffff16815260200190815260200160002081905550600073ffffffffffffffffffffffffffffffffffffffff168773ffffffffffffffffffffffffffffffffffffffff168573ffffffffffffffffffffffffffffffffffffffff167fc3d58168c5ae7397731d063d5bbf3d657854427343f4c083240f7aacaa2d0f6289896040516118d99291906134e2565b60405180910390a46118ff84886000868660405180602001604052806000815250611d34565b50505050505050565b6001816000016000828254019250508190555050565b8060056000848152602001908152602001600020908161193e9190613a45565b50817f6bb7ff708619ba0610cba295a58592e0451dee2622938c8755667688daf3529b61196a846105ee565b604051611977919061236a565b60405180910390a25050565b600073ffffffffffffffffffffffffffffffffffffffff168473ffffffffffffffffffffffffffffffffffffffff16036119f2576040517f08c379a00000000000000000000000000000000000000000000000000000000081526004016119e99061360f565b60405180910390fd5b60006119fc611159565b90506000611a0985611cb2565b90506000611a1685611cb2565b9050611a26838989858589611d2c565b600080600088815260200190815260200160002060008a73ffffffffffffffffffffffffffffffffffffffff1673ffffffffffffffffffffffffffffffffffffffff16815260200190815260200160002054905085811015611abd576040517f08c379a0000000000000000000000000000000000000000000000000000000008152600401611ab4906136a1565b60405180910390fd5b85810360008089815260200190815260200160002060008b73ffffffffffffffffffffffffffffffffffffffff1673ffffffffffffffffffffffffffffffffffffffff168152602001908152602001600020819055508560008089815260200190815260200160002060008a73ffffffffffffffffffffffffffffffffffffffff1673ffffffffffffffffffffffffffffffffffffffff1681526020019081526020016000206000828254611b729190612eb3565b925050819055508773ffffffffffffffffffffffffffffffffffffffff168973ffffffffffffffffffffffffffffffffffffffff168573ffffffffffffffffffffffffffffffffffffffff167fc3d58168c5ae7397731d063d5bbf3d657854427343f4c083240f7aacaa2d0f628a8a604051611bef9291906134e2565b60405180910390a4611c05848a8a86868a611d34565b611c13848a8a8a8a8a611d3c565b505050505050505050565b606060028054611c2d906132bb565b80601f0160208091040260200160405190810160405280929190818152602001828054611c59906132bb565b8015611ca65780601f10611c7b57610100808354040283529160200191611ca6565b820191906000526020600020905b815481529060010190602001808311611c8957829003601f168201915b50505050509050919050565b60606000600167ffffffffffffffff811115611cd157611cd061242b565b5b604051908082528060200260200182016040528015611cff5781602001602082028036833780820191505090505b5090508281600081518110611d1757611d16612ee7565b5b60200260200101818152505080915050919050565b505050505050565b505050505050565b611d5b8473ffffffffffffffffffffffffffffffffffffffff166120ea565b15611f0b578373ffffffffffffffffffffffffffffffffffffffff1663f23a6e6187878686866040518663ffffffff1660e01b8152600401611da1959493929190613b6c565b6020604051808303816000875af1925050508015611ddd57506040513d601f19601f82011682018060405250810190611dda9190613bdb565b60015b611e8257611de9613c15565b806308c379a003611e455750611dfd613c37565b80611e085750611e47565b806040517f08c379a0000000000000000000000000000000000000000000000000000000008152600401611e3c919061236a565b60405180910390fd5b505b6040517f08c379a0000000000000000000000000000000000000000000000000000000008152600401611e7990613d39565b60405180910390fd5b63f23a6e6160e01b7bffffffffffffffffffffffffffffffffffffffffffffffffffffffff1916817bffffffffffffffffffffffffffffffffffffffffffffffffffffffff191614611f09576040517f08c379a0000000000000000000000000000000000000000000000000000000008152600401611f0090613dcb565b60405180910390fd5b505b505050505050565b611f328473ffffffffffffffffffffffffffffffffffffffff166120ea565b156120e2578373ffffffffffffffffffffffffffffffffffffffff1663bc197c8187878686866040518663ffffffff1660e01b8152600401611f78959493929190613deb565b6020604051808303816000875af1925050508015611fb457506040513d601f19601f82011682018060405250810190611fb19190613bdb565b60015b61205957611fc0613c15565b806308c379a00361201c5750611fd4613c37565b80611fdf575061201e565b806040517f08c379a0000000000000000000000000000000000000000000000000000000008152600401612013919061236a565b60405180910390fd5b505b6040517f08c379a000000000000000000000000000000000000000000000000000000000815260040161205090613d39565b60405180910390fd5b63bc197c8160e01b7bffffffffffffffffffffffffffffffffffffffffffffffffffffffff1916817bffffffffffffffffffffffffffffffffffffffffffffffffffffffff1916146120e0576040517f08c379a00000000000000000000000000000000000000000000000000000000081526004016120d790613dcb565b60405180910390fd5b505b505050505050565b6000808273ffffffffffffffffffffffffffffffffffffffff163b119050919050565b6000604051905090565b600080fd5b600080fd5b600073ffffffffffffffffffffffffffffffffffffffff82169050919050565b600061214c82612121565b9050919050565b61215c81612141565b811461216757600080fd5b50565b60008135905061217981612153565b92915050565b6000819050919050565b6121928161217f565b811461219d57600080fd5b50565b6000813590506121af81612189565b92915050565b600080604083850312156121cc576121cb612117565b5b60006121da8582860161216a565b92505060206121eb858286016121a0565b9150509250929050565b6121fe8161217f565b82525050565b600060208201905061221960008301846121f5565b92915050565b60007fffffffff0000000000000000000000000000000000000000000000000000000082169050919050565b6122548161221f565b811461225f57600080fd5b50565b6000813590506122718161224b565b92915050565b60006020828403121561228d5761228c612117565b5b600061229b84828501612262565b91505092915050565b60008115159050919050565b6122b9816122a4565b82525050565b60006020820190506122d460008301846122b0565b92915050565b600081519050919050565b600082825260208201905092915050565b60005b838110156123145780820151818401526020810190506122f9565b60008484015250505050565b6000601f19601f8301169050919050565b600061233c826122da565b61234681856122e5565b93506123568185602086016122f6565b61235f81612320565b840191505092915050565b600060208201905081810360008301526123848184612331565b905092915050565b6000602082840312156123a2576123a1612117565b5b60006123b0848285016121a0565b91505092915050565b600080604083850312156123d0576123cf612117565b5b60006123de858286016121a0565b92505060206123ef858286016121a0565b9150509250929050565b60006020828403121561240f5761240e612117565b5b600061241d8482850161216a565b91505092915050565b600080fd5b7f4e487b7100000000000000000000000000000000000000000000000000000000600052604160045260246000fd5b61246382612320565b810181811067ffffffffffffffff821117156124825761248161242b565b5b80604052505050565b600061249561210d565b90506124a1828261245a565b919050565b600067ffffffffffffffff8211156124c1576124c061242b565b5b602082029050602081019050919050565b600080fd5b60006124ea6124e5846124a6565b61248b565b9050808382526020820190506020840283018581111561250d5761250c6124d2565b5b835b81811015612536578061252288826121a0565b84526020840193505060208101905061250f565b5050509392505050565b600082601f83011261255557612554612426565b5b81356125658482602086016124d7565b91505092915050565b600080fd5b600067ffffffffffffffff82111561258e5761258d61242b565b5b61259782612320565b9050602081019050919050565b82818337600083830152505050565b60006125c66125c184612573565b61248b565b9050828152602081018484840111156125e2576125e161256e565b5b6125ed8482856125a4565b509392505050565b600082601f83011261260a57612609612426565b5b813561261a8482602086016125b3565b91505092915050565b600080600080600060a0868803121561263f5761263e612117565b5b600061264d8882890161216a565b955050602061265e8882890161216a565b945050604086013567ffffffffffffffff81111561267f5761267e61211c565b5b61268b88828901612540565b935050606086013567ffffffffffffffff8111156126ac576126ab61211c565b5b6126b888828901612540565b925050608086013567ffffffffffffffff8111156126d9576126d861211c565b5b6126e5888289016125f5565b9150509295509295909350565b600067ffffffffffffffff82111561270d5761270c61242b565b5b602082029050602081019050919050565b600061273161272c846126f2565b61248b565b90508083825260208201905060208402830185811115612754576127536124d2565b5b835b8181101561277d5780612769888261216a565b845260208401935050602081019050612756565b5050509392505050565b600082601f83011261279c5761279b612426565b5b81356127ac84826020860161271e565b91505092915050565b600080604083850312156127cc576127cb612117565b5b600083013567ffffffffffffffff8111156127ea576127e961211c565b5b6127f685828601612787565b925050602083013567ffffffffffffffff8111156128175761281661211c565b5b61282385828601612540565b9150509250929050565b600081519050919050565b600082825260208201905092915050565b6000819050602082019050919050565b6128628161217f565b82525050565b60006128748383612859565b60208301905092915050565b6000602082019050919050565b60006128988261282d565b6128a28185612838565b93506128ad83612849565b8060005b838110156128de5781516128c58882612868565b97506128d083612880565b9250506001810190506128b1565b5085935050505092915050565b60006020820190508181036000830152612905818461288d565b905092915050565b61291681612141565b82525050565b6000602082019050612931600083018461290d565b92915050565b600067ffffffffffffffff8211156129525761295161242b565b5b602082029050602081019050919050565b600067ffffffffffffffff82111561297e5761297d61242b565b5b61298782612320565b9050602081019050919050565b60006129a76129a284612963565b61248b565b9050828152602081018484840111156129c3576129c261256e565b5b6129ce8482856125a4565b509392505050565b600082601f8301126129eb576129ea612426565b5b81356129fb848260208601612994565b91505092915050565b6000612a17612a1284612937565b61248b565b90508083825260208201905060208402830185811115612a3a57612a396124d2565b5b835b81811015612a8157803567ffffffffffffffff811115612a5f57612a5e612426565b5b808601612a6c89826129d6565b85526020850194505050602081019050612a3c565b5050509392505050565b600082601f830112612aa057612a9f612426565b5b8135612ab0848260208601612a04565b91505092915050565b600080600060608486031215612ad257612ad1612117565b5b600084013567ffffffffffffffff811115612af057612aef61211c565b5b612afc86828701612787565b935050602084013567ffffffffffffffff811115612b1d57612b1c61211c565b5b612b2986828701612540565b925050604084013567ffffffffffffffff811115612b4a57612b4961211c565b5b612b5686828701612a8b565b9150509250925092565b600081519050919050565b600082825260208201905092915050565b6000819050602082019050919050565b612b9581612141565b82525050565b6000612ba78383612b8c565b60208301905092915050565b6000602082019050919050565b6000612bcb82612b60565b612bd58185612b6b565b9350612be083612b7c565b8060005b83811015612c11578151612bf88882612b9b565b9750612c0383612bb3565b925050600181019050612be4565b5085935050505092915050565b60006020820190508181036000830152612c388184612bc0565b905092915050565b612c49816122a4565b8114612c5457600080fd5b50565b600081359050612c6681612c40565b92915050565b60008060408385031215612c8357612c82612117565b5b6000612c918582860161216a565b9250506020612ca285828601612c57565b9150509250929050565b600080600060608486031215612cc557612cc4612117565b5b6000612cd38682870161216a565b9350506020612ce4868287016121a0565b925050604084013567ffffffffffffffff811115612d0557612d0461211c565b5b612d11868287016129d6565b9150509250925092565b60008060408385031215612d3257612d31612117565b5b6000612d408582860161216a565b9250506020612d518582860161216a565b9150509250929050565b600080600080600060a08688031215612d7757612d76612117565b5b6000612d858882890161216a565b9550506020612d968882890161216a565b9450506040612da7888289016121a0565b9350506060612db8888289016121a0565b925050608086013567ffffffffffffffff811115612dd957612dd861211c565b5b612de5888289016125f5565b9150509295509295909350565b7f455243313135353a2061646472657373207a65726f206973206e6f742061207660008201527f616c6964206f776e657200000000000000000000000000000000000000000000602082015250565b6000612e4e602a836122e5565b9150612e5982612df2565b604082019050919050565b60006020820190508181036000830152612e7d81612e41565b9050919050565b7f4e487b7100000000000000000000000000000000000000000000000000000000600052601160045260246000fd5b6000612ebe8261217f565b9150612ec98361217f565b9250828201905080821115612ee157612ee0612e84565b5b92915050565b7f4e487b7100000000000000000000000000000000000000000000000000000000600052603260045260246000fd5b6000612f218261217f565b91507fffffffffffffffffffffffffffffffffffffffffffffffffffffffffffffffff8203612f5357612f52612e84565b5b600182019050919050565b7f455243313135353a2063616c6c6572206973206e6f7420746f6b656e206f776e60008201527f6572206f7220617070726f766564000000000000000000000000000000000000602082015250565b6000612fba602e836122e5565b9150612fc582612f5e565b604082019050919050565b60006020820190508181036000830152612fe981612fad565b9050919050565b7f455243313135353a206163636f756e747320616e6420696473206c656e67746860008201527f206d69736d617463680000000000000000000000000000000000000000000000602082015250565b600061304c6029836122e5565b915061305782612ff0565b604082019050919050565b6000602082019050818103600083015261307b8161303f565b9050919050565b7f417272617973206c656e677468206d69736d6174636800000000000000000000600082015250565b60006130b86016836122e5565b91506130c382613082565b602082019050919050565b600060208201905081810360008301526130e7816130ab565b9050919050565b60006130f98261217f565b91506131048361217f565b925082820390508181111561311c5761311b612e84565b5b92915050565b7f496e76616c696420746f6b656e20737570706c792e0000000000000000000000600082015250565b60006131586015836122e5565b915061316382613122565b602082019050919050565b600060208201905081810360008301526131878161314b565b9050919050565b7f43616c6c6572206973206e6f7420617574686f72697a65640000000000000000600082015250565b60006131c46018836122e5565b91506131cf8261318e565b602082019050919050565b600060208201905081810360008301526131f3816131b7565b9050919050565b7f4f776e61626c653a206e6577206f776e657220697320746865207a65726f206160008201527f6464726573730000000000000000000000000000000000000000000000000000602082015250565b60006132566026836122e5565b9150613261826131fa565b604082019050919050565b6000602082019050818103600083015261328581613249565b9050919050565b7f4e487b7100000000000000000000000000000000000000000000000000000000600052602260045260246000fd5b600060028204905060018216806132d357607f821691505b6020821081036132e6576132e561328c565b5b50919050565b600081905092915050565b60008190508160005260206000209050919050565b60008154613319816132bb565b61332381866132ec565b9450600182166000811461333e576001811461335357613386565b60ff1983168652811515820286019350613386565b61335c856132f7565b60005b8381101561337e5781548189015260018201915060208101905061335f565b838801955050505b50505092915050565b600061339a826122da565b6133a481856132ec565b93506133b48185602086016122f6565b80840191505092915050565b60006133cc828561330c565b91506133d8828461338f565b91508190509392505050565b7f4f776e61626c653a2063616c6c6572206973206e6f7420746865206f776e6572600082015250565b600061341a6020836122e5565b9150613425826133e4565b602082019050919050565b600060208201905081810360008301526134498161340d565b9050919050565b7f455243313135353a206d696e7420746f20746865207a65726f2061646472657360008201527f7300000000000000000000000000000000000000000000000000000000000000602082015250565b60006134ac6021836122e5565b91506134b782613450565b604082019050919050565b600060208201905081810360008301526134db8161349f565b9050919050565b60006040820190506134f760008301856121f5565b61350460208301846121f5565b9392505050565b7f455243313135353a2069647320616e6420616d6f756e7473206c656e6774682060008201527f6d69736d61746368000000000000000000000000000000000000000000000000602082015250565b60006135676028836122e5565b91506135728261350b565b604082019050919050565b600060208201905081810360008301526135968161355a565b9050919050565b7f455243313135353a207472616e7366657220746f20746865207a65726f20616460008201527f6472657373000000000000000000000000000000000000000000000000000000602082015250565b60006135f96025836122e5565b91506136048261359d565b604082019050919050565b60006020820190508181036000830152613628816135ec565b9050919050565b7f455243313135353a20696e73756666696369656e742062616c616e636520666f60008201527f72207472616e7366657200000000000000000000000000000000000000000000602082015250565b600061368b602a836122e5565b91506136968261362f565b604082019050919050565b600060208201905081810360008301526136ba8161367e565b9050919050565b600060408201905081810360008301526136db818561288d565b905081810360208301526136ef818461288d565b90509392505050565b7f455243313135353a2073657474696e6720617070726f76616c2073746174757360008201527f20666f722073656c660000000000000000000000000000000000000000000000602082015250565b60006137546029836122e5565b915061375f826136f8565b604082019050919050565b6000602082019050818103600083015261378381613747565b9050919050565b7f455243313135353a206275726e2066726f6d20746865207a65726f206164647260008201527f6573730000000000000000000000000000000000000000000000000000000000602082015250565b60006137e66023836122e5565b91506137f18261378a565b604082019050919050565b60006020820190508181036000830152613815816137d9565b9050919050565b7f455243313135353a206275726e20616d6f756e7420657863656564732062616c60008201527f616e636500000000000000000000000000000000000000000000000000000000602082015250565b60006138786024836122e5565b91506138838261381c565b604082019050919050565b600060208201905081810360008301526138a78161386b565b9050919050565b60006020601f8301049050919050565b600082821b905092915050565b6000600883026138fb7fffffffffffffffffffffffffffffffffffffffffffffffffffffffffffffffff826138be565b61390586836138be565b95508019841693508086168417925050509392505050565b6000819050919050565b600061394261393d6139388461217f565b61391d565b61217f565b9050919050565b6000819050919050565b61395c83613927565b61397061396882613949565b8484546138cb565b825550505050565b600090565b613985613978565b613990818484613953565b505050565b5b818110156139b4576139a960008261397d565b600181019050613996565b5050565b601f8211156139f9576139ca816132f7565b6139d3846138ae565b810160208510156139e2578190505b6139f66139ee856138ae565b830182613995565b50505b505050565b600082821c905092915050565b6000613a1c600019846008026139fe565b1980831691505092915050565b6000613a358383613a0b565b9150826002028217905092915050565b613a4e826122da565b67ffffffffffffffff811115613a6757613a6661242b565b5b613a7182546132bb565b613a7c8282856139b8565b600060209050601f831160018114613aaf5760008415613a9d578287015190505b613aa78582613a29565b865550613b0f565b601f198416613abd866132f7565b60005b82811015613ae557848901518255600182019150602085019450602081019050613ac0565b86831015613b025784890151613afe601f891682613a0b565b8355505b6001600288020188555050505b505050505050565b600081519050919050565b600082825260208201905092915050565b6000613b3e82613b17565b613b488185613b22565b9350613b588185602086016122f6565b613b6181612320565b840191505092915050565b600060a082019050613b81600083018861290d565b613b8e602083018761290d565b613b9b60408301866121f5565b613ba860608301856121f5565b8181036080830152613bba8184613b33565b90509695505050505050565b600081519050613bd58161224b565b92915050565b600060208284031215613bf157613bf0612117565b5b6000613bff84828501613bc6565b91505092915050565b60008160e01c9050919050565b600060033d1115613c345760046000803e613c31600051613c08565b90505b90565b600060443d10613cc457613c4961210d565b60043d036004823e80513d602482011167ffffffffffffffff82111715613c71575050613cc4565b808201805167ffffffffffffffff811115613c8f5750505050613cc4565b80602083010160043d038501811115613cac575050505050613cc4565b613cbb8260200185018661245a565b82955050505050505b90565b7f455243313135353a207472616e7366657220746f206e6f6e2d4552433131353560008201527f526563656976657220696d706c656d656e746572000000000000000000000000602082015250565b6000613d236034836122e5565b9150613d2e82613cc7565b604082019050919050565b60006020820190508181036000830152613d5281613d16565b9050919050565b7f455243313135353a204552433131353552656365697665722072656a6563746560008201527f6420746f6b656e73000000000000000000000000000000000000000000000000602082015250565b6000613db56028836122e5565b9150613dc082613d59565b604082019050919050565b60006020820190508181036000830152613de481613da8565b9050919050565b600060a082019050613e00600083018861290d565b613e0d602083018761290d565b8181036040830152613e1f818661288d565b90508181036060830152613e33818561288d565b90508181036080830152613e478184613b33565b9050969550505050505056fea26469706673582212203f70c206a73972fe2cd88513a931b982e393e5e46047e6e6a7aca6555c432c1a64736f6c6343000813003368747470733a2f2f676174657761792e70696e6174612e636c6f75642f697066732f",
  "immutableReferences": {},
  "source": "// SPDX-License-Identifier: MIT\r\npragma solidity ^0.8.19;\r\n\r\nimport '../node_modules/@openzeppelin/contracts/token/ERC1155/ERC1155.sol';\r\nimport '../node_modules/@openzeppelin/contracts/token/ERC1155/extensions/ERC1155URIStorage.sol';\r\nimport '../node_modules/@openzeppelin/contracts/access/Ownable.sol';\r\nimport '../node_modules/@openzeppelin/contracts/utils/Counters.sol';\r\n\r\ncontract WinenwinToken is ERC1155, Ownable, ERC1155URIStorage {\r\n    using Counters for Counters.Counter;\r\n    Counters.Counter private _tokenId;\r\n    string public constant name = 'winenwin';\r\n    string public constant symbol = 'WIN';\r\n    string private _uri;\r\n    address[] private _admins;\r\n\r\n    // address public tokenOwner; //  \r\n    // address public admin; //  \r\n\r\n    constructor(address[] memory admins_) ERC1155(_uri) {\r\n        // tokenOwner = msg.sender;\r\n        // admin = address(0);\r\n        _setBaseURI('https://gateway.pinata.cloud/ipfs/');\r\n        for (uint256 i = 0; i < admins_.length; i++) {\r\n            _admins.push(admins_[i]);\r\n        }\r\n    }\r\n\r\n    mapping(uint256 => uint256) public tokenSupply;\r\n    mapping(uint256 => string) private _tokenURIs;\r\n\r\n    function uri(uint256 tokenId) public view virtual override(ERC1155, ERC1155URIStorage) returns (string memory) {\r\n        return super.uri(tokenId);\r\n    }\r\n\r\n    function mint(address account, uint256 amount, string memory _tokenURI) public {\r\n        // require( msg.sender == tokenOwner || msg.sender == admin, \"Caller is not authorized\" ); //   \r\n        // require(totalSupply + amount <= maxSuply, \"Exceeds maximum supply.\"); //   \r\n        require(isAdmin(msg.sender), 'Caller is not authorized');\r\n\r\n        _tokenId.increment();\r\n        uint256 tokenId = _tokenId.current();\r\n\r\n        tokenSupply[tokenId] += amount;\r\n        _setURI(tokenId, _tokenURI);\r\n        _mint(account, tokenId, amount, '');\r\n    }\r\n\r\n    //   \r\n    function addTokenSupply(uint256 tokenId, uint256 amount) public onlyOwner {\r\n        // uint256 newSupply = tokenSupply[tokenId] + amount;\r\n        // require(newSupply >= tokenSupply[tokenId], \"Invalid token supply.\"); // token        \r\n\r\n        tokenSupply[tokenId] += amount;\r\n        _mint(msg.sender, tokenId, amount, '');\r\n    }\r\n\r\n    //   \r\n    function removeTokenSupply(uint256 tokenId, uint256 amount) public {\r\n        tokenSupply[tokenId] -= amount;\r\n        uint256 newSupply = tokenSupply[tokenId];\r\n        require(newSupply >= 0, 'Invalid token supply.'); // token   0    \r\n\r\n        _burn(msg.sender, tokenId, amount);\r\n    }\r\n\r\n    //    mint  \r\n    function mintBatch(address[] memory accounts, uint256[] memory amounts, string[] memory tokenURIs) public {\r\n        require(accounts.length == amounts.length && accounts.length == tokenURIs.length, 'Arrays length mismatch');\r\n\r\n        for (uint256 i = 0; i < accounts.length; i++) {\r\n            mint(accounts[i], amounts[i], tokenURIs[i]);\r\n        }\r\n    }\r\n\r\n    function isAdmin(address account) public view returns (bool) {\r\n        for (uint256 i = 0; i < _admins.length; i++) {\r\n            if (_admins[i] == account) {\r\n                return true;\r\n            }\r\n        }\r\n        return false;\r\n    }\r\n\r\n    function getNftAmount() public view returns (uint256) {\r\n        uint256 tokenId = uint256(_tokenId.current());\r\n        return tokenId;\r\n    }\r\n\r\n    function getOwners() public view onlyOwner returns (address[] memory) {\r\n        return _admins;\r\n    }\r\n}\r\n",
  "sourcePath": "C:\\Users\\user\\Desktop\\Epsilon-Studio\\server\\contracts\\WinenwinToken.sol",
  "compiler": {
    "name": "solc",
    "version": "0.8.19+commit.7dd6d404.Emscripten.clang"
  },
  "schemaVersion": "3.4.13",
  "updatedAt": "2023-05-08T10:43:20.664Z",
  "devdoc": {
    "events": {
      "ApprovalForAll(address,address,bool)": {
        "details": "Emitted when `account` grants or revokes permission to `operator` to transfer their tokens, according to `approved`."
      },
      "TransferBatch(address,address,address,uint256[],uint256[])": {
        "details": "Equivalent to multiple {TransferSingle} events, where `operator`, `from` and `to` are the same for all transfers."
      },
      "TransferSingle(address,address,address,uint256,uint256)": {
        "details": "Emitted when `value` tokens of token type `id` are transferred from `from` to `to` by `operator`."
      },
      "URI(string,uint256)": {
        "details": "Emitted when the URI for token type `id` changes to `value`, if it is a non-programmatic URI. If an {URI} event was emitted for `id`, the standard https://eips.ethereum.org/EIPS/eip-1155#metadata-extensions[guarantees] that `value` will equal the value returned by {IERC1155MetadataURI-uri}."
      }
    },
    "kind": "dev",
    "methods": {
      "balanceOf(address,uint256)": {
        "details": "See {IERC1155-balanceOf}. Requirements: - `account` cannot be the zero address."
      },
      "balanceOfBatch(address[],uint256[])": {
        "details": "See {IERC1155-balanceOfBatch}. Requirements: - `accounts` and `ids` must have the same length."
      },
      "isApprovedForAll(address,address)": {
        "details": "See {IERC1155-isApprovedForAll}."
      },
      "owner()": {
        "details": "Returns the address of the current owner."
      },
      "renounceOwnership()": {
        "details": "Leaves the contract without owner. It will not be possible to call `onlyOwner` functions anymore. Can only be called by the current owner. NOTE: Renouncing ownership will leave the contract without an owner, thereby removing any functionality that is only available to the owner."
      },
      "safeBatchTransferFrom(address,address,uint256[],uint256[],bytes)": {
        "details": "See {IERC1155-safeBatchTransferFrom}."
      },
      "safeTransferFrom(address,address,uint256,uint256,bytes)": {
        "details": "See {IERC1155-safeTransferFrom}."
      },
      "setApprovalForAll(address,bool)": {
        "details": "See {IERC1155-setApprovalForAll}."
      },
      "supportsInterface(bytes4)": {
        "details": "See {IERC165-supportsInterface}."
      },
      "transferOwnership(address)": {
        "details": "Transfers ownership of the contract to a new account (`newOwner`). Can only be called by the current owner."
      }
    },
    "version": 1
  },
  "userdoc": {
    "kind": "user",
    "methods": {},
    "version": 1
  }
}